:020000040800F2
:10000000000003207D38000885250008932500089E
:10001000992500089F250008A5250008000000007C
:10002000000000000000000000000000AB250008F8
:10003000B925000800000000C7250008D5250008E4
:10004000D1380008D1380008D13800088D260008C2
:10005000D1380008D1380008D1380008D13800085C
:10006000D1380008D1380008D1380008D13800084C
:10007000D1380008D138000809260008D138000816
:10008000D1380008D1380008D1380008F52500081B
:10009000E1250008D1380008D1380008D13800081F
:1000A000D1380008D1380008D1380008D13800080C
:1000B000D1380008D1380008D1380008D1380008FC
:1000C000D1380008D1380008D1380008D1380008EC
:1000D0001D26000831260008D1380008D138000854
:1000E0007D260008D1380008D1380008D138000832
:1000F00045260008512600085D260008D138000872
:10010000D1380008D1380008D1380008D1380008AB
:10011000D1380008D1380008D1380008D13800089B
:10012000D1380008D138000869260008D138000805
:0C013000D1380008D1380008D138000890
:1001400010B5054C237833B9044B13B10448AFF311
:1001500000800123237010BD780300200000000000
:100160008426010808B5034B1BB103490348AFF3CC
:10017000008008BD000000007C03002084260108E8
:10018000034613F8012B002AFBD1181A01387047D7
:1001900001F0FF01102A2BDB10F0070F08D010F838
:1001A000013B013A8B422DD010F0070F42B3F6D13C
:1001B000F0B441EA012141EA014122F007047FF055
:1001C00000070023F0E80256083C85EA010586EAAC
:1001D000010685FA47F5A3FA87F586FA47F6A5FAE8
:1001E00087F68EB9EED1F0BC01F0FF0102F00702F4
:1001F00032B110F8013B013A83EA010313B1F8D19F
:100200000020704701387047002D06BF354603387F
:10021000073815F0010F07D1013015F4807F02BFB8
:10022000013015F4C03F0130F0BC0138704700BF09
:1002300053B94AB9002908BF00281CBF4FF0FF314D
:100240004FF0FF3000F074B9ADF1080C6DE904CE49
:1002500000F006F8DDF804E0DDE9022304B07047A1
:100260002DE9F047089D04468E46002B4DD18A4269
:10027000944669D9B2FA82F252B101FA02F3C2F19C
:10028000200120FA01F10CFA02FC41EA030E94402D
:100290004FEA1C48210CBEFBF8F61FFA8CF708FB4E
:1002A00016E341EA034306FB07F199420AD91CEB26
:1002B000030306F1FF3080F01F81994240F21C8158
:1002C000023E63445B1AA4B2B3FBF8F008FB1033A0
:1002D00044EA034400FB07F7A7420AD91CEB0404D5
:1002E00000F1FF3380F00A81A74240F207816444A5
:1002F000023840EA0640E41B00261DB1D44000232A
:10030000C5E900433146BDE8F0878B4209D9002D8D
:1003100000F0EF800026C5E9000130463146BDE817
:10032000F087B3FA83F6002E4AD18B4202D3824281
:1003300000F2F980841A61EB030301209E46002D30
:10034000E0D0C5E9004EDDE702B9FFDEB2FA82F285
:10035000002A40F09280A1EB0C014FEA1C471FFAE3
:100360008CFE0126200CB1FBF7F307FB131140EACA
:1003700001410EFB03F0884208D91CEB010103F197
:10038000FF3802D2884200F2CB804346091AA4B259
:10039000B1FBF7F007FB101144EA01440EFB00FE2D
:1003A000A64508D91CEB040400F1FF3102D2A64592
:1003B00000F2BB800846A4EB0E0440EA03409CE731
:1003C000C6F12007B34022FA07FC4CEA030C20FADE
:1003D00007F401FA06F31C43F9404FEA1C4900FAFE
:1003E00006F3B1FBF9F8200C1FFA8CFE09FB18117B
:1003F00040EA014108FB0EF0884202FA06F20BD9EE
:100400001CEB010108F1FF3A80F08880884240F23D
:100410008580A8F102086144091AA4B2B1FBF9F081
:1004200009FB101144EA014100FB0EFE8E4508D97C
:100430001CEB010100F1FF346CD28E456AD9023801
:10044000614440EA0840A0FB0294A1EB0E01A142E6
:10045000C846A64656D353D05DB1B3EB080261EB54
:100460000E0101FA07F722FA06F3F1401F43C5E92E
:10047000007100263146BDE8F087C2F12003D84064
:100480000CFA02FC21FA03F3914001434FEA1C47A6
:100490001FFA8CFEB3FBF7F007FB10360B0C43EA98
:1004A000064300FB0EF69E4204FA02F408D91CEB48
:1004B000030300F1FF382FD29E422DD90238634446
:1004C0009B1B89B2B3FBF7F607FB163341EA0341E6
:1004D00006FB0EF38B4208D91CEB010106F1FF3835
:1004E00016D28B4214D9023E6144C91A46EA00462C
:1004F00038E72E46284605E70646E3E61846F8E6BE
:100500004B45A9D2B9EB020864EB0C0E0138A3E706
:100510004646EAE7204694E74046D1E7D0467BE7E7
:10052000023B614432E7304609E76444023842E75F
:10053000704700BF80B483B000AF7860064BD3F83B
:10054000902005497B681343C1F8903000BF0C37F9
:10055000BD465DF8047B70470008005880B485B044
:1005600000AF78604FF0B043DA6C4FF0B0417B6879
:100570001343CB644FF0B043DA6C7B681340FB60ED
:10058000FB6800BF1437BD465DF8047B704780B43C
:1005900085B000AF78604FF0B043D3F84C214FF0F6
:1005A000B0417B681343C1F84C314FF0B043D3F8EE
:1005B0004C217B681340FB60FB6800BF1437BD46CD
:1005C0005DF8047B704780B500AF03F065FB03F076
:1005D00069FB4FF48030FFF7ADFF10F029F800F011
:1005E00021F800F0C3F800BF80BD0000B0B588B0AE
:1005F00000AF0B4B3C1D1D460FCD0FC495E8070007
:1006000003C422800234130C23700FF0CDFA3B1D7B
:1006100018460EF068FD00BF2037BD46B0BD00BFD4
:100620009C26010880B588B000AF3B1D00221A60EF
:100630005A609A60DA601A610023BB8300237B83CF
:1006400000233B830023FB7738E0FB7F444ADB0039
:1006500013449B79002B2BD0FB7F414A52F8333057
:10066000404A93421BD03F4A934223D8B3F1904F64
:1006700003D03D4A934209D01CE0FB7F384ADB009F
:1006800013449A88BB8B1343BB8314E0FB7F344A2B
:10069000DB0013449A887B8B13437B830BE0FB7F47
:1006A0002F4ADB0013449A883B8B13433B8302E0C1
:1006B00000BF00E000BFFB7F0133FB77FB7F252BF2
:1006C000C3D90023FB600123BB6003233B61BB8BC9
:1006D000002B14D0BB8B7B600120FFF73FFF012074
:1006E000FFF755FF3B1D19464FF0904003F0ECFF1C
:1006F000BB8B002219464FF0904004F055F97B8BDC
:10070000002B12D07B8B7B600220FFF727FF02209B
:10071000FFF73DFF3B1D1946134803F0D5FF7B8BC8
:1007200000221946104804F03FF93B8B002B13D0F0
:100730003B8B7B600420FFF711FF0420FFF727FFAE
:100740003B1D1946074803F0BFFF3B8B00221946AB
:10075000044804F029F900BF00BF2037BD4680BD22
:1007600074310108000800480004004880B400AF5C
:1007700000BFBD465DF8047B7047000080B500AF48
:10078000002103480FF066FD01F0D6FB00BF80BDDD
:100790009403002080B584B000AFF8600B467A6007
:1007A0007B817B897A681946F8680FF093FD7A8916
:1007B0007B68F968022001F0C7F800BF1037BD461A
:1007C00080BD000080B483B000AF7860074BD3F8E1
:1007D000803023F0070205497B681343C1F880305D
:1007E00000BF0C37BD465DF8047B7047000400581D
:1007F00080B483B000AF78604FF0B0439B6823F4BF
:1008000000424FF0B0417B6813438B6000BF0C3750
:10081000BD465DF8047B704780B400AF044B1B6895
:100820001B0C9BB21846BD465DF8047B704700BFA9
:10083000002004E080B500AF00F014F80849002063
:1008400000F0E6FDFFF7BFFE0121012010F068FC7B
:1008500000F054F900F062F900F014F800BF80BD18
:10086000C009002080B500AF4FF40040FFF7C0FF83
:1008700010F044FC0420FFF7A5FF05F0CDFE00BFFB
:1008800080BD000080B588B000AF0EF0D7FF114AE0
:100890000021102010F05EFD0F4B3B600F4B7B6082
:1008A0003B4619460E480EF08FFE0E4BBB600E4BBA
:1008B000FB600E4B3B6140F23C537B6107F1080348
:1008C00018460FF0FDF80EF0B3FF00BF2037BD460D
:1008D00080BD00BF01F6000824070320F1080008CE
:1008E000090900083C09032030080320E80103201F
:1008F00080B483B000AF0346FB7100BF0C37BD4628
:100900005DF8047B7047000080B588B000AF786068
:100910007B685B680B33FB6107F10C0318460EF034
:100920000FFC3B7B19467B7B1A46BB7B2E4810F0A5
:1009300085FF3B7C19462D4810F080FFBB7D194692
:10094000FB7D1A463B7E2A4810F078FFFB691B8826
:100950009BB2A3F51243072B40D801A252F823F013
:10096000810900088909000891090008DD090008CB
:10097000AD090008BD090008C5090008D50900082F
:10098000786800F043F82AE0786800F091F826E0F3
:10099000184810F0D9FFFB6902331968FB6902336C
:1009A0005B681A46144810F049FF18E0FB690233EF
:1009B0001B681946114810F041FF10E0104810F074
:1009C000C3FF0CE0FB6902331B6819460D4810F0A9
:1009D00035FF04E00C4810F0B7FF00E000BF00BF97
:1009E0002037BD4680BD00BFB8260108DC260108BF
:1009F000F8260108102701083C2701088027010874
:100A0000B4270108D02701080828010880B58AB05A
:100A100000AF786007F10C0300221A605A609A60F8
:100A20009A8100237B627B685B680B333B623B6A85
:100A30000233FB61FB691B78002B1ED1184810F0B4
:100A400083FFFFF7D3FD0D233B737F23BB73FFF7BA
:100A5000E3FE7862796A134810F0F0FE7B6A9BB27D
:100A60003B8307F10C0318460EF054FB01F0B6FE71
:100A70000021012010F054FB0EE0FB691B78012BD4
:100A800006D1094810F060FF7B6800221A7003E06D
:100A9000064810F059FF00BF2837BD4680BD00BF93
:100AA000242801085428010874280108A0280108F6
:100AB00080B584B000AF78607B685B680B33FB6007
:100AC000FB680233BB60BB681B781946084810F00E
:100AD000B5FEBB681B78002B03D1064810F034FF2D
:100AE00003E0054810F030FF00BF1037BD4680BD61
:100AF000CC280108F82801083029010880B500AF8A
:100B0000002002F0FFFE012002F0FCFE022002F0B5
:100B1000F9FE012002F040FF00BF80BD80B500AFAC
:100B20000121002002F06CFF00BF80BD80B400AF47
:100B300000BFBD465DF8047B704780B582B000AF52
:100B4000786039604FF0FF3010F01AFB00BF0837B3
:100B5000BD4680BD80B582B000AF78600021102016
:100B600010F01AFC00BF0837BD4680BD80B582B0CA
:100B700000AF7860022010F07BFC00BF0837BD4654
:100B800080BD80B582B000AF7860022010F090FC8C
:100B900000BF0837BD4680BD80B582B000AF0346B8
:100BA000FB80FB88B3F5806F02D102F033F800E0E0
:100BB00000BF00BF0837BD4680BD000080B483B0D1
:100BC00000AF7860064BD3F8802005497B6813435B
:100BD000C1F8803000BF0C37BD465DF8047B70471C
:100BE0000008005880B483B000AF7860054B1A68E5
:100BF00004497B6813430B6000BF0C37BD465DF8AA
:100C0000047B70470008005880B483B000AF0D4BE0
:100C10009B6A9BB27B600B4B9B6A9BB23B6005E07F
:100C20003B687B60074B9B6A9BB23B607A683B6882
:100C30009A42F5D13B6818460C37BD465DF8047BF7
:100C4000704700BF0028004080B485B000AF034665
:100C50000A46FB711346BB71BA791D4913465B0006
:100C60001344DB000B4415331B78FB73FB7B062B13
:100C700009D0FA7B164913465B001344DB000B4492
:100C80001433FA791A70FA79114913465B00134448
:100C9000DB000B441533FA7B1A70FA790C491346C2
:100CA0005B001344DB000B441433BA791A70BA7931
:100CB000074913465B001344DB000B441533FA79F4
:100CC0001A7000BF1437BD465DF8047B704700BF43
:100CD0001002002080B485B000AF03460A46FB71C5
:100CE0001346BB71294B1B78DBB2BA799A4232D0DA
:100CF000BA79274913465B001344DB000B441433D5
:100D00001B78FB73FA7B224913465B001344DB001C
:100D10000B441533FA791A70FA791D4913465B00B2
:100D20001344DB000B441533BA791A70FA79184969
:100D300013465B001344DB000B441433FA7B1A7038
:100D4000BA79134913465B001344DB000B44143398
:100D5000FA791A7014E0FA790D4913465B001344CE
:100D6000DB000B441533BA791A70BA790849134677
:100D70005B001344DB000B441433FA791A7000BF94
:100D80001437BD465DF8047B704700BFA002002009
:100D90001002002080B584B000AF0346FB714E4BBB
:100DA0001B78DBB2062B18D14B4B1B78DAB24B4BBE
:100DB0001A70494AFB791370FA79494913465B0066
:100DC0001344DB000B44153306221A70454B4FF0D9
:100DD000FF321A600023FB8178E000F009F9034636
:100DE000FB81FA793E4913465B001344DB000B4458
:100DF00008331968FB89FA791944394813465B00AE
:100E00001344DB00034408331960FA79344913466C
:100E10005B001344DB000B4408331B68BB602E4BA4
:100E20001B78DBB219462E4A0B465B000B44DB00F5
:100E3000134408331B68BA689A4237D3264B1B7891
:100E40007B737A7B264913465B001344DB000B441B
:100E500015331B783B7313E07A7B214913465B0003
:100E60001344DB000B4415331B787B737A7B1C49DE
:100E700013465B001344DB000B4415331B783B73B4
:100E80003B7B062B0BD03A7B154913465B00134482
:100E9000DB000B4408331B68BA689A42DCD27A7BC9
:100EA000FB7911461846FFF7CFFE0FE00A4B1B787F
:100EB000DAB2FB7911461846FFF70CFF064B1B7898
:100EC000DAB2064B1A70044AFB791370FB89184694
:100ED0001037BD4680BD00BFA0020020A102002047
:100EE00010020020A402002080B485B000AF0346A9
:100EF0000A46FB711346BB71394B1B78DBB2FA799A
:100F00009A4211D1364B1B78DAB2364B1A70FA7905
:100F1000354913465B001344DB000B4415331B7843
:100F2000DAB22F4B1A703EE0FA792F4913465B0074
:100F30001344DB000B4414331B78FB73FA792A4902
:100F400013465B001344DB000B4415331B78BB7363
:100F5000F979FA7B24480B465B000B44DB00034421
:100F600015331B78D8B2204913465B001344DB00CD
:100F70000B44153302461A70BB7B062B13D0F9794C
:100F8000BA7B19480B465B000B44DB000344143367
:100F90001B78D8B2144913465B001344DB000B44A2
:100FA000143302461A70FA790F4913465B00134452
:100FB000DB000B440C3301221A70094B1B78DBB2A7
:100FC000062B07D1BB79002B04D1084B4FF0FF3221
:100FD0001A6000BF00BF1437BD465DF8047B704740
:100FE000A0020020A102002010020020A402002084
:100FF00080B582B000AF1A4B1B68B3F1FF3F26D01B
:10100000FFF702FE7860164B1B687A689A4205D893
:10101000134B1A687B68D31A7B600AE0114B1B885C
:101020001A467B68D31A3B600D4B1B683A68134421
:101030007B600D4B1B781A467B6802FB03F37B60D9
:101040000A4B1B781A467B68D3407B6001E0002383
:101050007B607B689BB218460837BD4680BD00BFE9
:10106000A40200209A07002099070020980700207A
:1010700080B582B000AF0346FB80FB88002B08D10F
:10108000FFF7C2FD0346244A1360032002F08DFFE0
:101090003EE0FB88012B03D8204B1B78012B02D0AC
:1010A000FB88013BFB8000BF1D4B1B681B68DB6896
:1010B00003F00403002BF7D0194B1B681B68DB6897
:1010C000DAB2174B1B681B6862F49062DA60154B4A
:1010D0004FF40022DA60032002F075FF124B5B69C7
:1010E0001B0C1B04FA88104913434B61FFF78CFD5E
:1010F0000346094A13600A4B1B681B689A68084B31
:101100001B681B6842F480629A60AFF3008000BFE6
:101110000837BD4680BD00BFA4020020980700200C
:1011200094070020000800580028004080B584B0D3
:1011300000AF474B9B6803F48063B3F5806F08D121
:1011400000BF444B1B681B68DB6803F00403002BE3
:10115000F7D1404B1B681B689A683E4B1B681B68A5
:1011600022F480629A603C4B1B78FB73FA7B3B490C
:1011700013465B001344DB000B4408331B68BB6061
:10118000FFF736FF0346FB80FB88BA689A4205D218
:101190000023BB81324B01221A704DE0FB88314A9B
:1011A000128892B213441A46BB68934206D92D4B5B
:1011B0001B88BB812A4B00221A703DE0BB689AB2A3
:1011C000FB88D31ABB81264B01221A7034E0FA7BCC
:1011D000224913465B001344DB000B4408331A68B2
:1011E000FB889A420AD2FA7B1C4913465B001344DF
:1011F000DB000B44083300221A6013E0FA7B174926
:1012000013465B001344DB000B4408331968FB886A
:10121000FA7BC91A114813465B001344DB000344F0
:1012200008331960FA7B0D4913465B001344DB0059
:101230000B4415331B78FB73FB7B062BC7D1BB8993
:101240001846FFF715FF00BF1037BD4680BD00BF31
:101250000028004094070020A00200201002002077
:10126000A80200209C07002080B58AB000AFEFF3F1
:1012700010837B617B697B6272B600BF5F4B1B682A
:101280001B68CA225A625D4B1B681B6853225A6254
:101290005A4B1B681B689A68584B1B681B6822F4E2
:1012A00080629A60564B1B7887F8233097F823208A
:1012B000544913465B001344DB000B440C331B788A
:1012C000DBB2022B72D197F823204E4913465B0004
:1012D0001344DB000B441B68FB6197F8232049494A
:1012E00013465B001344DB000B4410331B68BB61E7
:1012F000454B1B78DBB2002B50D097F82320414997
:1013000013465B001344DB000B440D331B78DBB248
:10131000012B26D197F8233001211846FFF7E4FD71
:101320007B6A3B613B6983F3108800BF97F82320F9
:10133000344913465B001344DB000B4404331A6842
:1013400097F823301146184600F068FA2B4B1B68BB
:101350001B68CA225A62294B1B681B6853225A62B7
:1013600014E07B6AFB60FB6883F3108800BF97F88A
:101370002330184600F0C6F9204B1B681B68CA22B0
:101380005A621E4B1B681B6853225A6297F823301F
:10139000FA691946B86900F0C9FA25E0FFF7C6FEF8
:1013A0007B6ABB60BB6883F310881DE000BF134BF2
:1013B0001B681B68DB6803F00403002BF7D00F4B9E
:1013C0001B681B68DB68DAB20C4B1B681B6862F495
:1013D0009062DA600D4B4FF40022DA607B6A7B602A
:1013E0007B6883F3108800BF044B1B681B68FF22D7
:1013F0005A6200BF2837BD4680BD00BF9407002059
:10140000A002002010020020A802002000080058BE
:1014100080B588B000AF03463960FB71644A3B6811
:101420001360634B1B681B68CA225A62604B1B68BF
:101430001B6853225A625F4B9B685E4A43F020034D
:1014400093605C4B9B68DBB203F00703DBB2C3F134
:101450000403DAB2584B1A70564B1B6903F4FE03AF
:101460004FF4FE023A613A6992FAA2F2FA60FA681F
:101470007A617A69002A01D1202203E07A69B2FAFE
:1014800082F2D2B2D340DBB20133DAB24B4B1A70E4
:10149000484B1B699BB2C3F30E039BB201339AB254
:1014A000474B1A80464B1B88013B444A127802FB8B
:1014B00003F3A3F5A073404A1278D340BB61BB6924
:1014C0004FF6FE72934204D93E4B4FF6FF721A80DC
:1014D00003E0BB699AB23B4B1A804FF40020FFF740
:1014E00081FB4FF40020FFF769FBFB79002B43D110
:1014F000354B01221A70354B4FF0FF321A60002332
:10150000FB770CE0FA7F324913465B001344DB00A3
:101510000B440C3300221A70FB7F0133FB77FB7FF7
:10152000052BEFD92B4B06221A70214B1B681B6829
:101530009A681F4B1B681B6822F480629A601C4BE0
:101540001B681B68DB68DAB2194B1B681B6862F406
:101550009062DA60204B4FF40022DA60032002F040
:1015600032FD134B1B681B689A68114B1B681B6884
:1015700042F480429A600AE00D4B1B681B68DB68EE
:1015800003F48063002B02D0032002F00EFD084B11
:101590001B681B68FF225A6200220321032002F00D
:1015A000C2FC032002F0D9FC00BF2037BD4680BD3D
:1015B0009407002000280040980700209907002089
:1015C0009A0700209C070020A8020020A402002007
:1015D00010020020A00200200008005880B48BB048
:1015E00000AFF860B9603B601346FB71002387F8D9
:1015F0002630EFF31083FB61FB693B6272B600BFDC
:1016000004E097F82630013387F8263097F8263023
:10161000052B0CD897F826202C4913465B00134461
:10162000DB000B440C331B78DBB2002BE9D197F8BD
:101630002630062B38D097F82620244913465B0025
:101640001344DB000B440C3301221A703B6ABB616C
:10165000BB6983F3108800BF97F826201B49134607
:101660005B001344DB000B441033FA681A6097F8F0
:101670002620164913465B001344DB000B440D3350
:10168000FA791A7097F82620104913465B00134424
:10169000DB000B443A681A60BB6897F826201A7082
:1016A000002387F8273008E03B6A7B617B6983F37E
:1016B000108800BF012387F8273097F82730184695
:1016C0002C37BD465DF8047B704700BF1002002038
:1016D00080B582B000AF0346FB71FB79184600F07D
:1016E00011F8FA79064913465B001344DB000B44FA
:1016F0000C3300221A7000BF0837BD4680BD00BF02
:101700001002002080B586B000AF0346FB71EFF3F6
:101710001083FB60FB687B6172B600BF032002F0A0
:101720002AFC384B1B681B68CA225A62354B1B685F
:101730001B6853225A62FA79334913465B001344FB
:10174000DB000B440C331B78DBB2022B48D1FB7956
:1017500000211846FFF7C8FB2C4B1B78FB74FB7C61
:10176000062B35D12A4B9B6803F48063B3F5806F59
:1017700008D100BF234B1B681B68DB6803F0040320
:10178000002BF7D11F4B1B681B689A681D4B1B6809
:101790001B6822F480629A6000BF1A4B1B681B68AA
:1017A000DB6803F00403002BF7D0164B1B681B68A3
:1017B000DB68DAB2134B1B681B6862F49062DA6074
:1017C000144B4FF40022DA60032002F0FCFB07E028
:1017D000114B1B78DBB2FA7C9A4201D0FFF7A6FCD2
:1017E000084B1B681B68FF225A62032002F0B5FBFE
:1017F0007B69BB60BB6883F3108800BF00BF1837EC
:10180000BD4680BD9407002010020020A0020020E9
:101810000028004000080058A102002080B586B0D2
:1018200000AF03463960FB71FA793C4913465B000F
:101830001344DB000B440C331B78DBB2022B03D1C7
:10184000FB791846FFF75EFFEFF31083FB60FB6840
:101850007B6172B600BF032002F08DFB304B1B682A
:101860001B68CA225A622E4B1B681B6853225A629D
:10187000FA792A4913465B001344DB000B440C330E
:1018800002221A70FA79254913465B001344DB00E3
:101890000B4408333A681A60FA79204913465B0012
:1018A0001344DB000B4404333A681A60FB79184692
:1018B000FFF770FA03467B821A4B1B787B741A4B36
:1018C0001B78DBB27A7C9A4202D0FFF72FFC13E040
:1018D000FA79124913465B001344DB000B440833CA
:1018E00019687B8AFA79C91A0C4813465B001344BD
:1018F000DB00034408331960094B1B681B68FF2297
:101900005A62032002F029FB7B69BB60BB6883F34A
:10191000108800BF00BF1837BD4680BD10020020F0
:1019200094070020A0020020A102002080B584B00E
:1019300000AFF8600B467A60FB727B68984700BF87
:101940001037BD4680BD000080B586B000AFB960DD
:101950007B600346FB731346BB810023FB750023AA
:10196000BB75FB7B022B0ED1174A7B681360174BAC
:10197000174A1A60BB891A46B968144806F018FE5F
:101980000346FB7500E000BFFB7D032B16D801A2C8
:1019900052F823F0A5190008AB190008B119000886
:1019A000B71900080023BB7509E00123BB7506E0E9
:1019B0000223BB7503E00323BB7500E000BFBB7DC2
:1019C00018461837BD4680BDA0070020E00700205C
:1019D0000080004080B582B000AF78607B681B68F3
:1019E0001A46094B9A4207D1084B1B68002B05D0B9
:1019F000064B1B68984701E000BF00E000BF00BF36
:101A00000837BD4680BD00BF00800040A007002011
:101A100080B483B000AF7860074BD3F880207B6838
:101A2000DB4305491340C1F8803000BF0C37BD4689
:101A30005DF8047B704700BF0008005880B483B095
:101A400000AF7860074BD3F890207B68DB430549F3
:101A50001340C1F8903000BF0C37BD465DF8047BE1
:101A6000704700BF0008005880B483B000AF7860B2
:101A70004FF0B0430A4AC3F89C204FF0B043D3F86C
:101A80009C3023F47C527B681B024FF0B04113431F
:101A9000C1F89C3000BF0C37BD465DF8047B704731
:101AA000FECAFECA80B400AF4FF0B043D3F89830FE
:101AB0004FF0B04243F00103C2F8983000BFBD467A
:101AC0005DF8047B704780B400AF4FF0B043D3F8AB
:101AD000983003F00203022B01D1012300E0002320
:101AE0001846BD465DF8047B704780B483B000AFF4
:101AF00078604FF0B043D3F8903023F018024FF0E5
:101B0000B0417B681343C1F8903000BF0C37BD462D
:101B10005DF8047B704780B400AF4FF0B043D3F85A
:101B200090304FF0B04243F48033C2F8903000BFA1
:101B3000BD465DF8047B704780B400AF4FF0B04302
:101B4000D3F890304FF0B04223F48033C2F8903095
:101B500000BFBD465DF8047B704780B400AF4FF016
:101B6000B043D3F8943003F08063B3F1806F01D1B8
:101B7000012300E000231846BD465DF8047B704752
:101B800080B400AF4FF0B043D3F8943003F08053EB
:101B9000B3F1805F01D1012300E000231846BD4668
:101BA0005DF8047B704780B485B000AF78604FF07B
:101BB000B0439A6C4FF0B0417B6813438B644FF095
:101BC000B0439A6C7B681340FB60FB6800BF14371E
:101BD000BD465DF8047B704780B485B000AF786087
:101BE0004FF0B043DA6C4FF0B0417B681343CB64E5
:101BF0004FF0B043DA6C7B681340FB60FB6800BFBA
:101C00001437BD465DF8047B704780B485B000AFE3
:101C100078604FF0B0431A6D4FF0B0417B681343CA
:101C20000B654FF0B0431A6D7B681340FB60FB6897
:101C300000BF1437BD465DF8047B704780B485B0A3
:101C400000AF78604FF0B0439A6D4FF0B0417B68C1
:101C500013438B654FF0B0439A6D7B681340FB6074
:101C6000FB6800BF1437BD465DF8047B704780B445
:101C700083B000AF786039607B685A683B681B04AA
:101C80001A437B685A6000BF0C37BD465DF8047B81
:101C9000704780B483B000AF786039607B685A6861
:101CA0003B681A437B685A6000BF0C37BD465DF83D
:101CB000047B704780B483B000AF786039607B6884
:101CC0005A693B681B041A437B685A6100BF0C3792
:101CD000BD465DF8047B704780B483B000AF786088
:101CE00039607B685A693B681A437B685A6100BF58
:101CF0000C37BD465DF8047B704780B483B000AFFD
:101D0000786039607B683A689A6000BF0C37BD46DE
:101D10005DF8047B704780B483B000AF78603960B1
:101D20007B683A689A6100BF0C37BD465DF8047B5A
:101D30007047000080B483B000AF786039607B6882
:101D40003A68203253F82230054A934201D00123E9
:101D500000E0002318460C37BD465DF8047B704751
:101D60000004008080B483B000AF78607B68FF22FD
:101D70005A6200BF0C37BD465DF8047B704780B4E3
:101D800083B000AF78607B68CA225A627B685322B6
:101D90005A6200BF0C37BD465DF8047B704780B4C3
:101DA00083B000AF786039607B689B6823F00702DE
:101DB0003B681A437B689A6000BF0C37BD465DF8EC
:101DC000047B704780B500AF104B4FF400421A619E
:101DD00001F0DCFE00F0BAF900F0A4F900F018F808
:101DE00000F096F800F05AF900F0F1F900F049F926
:101DF00000F02AF900F0ECF800F0F2F8FEF71AFD16
:101E00004FF0FF300FF0BCF9FAE700BF0040005878
:101E100080B5AEB000AF07F170034822002118462C
:101E20000FF024FC07F1540300221A605A609A60F4
:101E3000DA601A615A619A613B1D502200211846EE
:101E40000FF014FC04F0CAFB0020FFF74EFE2F4BEE
:101E50001B6823F4C0632D4A43F4007313602B4BBB
:101E60001B6803F4C0633B603B6807233B674FF488
:101E700080337B670123BB674FF48073FB6740238C
:101E8000C7F880300023C7F89C3007F1700318466C
:101E900004F048FF0346002B01D000F0A4F96F23A3
:101EA0007B650223BB650023FB6500233B660023A3
:101EB0007B660023BB660023FB6607F15403012108
:101EC000184605F0BDFA0346002B01D000F08BF94F
:101ED00043F603037B600023FB6100233B624FF466
:101EE00080737B644FF48043BB640223FB64102344
:101EF0003B653B1D184605F005FF0346002B01D04E
:101F000000F071F900BFB837BD4680BD000400582D
:101F100080B500AF064B074A1A60054802F098FDED
:101F20000346002B01D000F05EF900BF80BD00BF6A
:101F3000A4070020000C005880B500AF224B234AB4
:101F40001A60214B4FF4E1325A601F4B00229A6015
:101F50001D4B0022DA601C4B00221A611A4B0C2226
:101F60005A61194B00229A61174B00221A62164BD4
:101F700000225A62144B00229A62134B00225A66C6
:101F8000114806F0C4FA0346002B01D000F02BF9EB
:101F900000210D4807F08DFC0346002B01D000F016
:101FA00022F90021084807F0C2FC0346002B01D0AB
:101FB00000F019F9044807F043FC0346002B01D058
:101FC00000F011F900BF80BDE00700200080004054
:101FD00080B400AF00BFBD465DF8047B70470000D1
:101FE00080B500AF164B174A1A60154B00225A6095
:101FF000134B0F229A60124B47F6FF72DA60104BB8
:1020000000221A610E4B00229A610D4B0022DA6108
:102010000B4B00225A610A4806F035F90346002BA3
:1020200001D000F0E0F80748FFF7A9FE00210548BD
:10203000FFF7B5FE0348FFF795FE00BF80BD00BF68
:10204000C00900200028004080B500AF0420FFF741
:10205000AAFD0120FFF7A7FD0220FFF7A4FD002243
:102060000F210E2001F05FFF0E2001F076FF00220D
:102070000F213A2001F057FF3A2001F06EFF00BF18
:1020800080BD80B500AF0420FFF7A6FD0120FFF75B
:10209000A3FD0220FFF7A0FD00BF80BD80B59AB070
:1020A00000AF07F118035022002118460FF0DEFAA6
:1020B0003B4600221A605A609A60DA601A615A61DF
:1020C00005211748FFF736FEFFF7ECFC00BFFFF7CE
:1020D000FAFC0346002BFAD04FF48073BB61002357
:1020E000FB6407F11803184605F00CFE4FF08070F2
:1020F000FFF7A4FD00233B604FF000537B604BF6DD
:102100007F33FB6022233B610023BB6020237B6184
:102110003B46184605F06CFF00BF6837BD4680BDE2
:102120000014005880B582B000AF00200EF0FEFA17
:1021300078607B68002B05D07B689B791846FFF799
:1021400093FC00BF00BF0837BD4680BD80B500AF1F
:1021500000F026F800F002F800BF80BD80B500AFA7
:102160004FF48010FFF751FD3F210C48FFF7C5FDEC
:102170003F210A48FFF7CFFD3F210848FFF777FDD1
:102180003F210648FFF796FD3F210448FFF781FDF8
:102190003F210248FFF7A0FD00BF80BD000C0058A2
:1021A00080B500AFFFF7D9FC0346002B0DD0FFF739
:1021B000E7FC0346002B08D104F010FA04F00EFAF5
:1021C000FFF7A9FCFFF7B8FC00BF00BF80BD80B5DA
:1021D00000AF4FF0FF30FFF71BFC6FF05000FFF730
:1021E0002DFC00BF80BD80B400AF00BFBD465DF8D0
:1021F000047B704780B483B000AF78604FF0B04389
:10220000D3F8903023F440724FF0B0417B68134311
:10221000C1F8903000BF0C37BD465DF8047B7047B5
:1022200080B400AF4FF0B043D3F890304FF0B042DD
:1022300043F40043C2F8903000BFBD465DF8047B14
:10224000704780B485B000AF78604FF0B043DA6C6F
:102250004FF0B0417B681343CB644FF0B043DA6C6E
:102260007B681340FB60FB6800BF1437BD465DF818
:10227000047B704780B485B000AF78604FF0B04306
:102280001A6D4FF0B0417B6813430B654FF0B043BC
:102290001A6D7B681340FB60FB6800BF1437BD46B6
:1022A0005DF8047B704780B485B000AF78604FF074
:1022B000B0439A6D4FF0B0417B6813438B654FF08C
:1022C000B0439A6D7B681340FB60FB6800BF143716
:1022D000BD465DF8047B704780B485B000AF786080
:1022E0004FF0B043DA6D4FF0B0417B681343CB65DC
:1022F0004FF0B043DA6D7B681340FB60FB6800BFB2
:102300001437BD465DF8047B704780B485B000AFDC
:1023100078604FF0B0431A6E4FF0B0417B681343C2
:102320000B664FF0B0431A6E7B681340FB60FB688E
:1023300000BF1437BD465DF8047B704780B500AF21
:102340004FF40020FFF796FF002200212E2001F01D
:10235000EAFD2E2001F001FE00BF80BD80B582B0F5
:1023600000AF78607B681B680D4A934213D14FF42D
:102370008010FFF77FFF002200212C2001F0D3FD09
:102380002C2001F0EAFD002200212D2001F0CBFDE0
:102390002D2001F0E2FD00BF0837BD4680BD00BF23
:1023A000000C005880B58CB000AF786007F11C03BA
:1023B00000221A605A609A60DA601A617B681B68B2
:1023C000594A93425ED10120FFF786FF0120FFF7B3
:1023D00038FF0C23FB6102233B6200237B62032353
:1023E000BB620823FB6207F11C0319464FF09040C3
:1023F00002F06AF94D4B4E4A1A604C4B11225A605A
:102400004A4B10229A60494B0022DA60474B8022E7
:102410001A61464B00225A61444B00229A61434B99
:102420000022DA61414B00221A62404801F0DAFDD5
:102430000346002B01D0FFF7D6FE4FF08853FB6018
:1024400000233B6100233B7500237B750123BB61A7
:1024500007F10C031946354802F0F6F80346002B45
:1024600001D0FFF7C0FE7B68304A9A672F4A7B682D
:10247000936200220021252001F055FD252001F066
:102480006CFD4CE07B681B682A4A934247D14FF4AD
:102490008040FFF73AFF0220FFF7D3FEC023FB6125
:1024A00002233B6201237B620323BB620723FB629F
:1024B00007F11C031946204802F006F91F4B204A79
:1024C0001A601E4B0F225A601C4B10229A601B4B45
:1024D0000022DA60194B80221A61184B00225A61DF
:1024E000164B00229A61154B0022DA61134B002231
:1024F0001A62124801F076FD0346002B01D0FFF767
:1025000072FE7B680D4A9A670C4A7B6893620022D0
:102510000021242001F007FD242001F01EFD00BF52
:102520003037BD4680BD00BF00800040000900205C
:1025300044000240003801400004004860090020C7
:102540004404024080B582B000AF78607B681B68AD
:102550000B4A934210D104F041F804F03FF84FF4D5
:102560008070FFF747FEFFF75BFE4FF48060FFF7D8
:102570009AFE786805F075FF00BF0837BD4680BD3C
:102580000028004080B400AF00BFBD465DF8047B6A
:10259000704780B400AFFEE780B400AFFEE780B4C0
:1025A00000AFFEE780B400AFFEE780B400AF00BF2D
:1025B000BD465DF8047B704780B400AF00BFBD46E8
:1025C0005DF8047B704780B400AF00BFBD465DF886
:1025D000047B704780B500AF01F032FB00BF80BDC7
:1025E00080B500AF024802F0C0FB00BF80BD00BF55
:1025F000700A002080B500AF024802F0B6FB00BFB1
:1026000080BD00BF700A002080B500AF024801F015
:10261000CAFE00BF80BD00BF0009002080B500AF2A
:10262000024806F057F800BF80BD00BF70080020C8
:1026300080B500AF024806F04DF800BF80BD00BF76
:10264000E007002080B500AF00F0C8FF00BF80BDEC
:1026500080B500AF00F0FAFF00BF80BD80B500AFCD
:1026600002F0D2F900BF80BD80B500AF024801F092
:102670009AFE00BF80BD00BF6009002080B500AF9A
:102680004FF4806002F0A8F900BF80BD80B500AFB4
:10269000FEF7EAFD00BF80BD80B586B000AFF860F0
:1026A000B9607A6000237B610AE0AFF300800146E5
:1026B000BB685A1CBA60CAB21A707B6901337B616D
:1026C0007A697B689A42F0DB7B6818461837BD460A
:1026D00080BD80B483B000AF78604FF0FF33184600
:1026E0000C37BD465DF8047B704780B483B000AF03
:1026F000786039603B684FF400525A6000231846F6
:102700000C37BD465DF8047B704780B483B000AFE2
:102710007860012318460C37BD465DF8047B70478E
:1027200080B485B000AFF860B9607A6000231846C5
:102730001437BD465DF8047B7047000080B584B057
:1027400000AF7860114B1B68002B02D10F4B104A71
:102750001A600E4B1B68FB600C4B1A687B681344B5
:102760006A46934207D90EF039FF03460C221A60DD
:102770004FF0FF3306E0054B1A687B681344034AA9
:102780001360FB6818461037BD4680BDE409002081
:102790002022002080B400AF034B1B681846BD46C2
:1027A0005DF8047B704700BF8075FF1F80B400AFE9
:1027B000034B1B68DBB21846BD465DF8047B7047CF
:1027C0008475FF1F80B400AF034B1B681B0A1846BB
:1027D000BD465DF8047B70478475FF1FB0B58EB0B1
:1027E00000AF2F4B3C1D1D460FCD0FC40FCD0FC4A6
:1027F0000FCD0FC42B68237000F012FA01210220C4
:102800000EF08EFC274A002108200EF0A3FD3B1D90
:1028100018460CF051FC0346002B01D0FFF7E3FCF7
:1028200000F014FA0BF0A4F91F4B002283F880206B
:102830001D4B4FF6FF72DA821C4A002101200EF078
:1028400089FD1B4A002104200EF084FD06200CF0B7
:1028500001FA184B00221A70174B01221A7000F06F
:1028600057FD164B002216490020FEF7B7FE154B08
:10287000002215490020FEF7B1FE0B4B00225A76CC
:10288000094B00221A76114B80221A80104BA0228D
:102890001A80012000F09CFA00BF3837BD46B0BD59
:1028A00064290108D5F20008AC020020A52F000819
:1028B000ED300008F4090020F5090020053000087B
:1028C0002D030020153000082E03002030030020C7
:1028D0003203002080B58CB000AF7860922387F877
:1028E0002F307B680133BB62BB6A1B78FF2B00F083
:1028F000AC80FF2B00F34E81052B02D03E2B23D062
:1029000048E1BB6A02333B613B69B3F801309AB2DC
:10291000A44BDB8A9A4209D1A24B0022DA82A14B56
:10292000002283F88020A0480FF00EF8012000F06C
:102930004FFA9E4B01221A709A4BDA8A9B4B5A80AF
:102940009A4800F0D1FC28E1BB6A0233FB61FB69C5
:102950001B780C2B09D00C2B75DC012B43D0032BDF
:1029600071D193480EF0F0FF6EE092480EF0ECFF4C
:10297000FB690133BB61BB691B78002B03D18E4817
:102980000EF0E2FF02E08D480EF0DEFF854BDB8AA1
:1029900007F10E0207F10F0118460CF0D3F90346B8
:1029A00087F82F3097F82F30002B18D184480EF07D
:1029B000CBFFFB7B022B0AD1BB7B022B07D1FB7B1E
:1029C0001946BB7B1A467F480EF038FF3CE0FB7B84
:1029D0001946BB7B1A467B480EF030FF34E07A483C
:1029E0000EF0B2FF30E0FB6901337B616D4B93F871
:1029F00081301846FEF786FE7B69B3F801309BB242
:102A0000194672480EF01AFF664B93F88030042B7B
:102A100004D1644B062283F8802003E0614B052239
:102A200083F880207B69B3F801309AB25D4BDA827B
:102A30005E4B00221A705B4BDA8A5C4B5A805B4813
:102A400000F052FC00E000BFA7E0BB6A02337B62EB
:102A50007B6A1B889BB2B3F5006F00F08780B3F5EB
:102A6000006F00F39980042B00F08880042BC0F2E3
:102A7000938040F20A42934200F38E80B3F5806F58
:102A8000C0F28A80A3F580630A2B00F2858001A240
:102A900052F823F0C12A0008432B0008C92A000875
:102AA000D72A0008DF2A0008E72A0008992B000827
:102AB000752B0008FF2A00080F2B0008072B0008C1
:102AC00043480EF041FF64E042480EF03DFF4248AB
:102AD0000EF03AFF5DE041480EF036FF59E0404805
:102AE0000EF032FF55E03F480EF02EFF2D4BDB8AF3
:102AF00018460BF05CFC3C480EF026FF49E03B48D2
:102B00000EF022FF45E03A480EF01EFF41E07B6ADE
:102B10000233D3F80230194636480EF08FFE7B6A36
:102B20000233D3F80230194633480EF087FE1D4BAE
:102B3000DB8A012118460BF08EFC30480EF004FFB2
:102B400027E07B6A02333B623B6A9B7819462C483C
:102B50000EF074FE3B6A9B78002B03D129480EF0DF
:102B6000F3FE16E028480EF0EFFE12E0274B01229C
:102B70001A700EE026480EF0E7FE0AE0012000F091
:102B80000BFF084B93F882300A211846FEF746FEE9
:102B900000BF01E000BF00E000BF0123184630374E
:102BA000BD4680BDAC02002098290108F009002034
:102BB000C0290108EC290108082A01082C2A01086B
:102BC000542A0108682A0108842A01089C2A01085D
:102BD000E02A0108102B0108382B0108582B0108A6
:102BE000842B0108B82B0108DC2B0108F82B010805
:102BF000242C0108542C01086C2C0108802C01089D
:102C0000BC2C01081C2D0108302D0108F5090020FD
:102C1000442D010880B500AF00F0A2FB00BF80BDCD
:102C200080B582B000AF064B3B60064B7B603B46F5
:102C3000194605480CF032FB00BF0837BD4680BD81
:102C400028000320953100085D310008F0B58FB0F1
:102C500006AF00233B800CF051F800F05FF9F861FB
:102C6000FA69062100200BF009FFFB695A79524BE3
:102C70001A72FB691A79504B5A72FB69DA784E4B1B
:102C80009A72FB699A784C4BDA72FB695A784A4B14
:102C90001A73FB691A78484B5A734EF66E53BB6031
:102CA000FFF778FD03467B603B1D1A4606212E2068
:102CB0000BF0E4FE414A102118200BF0DFFE404AE1
:102CC000102108200BF0DAFE182101200BF05BFF29
:102CD0000BF028FC0023FB76FB7E43F00103FB7620
:102CE000FB7E002B1ED0374B7B6107F11202F87E72
:102CF00007F10E03019307F1100300931346072217
:102D000000210BF011FA7C8A3D8A7869FDF738FAC8
:102D10000346DAB27B690093134600222946204617
:102D20000BF003FE788AF9893B46009302230022C8
:102D30000BF0FBFD0222022100200CF081F8224B57
:102D400000221A70204B1B7818460BF0D5F81E4B4A
:102D500001225A701C4B08221A711B4B10225A7107
:102D6000194B0122DA70184B184A9A60164B01224F
:102D70009A70154B9C78144B5D78134B1B79124A53
:102D800052791149C978104880680026049603904A
:102D900002910192009300230022294620460BF065
:102DA000FFF8094B9B78002B01D00BF0DCFA00BF39
:102DB0002437BD46F0BD00BF10000020AC32010832
:102DC000BC3201086C2D0108AC02002007B20100E2
:102DD00080B58CB008AF0346FB719223FB72FB7980
:102DE000012B06D13F4B1B88FB813F4B1B88BB81CE
:102DF00005E04FF4C863FB814FF47A63BB813B4B22
:102E000093F881301846FEF77DFC384B93F88030FC
:102E1000194637480EF012FDFB79022B19D1334BBE
:102E200093F88030012B04D0304B93F88030022B84
:102E30000FD10AF043FF0346FB72FB7A002B03D14C
:102E40002C480EF081FD04E0FB7A19462A480EF06A
:102E5000F5FC264AFB7982F88030244B1B7EBA8928
:102E6000F9890020069000200590244804900393DF
:102E7000234B029308230193002300930023002097
:102E80000AF040FF0346FB721E490E200BF0F9F9D1
:102E90000346FB72FB7A002B11D1FB79012B0AD17F
:102EA00019480EF051FD114B93F88130174918461F
:102EB000FEF7B4FC12E016480EF046FD0EE0FB797A
:102EC000012B05D1FB7A194612480EF0B7FC05E03C
:102ED000FB7A194610480EF0B1FC00BF1037BD4612
:102EE00080BD00BF3003002032030020AC02002070
:102EF000742D0108902D0108B42D0108C502002091
:102F0000CC32010810000020DC2D010846E0010051
:102F1000042E0108302E0108602E010880B586B00D
:102F200000AFFFF737FC38613B69B3F1FF3F23D0B7
:102F3000FFF748FCB860FFF739FC78603B69DAB20C
:102F4000164B1A703B691B0ADAB2144B5A707B6835
:102F5000DAB2124B9A70BB68DAB2104BDA70BB6807
:102F60001B0ADAB20D4B1A71BB681B0CDAB20B4BA1
:102F70005A710A4B7B610BE000200DF0D7FBF86023
:102F8000FB68002B02D0FB687B6101E0044B7B6196
:102F90007B6918461837BD4680BD00BFE809002090
:102FA000A432010880B582B000AF012000F00EFD10
:102FB000104B93F88030052B17D00023FB710AF0DB
:102FC0007DFE0346FB710B4B002283F88020FB79CA
:102FD000002B06D108480EF031FC08480EF02EFCFC
:102FE00003E007480EF02AFC00BF00BF0837BD46CB
:102FF00080BD00BFAC020020942E01089C2E010869
:10300000B82E010880B500AF002101200EF0C4F9F0
:1030100000BF80BD80B500AF012000F0D7FC00BF2D
:1030200080BD000090B589B002AF0346FB80294BFC
:103030001B78012B49D1274B00221A70264B1B7895
:103040000133002B03F00103B8BF5B42DAB2224B1D
:103050001A70214B1B78214A9B00134493ED007A90
:10306000F7EE046AC7EE267AFDEEE77A17EE903A9D
:10307000FB82194B1B78194A9B00134493ED007A8D
:10308000F7EE046AC7EE267AFDEEE77A17EE903A7D
:10309000BB8200237B824FF4FA733B82104BD88AA9
:1030A0007C8ABA8AF98A3B8A009323460BF045FF53
:1030B0000346FB73FB7B002B03D10A480EF0BEFBDB
:1030C00003E009480EF0BAFB00BF00BF1C37BD4645
:1030D00090BD00BFF5090020F40900200800002081
:1030E000AC020020DC2E01080C2F010880B500AFD7
:1030F000084B93F88030012B0AD0064B93F88030B0
:10310000002B05D0034BDB8A1846FFF78BFF00BF6F
:1031100000BF80BDAC02002080B582B000AF7860F7
:10312000002108200EF038F900BF0837BD4680BDE9
:1031300080B582B000AF786001200EF099F900BF31
:103140000837BD4680BD80B582B000AF78600120F1
:103150000EF0AEF900BF0837BD4680BD80B584B023
:1031600000AF78607B68FB60FB685B6808331846DB
:103170000AF050FD0346FB72FB7A002B03D0FB687C
:1031800001221A7002E0FB6800221A7000BF10379B
:10319000BD4680BD80B584B000AF0346FB71FB79AE
:1031A000002B02D0012B06D00BE00F23FB60F86848
:1031B0000EF01EF905E00F23FB60F8680EF038F9F9
:1031C00000BF00BF1037BD4680BD000080B582B093
:1031D00000AF78607B681B78032B1AD0032B6BDC65
:1031E000002B02D0012B0AD066E0374B01221A7067
:1031F00036480EF0A9FB36480EF020FB5FE0324B5C
:1032000000221A7033480EF09FFB31480EF016FB77
:1032100055E07B685B681B78002B23D17B685B687B
:1032200001331B78012B0BD1002000F0B5FB2A489D
:103230000EF08AFB26480EF001FB234B01229A7008
:103240007B685B6801331B78002B0BD1002000F0FA
:10325000BDFB22480EF078FB1D480EF0EFFA1A4B2A
:1032600000229A707B685B681B78012B26D17B68F3
:103270005B6801331B78012B0BD1002000F08CFB25
:1032800017480EF061FB12480EF0D8FA0E4B0122DF
:103290009A707B685B6801331B78002B0ED100208D
:1032A00000F094FB0F480EF04FFB09480EF0C6FAF1
:1032B000054B00229A7001E000BF00E000BF00BF94
:1032C0000837BD4680BD00BF34030020342F0108FD
:1032D000682F01086C2F0108A02F0108C82F0108D2
:1032E000F02F01081830010880B582B000AF786077
:1032F0007B681B78002B05D0012B00D003E000F089
:1033000019F800E000BF00BF0837BD4680BD0000CF
:1033100080B500AF054A002102200EF01BF8044BD7
:1033200000221A7000F006F800BF80BD713300085B
:103330003403002080B500AF002000F047FB074BAE
:1033400001225A70054B00229A70044B0122DA7058
:10335000024B00221A7100BF80BD00BF3403002061
:1033600080B500AF002102200EF016F800BF80BD2E
:1033700080B500AF0F4B1B79002B03D10D4B012201
:103380001A7102E00B4B00221A710A4B1B78002BBA
:103390000BD009480EF052FA08480EF04FFA0849CF
:1033A0004FF642600AF04AFB03E006480EF046FA88
:1033B00000BF80BD3403002040300108682F0108A1
:1033C000370300208030010880B400AF054BDB6874
:1033D000044A43F40043D36000BFBD465DF8047B5C
:1033E000704700BF0004005880B483B000AF78601D
:1033F000064BD3F8D42005497B681343C1F8D43079
:1034000000BF0C37BD465DF8047B704700080058CC
:1034100080B483B000AF7860054B1A6A04497B68BA
:1034200013430B6200BF0C37BD465DF8047B704749
:103430000008005880B485B000AF78604FF0B0430A
:103440001A6D4FF0B0417B6813430B654FF0B043EA
:103450001A6D7B681340FB60FB6800BF1437BD46E4
:103460005DF8047B704780B485B000AF78604FF0A2
:10347000B043D3F850214FF0B0417B681343C1F8FB
:1034800050314FF0B043D3F850217B681340FB60BC
:10349000FB6800BF1437BD465DF8047B704780B4FD
:1034A00083B000AF78607B681B6843F480327B6830
:1034B0001A6000BF0C37BD465DF8047B704780B4CE
:1034C00083B000AF78607B681B6843F001027B68C3
:1034D0001A6000BF0C37BD465DF8047B704780B4AE
:1034E00083B000AF786039607B685A683B681B0422
:1034F000DB431A407B685A6000BF0C37BD465DF85D
:10350000047B704780B483B000AF786039607B681B
:103510005A683B681B041A437B685A6000BF0C372B
:10352000BD465DF8047B704780B483B000AF78601F
:1035300039607B685A683B68DB431A407B685A6095
:1035400000BF0C37BD465DF8047B704780B483B084
:1035500000AF786039607B683A689A6000BF0C37CA
:10356000BD465DF8047B704780B483B000AF7860DF
:1035700039603B681A047B689A6000BF0C37BD460F
:103580005DF8047B704780B483B000AF7860396029
:103590007B68DA683B6813403A689A4201D101239C
:1035A00000E0002318460C37BD465DF8047B7047E9
:1035B00080B483B000AF786039607B68DA693B68BB
:1035C00013403A689A4201D1012300E000231846D3
:1035D0000C37BD465DF8047B7047000080B500AF36
:1035E00002211948FFF7E4FF0346002B09D0164BD0
:1035F0005B68DB4303F00203002B02D000F0DAF833
:103600001FE001211048FFF7D3FF0346002B08D02D
:103610000D4B5B6803F00103002B02D100F08EF824
:103620000FE008210848FFF7C3FF0346002B09D02D
:10363000054B5B68DB4303F00803002B02D000F06E
:1036400005F900BF00BF80BD000C005880B500AF79
:1036500002211A48FFF797FF0346002B09D1174BA9
:103660005B68DB4303F40033002B02D000F096F8D4
:1036700020E008211148FFF786FF0346002B09D1FF
:103680000E4B5B68DB4303F40023002B02D000F0F9
:10369000BFF80FE020210948FFF775FF0346002B14
:1036A00009D1064B5B68DB4303F40013002B02D007
:1036B00000F050F800BF00BF80BD00BF000C0058F4
:1036C00080B500AF4FF48010FFF7CDFE4FF40070CF
:1036D000FFF78AFE4FF40070FFF79AFE40BF20BF4D
:1036E000FFF772FE00BF80BD80B500AF4FF48010C1
:1036F000FFF7A0FE0648FFF7E2FE0548FFF7CFFE02
:103700002C2000F02AFC2D2000F027FC00BF80BDFB
:10371000000C005880B500AF01210248FFF704FFFC
:1037200000BF80BD000C005880B500AF01210248E9
:10373000FFF71AFF00BF80BD000C005880B500AF36
:103740000CF006F901210248FFF700FF00BF80BD21
:10375000000C005880B500AF20210348FFF7D2FECF
:103760000CF026F900BF80BD000C005880B500AFFA
:1037700002210248FFF7D8FE00BF80BD000C0058B0
:1037800080B500AF02210448FFF7EEFE0221024897
:10379000FFF7A5FE00BF80BD000C005880B500AF4C
:1037A00002210348FFF7AEFE0CF052F900BF80BDC6
:1037B000000C005880B500AF0CF060F902210248FF
:1037C000FFF7C4FE00BF80BD000C005880B582B07A
:1037D00000AF786008210C48FFF7D5FE0346002BA8
:1037E00007D00A4A7B68136008210748FFF777FE75
:1037F00006E07B68984708210348FFF7B5FE00BF45
:103800000837BD4680BD00BF000C0058F8090020F5
:1038100080B500AF08210648FFF774FE054B1B6812
:10382000984708210248FFF79FFE00BF80BD00BFF8
:10383000000C0058F809002080B500AF08210248AC
:10384000FFF772FE00BF80BD000C005880B500AFCE
:103850000CF0BCF908210248FFF778FE00BF80BDDC
:10386000000C0058D458C4500433C4188C42F9D307
:103870007047036004308842FBD370470C4885468C
:103880000C480D490D4A0023FFF7EFFF0C480D4986
:103890000023FFF7F0FF0C480C490023FFF7EBFF74
:1038A00000F0FEF80DF0A0FEFEF78CFAFEE7000037
:1038B00000000320080000201002002074340108DA
:1038C0007803002020220020E0010320570A032073
:1038D000FEE780B485B000AF78604FF0B043DA6C9B
:1038E0004FF0B0417B681343CB644FF0B043DA6CC8
:1038F0007B681340FB60FB6800BF1437BD465DF872
:10390000047B704780B588B000AF0346FB7107F1B8
:103910000C0300221A605A609A60DA601A61FB791F
:10392000002B03D10120FFF7D4FF0CE0FB79012B22
:1039300003D10220FFF7CDFF05E0FB79022B02D176
:103940000220FFF7C6FFFB79114A32F81330FB6003
:1039500001233B6100237B610223BB61FB790D4A9C
:1039600052F8233007F10C021146184600F0ACFE65
:10397000FB79084A52F82300FB79054A32F81330E4
:103980000022194601F010F800BF2037BD4680BD67
:10399000D43201082000002080B582B000AF034679
:1039A000FB71FB79074A52F82300FB79064A32F88B
:1039B00013300122194600F0F7FF00BF0837BD465B
:1039C00080BD00BF20000020D432010880B582B045
:1039D00000AF0346FB71FB79074A52F82300FB79DD
:1039E000064A32F813300022194600F0DDFF00BF0E
:1039F0000837BD4680BD00BF20000020D43201083A
:103A000080B588B000AF03460A46FB711346BB7110
:103A100007F10C0300221A605A609A60DA601A619A
:103A20000120FFF756FFBB79002B12D14FF48063C2
:103A3000FB6000233B6101237B610223BB61FB79B7
:103A4000164A52F8233007F10C021146184600F0CE
:103A50003BFEBB79012B1DD14FF48063FB6001233A
:103A60007B614FF404133B61FB790C4A52F823301D
:103A700007F10C021146184600F026FE28235BB21F
:103A800000220F21184600F04EFA28235BB2184698
:103A900000F063FA00BF2037BD4680BD2C00002037
:103AA00080B400AF264B00229A60254BD3F88830B3
:103AB000234A43F47003C2F888304FF0B0431B68C8
:103AC0004FF0B04243F0010313604FF0B0434FF4A6
:103AD000E0229A604FF0B0431A684FF0B041194BA2
:103AE00013400B604FF0B043D3F894304FF0B04226
:103AF00023F00503C2F894304FF0B043D3F8983068
:103B00004FF0B04223F00103C2F898304FF0B043B9
:103B10000D4ADA604FF0B0430B4A1A614FF0B043E0
:103B20001B684FF0B04223F4802313604FF0B04382
:103B300000229A6100BFBD465DF8047B704700BF5C
:103B400000ED00E0FBFEF6FA0010042280B400AFA6
:103B5000054B5B68044A43F00103536000BFBD4658
:103B60005DF8047B704700BF002004E080B400AF24
:103B7000054B5B68044A43F00203536000BFBD4637
:103B80005DF8047B704700BF002004E080B582B080
:103B900000AF0023FB710C4B1B680B4A43F480738E
:103BA0001360032000F0B4F9002000F00FF8034682
:103BB000002B02D00123FB7101E0FEF7BFFBFB7974
:103BC00018460837BD4680BD0040005880B584B017
:103BD00000AF78600023FB73174B1B78002B24D0B9
:103BE00003F0DAFD0246144B1B7819464FF47A7342
:103BF000B3FBF1F3B2FBF3F3184600F0CAF9034646
:103C0000002B0FD17B680F2B09D8002279684FF069
:103C1000FF3000F088F9094A7B68136007E0012350
:103C2000FB7304E00123FB7301E00123FB73FB7BC7
:103C300018461037BD4680BD3800002034000020F3
:103C400080B400AF064B1B781A46064B1B68134422
:103C5000044A136000BFBD465DF8047B704700BF97
:103C600038000020FC09002080B400AF034B1B6823
:103C70001846BD465DF8047B704700BFFC09002074
:103C800080B400AF034B1B681846BD465DF8047B4B
:103C9000704700BF3400002080B500AFFFF756FF2B
:103CA00000BF80BD80B500AFFFF760FF00BF80BDE3
:103CB00080B485B000AF78607B6803F00703FB60D9
:103CC0000C4BDB68BB60BA684FF6FF031340BB6068
:103CD000FB681A02BB68134343F0BF6343F400332D
:103CE000BB60044ABB68D36000BF1437BD465DF8B3
:103CF000047B704700ED00E080B400AF044BDB684C
:103D00001B0A03F007031846BD465DF8047B7047A5
:103D100000ED00E080B483B000AF0346FB7197F97B
:103D20000730002B0BDBFB7903F01F02074997F9E3
:103D300007305B09012000FA02F241F8232000BF9E
:103D40000C37BD465DF8047B704700BF00E100E022
:103D500080B483B000AF0346FB7197F90730002BA6
:103D600012DBFB7903F01F020A4997F907305B0960
:103D7000012000FA02F2203341F82320BFF34F8FD5
:103D800000BFBFF36F8F00BF00BF0C37BD465DF8AB
:103D9000047B704700E100E080B483B000AF0346CD
:103DA000FB7197F90730002B0CDBFB7903F01F0246
:103DB000074997F907305B09012000FA02F2403306
:103DC00041F8232000BF0C37BD465DF8047B7047E7
:103DD00000E100E080B483B000AF0346FB7197F9C7
:103DE0000730002B0CDBFB7903F01F02074997F922
:103DF00007305B09012000FA02F2603341F823200A
:103E000000BF0C37BD465DF8047B704700E100E061
:103E100080B483B000AF03463960FB7197F9073077
:103E2000002B0ADB3B68DAB20C4997F90730120124
:103E3000D2B20B4483F800230AE03B68DAB20849A7
:103E4000FB7903F00F03043B1201D2B20B441A7644
:103E500000BF0C37BD465DF8047B704700E100E011
:103E600000ED00E080B489B000AFF860B9607A601E
:103E7000FB6803F00703FB61FB69C3F10703042B35
:103E800028BF0423BB61FB690433062B02D9FB69FD
:103E9000033B00E000237B614FF0FF32BB6902FA75
:103EA00003F3DA43BB681A407B699A404FF0FF3155
:103EB0007B6901FA03F3D9437B680B40134318462F
:103EC0002437BD465DF8047B7047000080B582B0A2
:103ED00000AF78607B68013BB3F1807F01D30123A1
:103EE0000FE00A4A7B68013B53600F214FF0FF301F
:103EF000FFF78EFF054B00229A60044B07221A60E1
:103F0000002318460837BD4680BD00BF10E000E022
:103F100080B582B000AF78607868FFF7C9FE00BF57
:103F20000837BD4680BD80B586B000AF0346B96096
:103F30007A60FB73FFF7E0FE78617A68B9687869A8
:103F4000FFF790FF024697F90F3011461846FFF72A
:103F50005FFF00BF1837BD4680BD80B582B000AF9F
:103F60000346FB7197F907301846FFF7D3FE00BFF1
:103F70000837BD4680BD80B582B000AF0346FB71F7
:103F800097F907301846FFF7E3FE00BF0837BD4634
:103F900080BD80B582B000AF78607868FFF796FF8B
:103FA000034618460837BD4680BD80B582B000AFD5
:103FB0000346FB7197F907301846FFF7EDFE00BF87
:103FC0000837BD4680BD80B582B000AF0346FB71A7
:103FD00097F907301846FFF7FDFE00BF0837BD46CA
:103FE00080BD000080B584B000AF78607B68002B96
:103FF00001D101238EE07B681B681A46474B9A4229
:104000000FD87B681B681A46454B1344454AA2FBF0
:1040100003231B099A007B685A647B68424A1A642E
:104020000EE07B681B681A46404B13443D4AA2FBD6
:1040300003231B099A007B685A647B683C4A1A6414
:104040007B68022283F825207B681B681B68FB6065
:10405000FB6823F4FF4323F07003FB607B689A68DE
:104060007B68DB681A437B681B691A437B685B6962
:104070001A437B689B691A437B68DB691A437B6838
:104080001B6A1343FA681343FB607B681B68FA687A
:104090001A60786800F074FA7B689B68B3F5804F0B
:1040A00002D17B6800225A607B685A687B689B6CEF
:1040B00002F03F021A607B68DB6C7A68126D5A600E
:1040C0007B685B68002B10D07B685B68042B0CD886
:1040D000786800F093FA7B685B6D00221A607B6859
:1040E0009B6D7A68D26D5A6008E07B6800225A6541
:1040F0007B6800229A657B680022DA657B68002273
:10410000DA637B68012283F825207B68002283F82C
:104110002420002318461037BD4680BD0704024006
:10412000F8FFFDBFCDCCCCCC00000240F8FBFDBFBA
:104130000004024080B586B000AFF860B9607A60D4
:104140003B600023FB75FB6893F82430012B01D101
:10415000022366E0FB68012283F82420FB6893F8C1
:104160002530DBB2012B55D1FB68022283F82520D4
:10417000FB680022DA63FB681B681A68FB681B682F
:1041800022F001021A603B687A68B968F86800F0AA
:10419000B9F9FB681B6B002B08D0FB681B681A6819
:1041A000FB681B6842F00E021A600FE0FB681B6898
:1041B0001A68FB681B6822F004021A60FB681B681F
:1041C0001A68FB681B6842F00A021A60FB689B6C65
:1041D0001B6803F48033002B07D0FB689B6C1A68C4
:1041E000FB689B6C42F480721A60FB685B6D002B6D
:1041F00007D0FB685B6D1A68FB685B6D42F48072E8
:104200001A60FB681B681A68FB681B6842F00102B1
:104210001A6005E0FB68002283F824200223FB7566
:10422000FB7D18461837BD4680BD80B483B000AF13
:1042300078607B68002B01D101234FE07B6893F805
:104240002530DBB2022B08D07B680422DA637B685E
:10425000002283F82420012340E07B681B681A6851
:104260007B681B6822F00E021A607B689B6C1A68E0
:104270007B689B6C22F480721A607B681B681A68EA
:104280007B681B6822F001021A607B685B6C03F09C
:104290001C027B681B6C012101FA02F25A607B68E8
:1042A000DB6C7A68126D5A607B685B6D002B0CD0FA
:1042B0007B685B6D1A687B685B6D22F480721A60A4
:1042C0007B689B6D7A68D26D5A607B68012283F8A7
:1042D00025207B68002283F82420002318460C3711
:1042E000BD465DF8047B704780B584B000AF786050
:1042F0000023FB737B6893F82530DBB2022B05D0DB
:104300007B680422DA630123FB7347E07B681B6848
:104310001A687B681B6822F00E021A607B681B68B3
:104320001A687B681B6822F001021A607B689B6C2C
:104330001A687B689B6C22F480721A607B685B6CE5
:1043400003F01C027B681B6C012101FA02F25A6027
:104350007B68DB6C7A68126D5A607B685B6D002B42
:104360000CD07B685B6D1A687B685B6D22F4807291
:104370001A607B689B6D7A68D26D5A607B680122F7
:1043800083F825207B68002283F824207B689B6BC0
:10439000002B03D07B689B6B78689847FB7B1846A3
:1043A0001037BD4680BD80B584B000AF78607B68B3
:1043B0001B6C1B68FB607B681B681B68BB607B68B1
:1043C0005B6C03F01C0304229A40FB681340002B33
:1043D00026D0BB6803F00403002B21D07B681B6848
:1043E0001B6803F02003002B07D17B681B681A6849
:1043F0007B681B6822F004021A607B685B6C03F028
:104400001C027B681B6C042101FA02F25A607B6873
:104410001B6B002B71D07B681B6B786898476CE036
:104420007B685B6C03F01C0302229A40FB6813401C
:10443000002B2ED0BB6803F00203002B29D07B6831
:104440001B681B6803F02003002B0BD17B681B68E3
:104450001A687B681B6822F00A021A607B680122D6
:1044600083F825207B685B6C03F01C027B681B6C67
:10447000022101FA02F25A607B68002283F82420AC
:104480007B68DB6A002B38D07B68DB6A78689847EA
:1044900033E07B685B6C03F01C0308229A40FB68E6
:1044A0001340002B2AD0BB6803F00803002B25D053
:1044B0007B681B681A687B681B6822F00E021A6012
:1044C0007B685B6C03F01C027B681B6C012101FAAA
:1044D00002F25A607B680122DA637B68012283F86A
:1044E00025207B68002283F824207B685B6B002BEF
:1044F00004D07B685B6B7868984700BF00BF1037BB
:10450000BD4680BD80B485B000AFF860B9607A6008
:104510003B60FB68DB6CFA68126D5A60FB685B6D90
:10452000002B04D0FB689B6DFA68D26D5A60FB6863
:104530005B6C03F01C02FB681B6C012101FA02F2A8
:104540005A60FB681B683A685A60FB689B68102BCE
:1045500008D1FB681B687A689A60FB681B68BA68B8
:10456000DA6007E0FB681B68BA689A60FB681B6842
:104570007A68DA6000BF1437BD465DF8047B704787
:1045800080B485B000AF78607B681B681A46174B13
:104590009A420AD87B685B6C9B089B0003F18043BE
:1045A00003F502337A68936407E07B685B6C9B08D1
:1045B0009A000F4B13447A6893647B681B68DBB2E4
:1045C000083B0C4AA2FB03231B09FB607B680A4AD9
:1045D000DA64FB6803F01F0301229A407B681A65C6
:1045E00000BF1437BD465DF8047B704707040240E6
:1045F0001C080240CDCCCCCC8008024080B485B0F1
:1046000000AF78607B685B6803F03F03FB60FA688B
:104610000B4B13449B001A467B685A657B68094A1A
:104620009A65FB68013B03F0030301229A407B6813
:10463000DA6500BF1437BD465DF8047B704700BFE4
:104640003F8200104009024080B483B000AF786020
:1046500039607B6893F82530DBB2012B2BD17B6866
:1046600093F82430012B01D1022325E07B6801223D
:1046700083F824207B689B6C1A68124B13403A68BD
:1046800011683A68D268013AD20411433A68526814
:1046900011433A68127A120411433A68527A52026C
:1046A00011437A68926C0B4313607B68002283F895
:1046B0002420002300E0012318460C37BD465DF896
:1046C000047B7047FFFD00E080B487B000AF7860E6
:1046D000396000237B614CE13B681A6801217B69EA
:1046E00001FA03F31340FB60FB68002B00F03E81EE
:1046F0003B685B6803F00303012B05D03B685B68F4
:1047000003F00303022B30D17B689B683B617B691C
:104710005B00032202FA03F3DB433A6913403B6177
:104720003B68DA687B695B0002FA03F33A6913437A
:104730003B617B683A699A607B685B683B610122F8
:104740007B6902FA03F3DB433A6913403B613B6840
:104750005B681B0903F001027B6902FA03F33A6903
:1047600013433B617B683A695A603B685B6803F0BE
:104770000303032B17D07B68DB683B617B695B001D
:10478000032202FA03F3DB433A6913403B613B68BF
:104790009A687B695B0002FA03F33A6913433B6151
:1047A0007B683A69DA603B685B6803F00303022BBD
:1047B00023D17B69DA087B68083253F822303B61E9
:1047C0007B6903F007039B000F2202FA03F3DB432C
:1047D0003A6913403B613B681A697B6903F0070340
:1047E0009B0002FA03F33A6913433B617B69DA08E1
:1047F0007B680832396943F822107B681B683B618B
:104800007B695B00032202FA03F3DB433A6913403E
:104810003B613B685B6803F003027B695B0002FA63
:1048200003F33A6913433B617B683A691A603B685A
:104830005B6803F44033002B00F09880544A7B6996
:104840009B08023352F823303B617B6903F003037A
:104850009B000F2202FA03F3DB433A6913403B61EA
:104860007B68B3F1904F19D07B684A4A934213D0CA
:104870007B68494A93420DD07B68484A934207D0EF
:104880007B68474A934201D1042308E0072306E0EE
:10489000032304E0022302E0012300E000237A69FD
:1048A00002F00302920093403A6913433B61384996
:1048B0007B699B0802333A6941F82320394B1B6816
:1048C0003B61FB68DB433A6913403B613B685B68D3
:1048D00003F48013002B03D03A69FB6813433B6158
:1048E000304A3B6913602F4B5B683B61FB68DB43DD
:1048F0003A6913403B613B685B6803F40013002B8B
:1049000003D03A69FB6813433B61264A3B69536015
:10491000244BD3F880303B61FB68DB433A6913409A
:104920003B613B685B6803F48033002B03D03A693A
:10493000FB6813433B611B4A3B69C2F88030194B4B
:10494000D3F884303B61FB68DB433A6913403B6139
:104950003B685B6803F40033002B03D03A69FB68C3
:1049600013433B610F4A3B69C2F884307B690133D2
:104970007B613B681A687B6922FA03F3002B7FF4A2
:10498000ABAE00BF00BF1C37BD465DF8047B70476F
:10499000000001400004004800080048000C0048E6
:1049A000001000480008005880B483B000AF786061
:1049B0000B467B8013467B707B78002B03D07A8874
:1049C0007B689A6102E07A887B689A6200BF0C3744
:1049D000BD465DF8047B704780B582B000AF0346EA
:1049E000FB80084BDA68FB881340002B06D0054A91
:1049F000FB88D360FB881846FCF7CEF800BF083769
:104A0000BD4680BD0008005880B582B000AF0A4B9B
:104A1000DB687B60084B1A687B68DB430649134000
:104A20000B60054A7B685360786800F007F800BFA8
:104A30000837BD4680BD00BF0015005880B483B064
:104A400000AF786000BF0C37BD465DF8047B70474F
:104A500080B584B000AF78600023FB737B68002BC7
:104A60001ED0134BBB607B6893F83830DBB2002B51
:104A700002D17868FDF772FCB86800F05BF8BB689B
:104A80001B6843F00112BB681A60786800F02CF8CC
:104A90007B6800225A637B68012283F8382001E09A
:104AA0000123FB73FB7B18461037BD4680BD00BF5A
:104AB000000C005880B485B000AFF860B9601346B0
:104AC000FB7100BF1437BD465DF8047B704780B4AE
:104AD00085B000AFF860B9601346FB7100BF1437B2
:104AE000BD465DF8047B704780B485B000AF786048
:104AF0000023FB600FE07A68FB689B0013440B4ABD
:104B00005A607A68FB6806339B001344084A5A606F
:104B1000FB680133FB60FB68052BECD900BF00BFCD
:104B20001437BD465DF8047B704700BFB54A0008E6
:104B3000CF4A000880B483B000AF78607B68002261
:104B40001A607B684FF03F125A607B683F229A6080
:104B500000BF0C37BD465DF8047B7047F0B58BB0E5
:104B600006AF78607B68002B01D10123D7E07B681A
:104B700093F8A932DBB2002B06D17B68002283F8C0
:104B8000A82278680BF0B5F87B68032283F8A92285
:104B90007B681B68184604F06EFF0023FB734CE033
:104BA000FB7B79685A1C13469B001344DB000B44C3
:104BB000013301221A70FB7B79685A1C13469B0053
:104BC0001344DB000B44FA7B1A70FA7BFB7B98B230
:104BD000796813469B001344DB000B4436330246CE
:104BE0001A80FB7B79685A1C13469B001344DB0038
:104BF0000B44033300221A70FA7B796813469B003A
:104C00001344DB000B44383300221A60FA7B7968C6
:104C100013469B001344DB000B443C3300221A6014
:104C2000FA7B796813469B001344DB000B44403346
:104C300000221A60FB7B0133FB73FA7B7B685B68A5
:104C40009A42ADD30023FB7344E0FA7B79681346A4
:104C50009B001344DB000B4403F2691300221A701B
:104C6000FA7B796813469B001344DB000B4403F581
:104C7000B473FA7B1A70FA7B796813469B0013446D
:104C8000DB000B4403F26B1300221A70FA7B796885
:104C900013469B001344DB000B4403F5BC73002256
:104CA0001A60FA7B796813469B001344DB000B44BF
:104CB00003F5BE7300221A60FA7B796813469B00E5
:104CC0001344DB000B4403F5C07300221A60FB7B26
:104CD0000133FB73FA7B7B685B689A42B5D37B68D0
:104CE0001B683B607E686D4606F110040FCC0FC553
:104CF00023682B60331D0ECB386804F0D7FE7B6829
:104D0000002283F824207B68012283F8A9227B6893
:104D1000DB69012B02D1786801F029FC00231846D9
:104D20001437BD46F0BD80B582B000AF78607B68B7
:104D300093F8A832012B01D1022312E07B680122F3
:104D400083F8A8227B681B68184604F07DFE7B6808
:104D50001B68184607F096F87B68002283F8A822A3
:104D6000002318460837BD4680BD80B584B000AF2B
:104D700078607B681B68184607F09BF8F860FB6852
:104D800003F40043002B03D0786800F026FB10E109
:104D9000FB6803F48063002B13D07B681B68B3F8B7
:104DA00044309AB27B681B6822F4806292B2A3F806
:104DB000442078680BF006F80021786800F0FCF8D1
:104DC000F7E0FB6803F48043002B0CD07B681B6882
:104DD000B3F844309AB27B681B6822F4804292B2E6
:104DE000A3F84420E5E0FB6803F40053002B0CD04B
:104DF0007B681B68B3F844309AB27B681B6822F466
:104E0000005292B2A3F84420D3E0FB6803F480532D
:104E1000002B34D07B681B68B3F840309AB27B68B3
:104E20001B6822F0040292B2A3F840207B681B6842
:104E3000B3F840309AB27B681B6822F0080292B245
:104E4000A3F840207B6893F8E032012B07D17B6800
:104E5000002283F8E0220021786801F0B2FB786834
:104E60000AF0D3FF7B681B68B3F844309AB27B68C2
:104E70001B6822F4805292B2A3F8442099E0FB68A8
:104E800003F40063002B27D07B681B68B3F8403025
:104E90009AB27B681B6842F0080292B2A3F84020E5
:104EA0007B681B68B3F844309AB27B681B6822F4B5
:104EB000006292B2A3F844207B681B68B3F84030CC
:104EC0009AB27B681B6842F0040292B2A3F84020B9
:104ED00078680AF08CFF6CE0FB6803F08003002B1D
:104EE00040D07B681B68B3F844309AB27B681B687B
:104EF00022F0800292B2A3F844207B6893F8E0325B
:104F0000002B2BD17B681B68B3F840309AB27B68CA
:104F10001B6842F0040292B2A3F840207B681B6831
:104F2000B3F840309AB27B681B6842F0080292B234
:104F3000A3F840207B68012283F8E0227B681B688D
:104F4000B3F854309BB29B0803F03C027B68C3F873
:104F5000E4220121786801F034FB2AE078680AF045
:104F600046FF26E0FB6803F40073002B0FD07B683C
:104F70001B68B3F844309AB27B681B6822F4007255
:104F800092B2A3F8442078680AF00EFF11E0FB68A3
:104F900003F48073002B0CD07B681B68B3F844309B
:104FA0009AB27B681B6822F4807292B2A3F8442004
:104FB00000BF1037BD4680BD80B582B000AF7860BD
:104FC0000B46FB707B6893F8A832012B01D10223BA
:104FD00013E07B68012283F8A8227B68FA7883F8C3
:104FE00024207B681B68FA781146184606F036FFC5
:104FF0007B68002283F8A822002318460837BD46A4
:1050000080BD80B584B000AF7860084611461A466E
:105010000346FB700B463B801346BB700023FB72BC
:1050200097F90330002B0EDAFB7803F007035A1CC4
:1050300013469B001344DB007A681344FB60FB6853
:1050400001225A700EE0FB7803F0070213469B0022
:105050001344DB0003F5B4737A681344FB60FB6808
:1050600000225A70FB7803F00703DAB2FB681A706B
:105070003A88FB681A61FB68BA78DA70FB685B787B
:10508000002B04D0FB681B789AB2FB68DA81BB78EE
:10509000022B02D1FB6800221A717B6893F8A832B8
:1050A000012B01D102230EE07B68012283F8A822A4
:1050B0007B681B68F968184604F01AFD7B680022BB
:1050C00083F8A822FB7A18461037BD4680BD80B50C
:1050D00084B000AF78600B46FB7097F90330002B6B
:1050E0000EDAFB7803F007035A1C13469B001344A7
:1050F000DB007A681344FB60FB6801225A700EE003
:10510000FB7803F0070213469B001344DB0003F512
:10511000B4737A681344FB60FB6800225A70FB7812
:1051200003F00703DAB2FB681A707B6893F8A832C1
:10513000012B01D102230EE07B68012283F8A82213
:105140007B681B68F968184605F066F87B680022E2
:1051500083F8A822002318461037BD4680BD80B5CD
:1051600086B000AFF8607A603B600B46FB72FB7A5A
:1051700003F0070213469B001344DB0003F5B473EE
:10518000FA6813447B617B697A685A617B693A6883
:105190009A617B690022DA617B6900225A70FB7A8E
:1051A00003F00703DAB27B691A70FB7A03F0070396
:1051B000002B06D1FB681B687969184605F019FABF
:1051C00005E0FB681B687969184605F012FA0023B0
:1051D00018461837BD4680BD80B483B000AF7860F4
:1051E0000B46FB70FB7803F00702796813469B00BF
:1051F0001344DB000B4403F5C2731B6818460C37DD
:10520000BD465DF8047B704780B586B000AFF8609E
:105210007A603B600B46FB72FB7A03F007035A1C73
:1052200013469B001344DB00FA6813447B617B69DF
:105230007A685A617B693A689A617B69012283F8CE
:1052400024207B693A681A627B690022DA617B69F3
:1052500001225A70FB7A03F00703DAB27B691A70F5
:10526000FB7A03F00703002B06D1FB681B68796902
:10527000184605F0BEF905E0FB681B687969184619
:1052800005F0B7F9002318461837BD4680BD80B534
:1052900084B000AF78600B46FB70FB7803F0070228
:1052A0007B685B689A4201D901233EE097F903309D
:1052B000002B0EDAFB7803F007035A1C13469B0001
:1052C0001344DB007A681344FB60FB6801225A70C8
:1052D0000CE0FA7813469B001344DB0003F5B4732B
:1052E0007A681344FB60FB6800225A70FB68012255
:1052F0009A70FB7803F00703DAB2FB681A707B68D8
:1053000093F8A832012B01D102230EE07B68012221
:1053100083F8A8227B681B68F968184606F09FFC92
:105320007B68002283F8A822002318461037BD4668
:1053300080BD80B584B000AF78600B46FB70FB7811
:1053400003F00F027B685B689A4201D9012340E0B9
:1053500097F90330002B0EDAFB7803F007035A1C91
:1053600013469B001344DB007A681344FB60FB6820
:1053700001225A700EE0FB7803F0070213469B00EF
:105380001344DB0003F5B4737A681344FB60FB68D5
:1053900000225A70FB6800229A70FB7803F0070322
:1053A000DAB2FB681A707B6893F8A832012B01D13E
:1053B00002230EE07B68012283F8A8227B681B6829
:1053C000F968184606F09CFC7B68002283F8A82246
:1053D000002318461037BD4680BD80B596B000AF9B
:1053E00078609CE37B681B68B3F84430A7F85630BC
:1053F000B7F85630DBB203F00F0387F8553097F853
:105400005530002B40F05E81B7F8563003F01003A2
:10541000002B50D17B681B681B889BB223F4E143AF
:1054200023F07003FB817B681A68FB896FEA4343B2
:105430006FEA53439BB213807B682833FB647B681D
:105440001B68B3F850309BB21A46FB6C1B78DB002C
:1054500013447A681268134403F202431B88C3F3AF
:105460000902FB6CDA61FB6C5A69FB6CDB691A445C
:10547000FB6C5A61002178680AF07CFC7B6893F829
:105480002430DBB2002B00F04A83FB6C9B69002BBD
:1054900040F045837B6893F82430DBB263F07F03F0
:1054A000DAB27B681B6892B2A3F84C207B680022BA
:1054B00083F8242033E37B6803F5B473FB647B68D3
:1054C0001B681B88A7F85230B7F8523003F400630A
:1054D000002B32D07B681B68B3F850309BB21A4661
:1054E000FB6C1B78DB0013447A681268134403F2E8
:1054F00006431B88C3F30902FB6CDA617B681868FA
:105500007B6803F52C71FB6CDA88FB6CDB699BB262
:1055100006F021FD7B681B681B889AB240F68F73EA
:1055200013403B827B681B683A8A42F0800292B249
:105530001A8078680AF0F1FBF1E2B7F95230002BDB
:1055400080F2ED827B681B681B889AB240F68F73ED
:105550001340FB837B681B68FA8B42F0800292B297
:105560001A807B681B68B3F850309BB21A46FB6CFC
:105570001B78DB0013447A681268134403F2064375
:105580001B88C3F30902FB6CDA61FB6CDB69002B3F
:1055900019D0FB6C5B69002B15D07B681868FB6C1D
:1055A0005969FB6CDA88FB6CDB699BB206F0D3FCB3
:1055B000FB6C5A69FB6CDB691A44FB6C5A61002175
:1055C00078680AF0BCFB7B681B681B889BB203F4FD
:1055D0000063002B40F0A3827B681B68BB617B6883
:1055E0001B68B3F850309BB21A46BB691344BB61C9
:1055F000BB6903F206437B61FB6C1B693E2B18D928
:10560000FB6C1B695B097B64FB6C1B6903F01F036C
:10561000002B02D17B6C013B7B647B6C9BB29B02B9
:105620009BB26FEA43436FEA53439AB27B691A8095
:1056300029E0FB6C1B69002B12D17B691B889BB294
:1056400023F4F8439AB27B691A807B691B889BB26A
:105650006FEA43436FEA53439AB27B691A8012E0C0
:10566000FB6C1B695B087B64FB6C1B6903F001032B
:10567000002B02D07B6C01337B647B6C9BB29B0262
:105680009AB27B691A807B681B681B889BB223F4E3
:10569000804323F070037B827B8A83F480537B8278
:1056A0007B8A83F400537B827B681A687B8A43F091
:1056B0007F4343F47F0343F4004343F080039BB2F2
:1056C00013802CE27B681B681A4697F855309B00C4
:1056D00013441B88A7F85230B7F95230002B80F2E0
:1056E000F6807B681B681A4697F855309B00134478
:1056F0001B889AB240F68F731340A7F850307B682E
:105700001B681A4697F855309B001344B7F8502091
:1057100042F0800292B21A8097F8552013469B00FF
:105720001344DB0003F5B4737A681344FB64FB6C29
:105730001B7B002B23D17B681B68B3F850309BB2D6
:105740001A46FB6C1B78DB0013447A68126813441A
:1057500003F206431B88C3F30903A7F84830B7F8E0
:105760004830002B00F08E807B681868FB6C59690C
:10577000FB6CDA88B7F8483006F0EDFB82E0FB6C92
:10578000DB78022B0AD1B7F852301A46F96C7868E8
:1057900000F0D3F90346A7F8483073E07B681B6834
:1057A0001A46FB6C1B789B0013441B889BB223F4A6
:1057B000E04323F07003A7F84A307B681B681A4661
:1057C000FB6C1B789B001A44B7F84A3043F07F43C8
:1057D00043F47F0343F4004343F0C0039BB21380C0
:1057E0007B681B681A46FB6C1B789B0013441B8864
:1057F0009BB203F48043002B22D07B681B68B3F874
:1058000050309BB21A46FB6C1B78DB0013447A685D
:105810001268134403F202431B88C3F30903A7F879
:105820004830B7F84830002B2CD07B681868FB6CE8
:105830005969FB6C1A89B7F8483006F08CFB21E0F7
:105840007B681B68B3F850309BB21A46FB6C1B7820
:10585000DB0013447A681268134403F206431B8882
:10586000C3F30903A7F84830B7F84830002B09D034
:105870007B681868FB6C5969FB6C5A89B7F848302B
:1058800006F069FBFB6CDA69B7F848301A44FB6C28
:10589000DA61FB6C5A69B7F848301A44FB6C5A61FC
:1058A000FB6C9B69002B05D0B7F84820FB6C1B698B
:1058B0009A4206D2FB6C1B78194678680AF03FFAC8
:1058C00005E07B681B68F96C184604F092FEB7F897
:1058D000523003F08003002B00F0218197F85530FF
:1058E0005A1C13469B001344DB007A681344FB6484
:1058F0007B681B681A4697F855309B0013441B8839
:105900009BB223F4E14323F07003A7F842307B6895
:105910001B681A4697F855309B001A44B7F8423076
:105920006FEA43436FEA53439BB21380FB6CDB780F
:10593000022B00F0A280FB6C00229A61FB6C1B7BA7
:10594000002B00F09380B7F8523003F04003002B97
:1059500046D0FB6C5B78002B26D17B681B687B6292
:105960007B681B68B3F850309BB21A467B6A1344BD
:105970007B62FB6C1B78DA007B6A134403F2024300
:105980003B623B6A1B889BB223F4F8439AB23B6AA2
:105990001A803B6A1B889BB26FEA43436FEA53430A
:1059A0009AB23B6A1A8061E0FB6C5B78012B5DD197
:1059B0007B681B68FB627B681B68B3F850309BB246
:1059C0001A46FB6A1344FB62FB6C1B78DA00FB6A25
:1059D000134403F20243BB62BB6A00221A8045E013
:1059E0007B681B68FB63FB6C5B78002B26D17B68B4
:1059F0001B687B637B681B68B3F850309BB21A4608
:105A00007B6B13447B63FB6C1B78DA007B6B13446A
:105A100003F206433B633B6B1B889BB223F4F843C2
:105A20009AB23B6B1A803B6B1B889BB26FEA434375
:105A30006FEA53439AB23B6B1A8017E0FB6C5B78BA
:105A4000012B13D17B681B68B3F850309BB21A4608
:105A5000FB6B1344FB63FB6C1B78DA00FB6B13449A
:105A600003F20643BB63BB6B00221A80FB6C1B78FE
:105A7000194678680AF07EF951E0B7F8523003F41D
:105A80008073002B44D17B681B68B3F850309BB205
:105A90001A46FB6C1B78DB0013447A6812681344C7
:105AA00003F202431B88C3F30903A7F84030FB6CE1
:105AB0009A69B7F840309A4207D9FB6C9A69B7F8EF
:105AC0004030D21AFB6C9A6102E0FB6C00229A61B2
:105AD000FB6C9B69002B06D1FB6C1B781946786820
