:020000040800F2
:10000000000003203D3400082D3100083331000882
:10001000393100083F310008453100080000000078
:100020000000000000000000000000004B3100084C
:1000300059310008000000006731000875310008E0
:10004000913400089134000891340008913400087C
:10005000913400089134000891340008913400086C
:10006000913400089134000891340008913400085C
:10007000913400089134000891340008913400084C
:10008000913400089134000891340008913400083C
:10009000913400089134000891340008913400082C
:1000A00091340008813100089D3100089134000826
:1000B000B9310008913400089134000891340008E7
:1000C00091340008913400089134000891340008FC
:1000D000CD310008E1310008913400089134000866
:1000E00091340008913400089134000891340008DC
:1000F00091340008913400089134000891340008CC
:1001000091340008913400089134000891340008BB
:1001100091340008913400089134000891340008AB
:10012000913400089134000891340008913400089B
:0C0130009134000891340008913400085C
:1001400010B5054C237833B9044B13B10448AFF311
:1001500000800123237010BD100200200000000069
:10016000D8C5000808B5034B1BB103490348AFF3DA
:10017000008008BD0000000014020020D8C500085F
:1001800010F8012B11F8013B012A28BF9A42F7D041
:10019000D01A7047034613F8012B002AFBD1181A16
:1001A000013870470000000000000000000000005F
:1001B00001F0FF01102A2BDB10F0070F08D010F818
:1001C000013B013A8B422DD010F0070F42B3F6D11C
:1001D000F0B441EA012141EA014122F007047FF035
:1001E00000070023F0E80256083C85EA010586EA8C
:1001F000010685FA47F5A3FA87F586FA47F6A5FAC8
:1002000087F68EB9EED1F0BC01F0FF0102F00702D3
:1002100032B110F8013B013A83EA010313B1F8D17E
:100220000020704701387047002D06BF354603385F
:10023000073815F0010F07D1013015F4807F02BF98
:10024000013015F4C03F0130F0BC0138704700BFE9
:1002500081F0004102E000BF83F0004330B54FEA77
:1002600041044FEA430594EA050F08BF90EA020FE4
:100270001FBF54EA000C55EA020C7FEA645C7FEA77
:10028000655C00F0E2804FEA5454D4EB5555B8BF9A
:100290006D420CDD2C4480EA020281EA030382EA0B
:1002A000000083EA010180EA020281EA0303362D9D
:1002B00088BF30BD11F0004F4FEA01314FF4801C70
:1002C0004CEA113102D0404261EB410113F0004F82
:1002D0004FEA03334CEA133302D0524263EB430339
:1002E00094EA050F00F0A780A4F10104D5F1200ED7
:1002F0000DDB02FA0EFC22FA05F2801841F1000132
:1003000003FA0EF2801843FA05F359410EE0A5F105
:1003100020050EF1200E012A03FA0EFC28BF4CF036
:10032000020C43FA05F3C01851EBE37101F00045EC
:1003300007D54FF0000EDCF1000C7EEB00006EEBF9
:100340000101B1F5801F1BD3B1F5001F0CD3490883
:100350005FEA30004FEA3C0C04F101044FEA4452DA
:1003600012F5800F80F09A80BCF1004F08BF5FEA61
:10037000500C50F1000041EB045141EA050130BD41
:100380005FEA4C0C404141EB0101013C28BFB1F553
:10039000801FE9D291F0000F04BF01460020B1FA9E
:1003A00081F308BF2033A3F10B03B3F120020CDA71
:1003B0000C3208DD02F1140CC2F10C0201FA0CF04F
:1003C00021FA02F10CE002F11402D8BFC2F1200CB4
:1003D00001FA02F120FA0CFCDCBF41EA0C0190406A
:1003E000E41AA2BF01EB0451294330BD6FEA0404B3
:1003F0001F3C1CDA0C340EDC04F11404C4F120029E
:1004000020FA04F001FA02F340EA030021FA04F3AF
:1004100045EA030130BDC4F10C04C4F1200220FA06
:1004200002F001FA04F340EA0300294630BD21FA44
:1004300004F0294630BD94F0000F83F4801306BF0A
:1004400081F480110134013D4EE77FEA645C18BFFE
:100450007FEA655C29D094EA050F08BF90EA020F95
:1004600005D054EA000C04BF1946104630BD91EA8D
:10047000030F1EBF0021002030BD5FEA545C05D190
:100480004000494128BF41F0004130BD14F58004CF
:100490003CBF01F5801130BD01F0004545F0FE4143
:1004A00041F470014FF0000030BD7FEA645C1ABF78
:1004B000194610467FEA655C1CBF0B46024650EAAF
:1004C000013406BF52EA033591EA030F41F40021DB
:1004D00030BD00BF90F0000F04BF0021704730B561
:1004E0004FF4806404F132044FF000054FF0000136
:1004F00050E700BF90F0000F04BF0021704730B5F7
:100500004FF4806404F1320410F0004548BF4042CB
:100510004FF000013EE700BF42004FEAE2014FEA20
:1005200031014FEA02701FBF12F07F4393F07F4FFB
:1005300081F06051704732F07F4208BF704793F0FE
:100540007F4F04BF41F40021704730B54FF4607411
:1005500001F0004521F000411CE700BF50EA010214
:1005600008BF704730B54FF000050AE050EA0102BD
:1005700008BF704730B511F0004502D5404261EB2D
:1005800041014FF4806404F132045FEA915C3FF46E
:10059000D8AE4FF003025FEADC0C18BF03325FEA0B
:1005A000DC0C18BF033202EBDC02C2F1200300FABC
:1005B00003FC20FA02F001FA03FE40EA0E0021FAE1
:1005C00002F11444BDE600BF70B54FF0FF0C4CF4CF
:1005D000E06C1CEA11541DBF1CEA135594EA0C0F81
:1005E00095EA0C0F00F0DEF82C4481EA030621EABC
:1005F0004C5123EA4C5350EA013518BF52EA0335F7
:1006000041F4801143F4801338D0A0FB02CE4FF0A8
:100610000005E1FB02E506F00042E0FB03E54FF0D8
:100620000006E1FB03569CF0000F18BF4EF0010ED0
:10063000A4F1FF04B6F5007F64F5407404D25FEACC
:100640004E0E6D4146EB060642EAC62141EA55517F
:100650004FEAC52040EA5E504FEACE2EB4F1FD0CC1
:1006600088BFBCF5E06F1ED8BEF1004F08BF5FEA3F
:10067000500E50F1000041EB045170BD06F00046F1
:1006800046EA010140EA020081EA0301B4EB5C049E
:10069000C2BFD4EB0C0541EA045170BD41F4801196
:1006A0004FF0000E013C00F3AB8014F1360FDEBFBB
:1006B000002001F0004170BDC4F10004203C35DA97
:1006C0000C341BDC04F11404C4F1200500FA05F31A
:1006D00020FA04F001FA05F240EA020001F00042BB
:1006E00021F0004110EBD37021FA04F642EB060131
:1006F0005EEA430E08BF20EAD37070BDC4F10C045B
:10070000C4F1200500FA04F320FA05F001FA04F21E
:1007100040EA020001F0004110EBD37041F100010A
:100720005EEA430E08BF20EAD37070BDC4F1200515
:1007300000FA05F24EEA020E20FA04F301FA05F27D
:1007400043EA020321FA04F001F0004121FA04F225
:1007500020EA020000EBD3705EEA430E08BF20EAF5
:10076000D37070BD94F0000F0FD101F0004640002F
:1007700041EB010111F4801F08BF013CF7D041EAB1
:10078000060195F0000F18BF704703F000465200B5
:1007900043EB030313F4801F08BF013DF7D043EA86
:1007A0000603704794EA0C0F0CEA135518BF95EA3C
:1007B0000C0F0CD050EA410618BF52EA4306D1D1C3
:1007C00081EA030101F000414FF0000070BD50EAE2
:1007D000410606BF1046194652EA430619D094EA6C
:1007E0000C0F02D150EA013613D195EA0C0F05D156
:1007F00052EA03361CBF104619460AD181EA0301AA
:1008000001F0004141F0FE4141F470014FF0000061
:1008100070BD41F0FE4141F4780170BD70B54FF0FC
:10082000FF0C4CF4E06C1CEA11541DBF1CEA13557C
:1008300094EA0C0F95EA0C0F00F0A7F8A4EB05045E
:1008400081EA030E52EA03354FEA013100F0888055
:100850004FEA03334FF0805545EA131343EA12631E
:100860004FEA022245EA111545EA10654FEA0026D3
:100870000EF000419D4208BF964244F1FD0404F58C
:10088000407402D25B084FEA3202B61A65EB0305E8
:100890005B084FEA32024FF480104FF4002CB6EBA5
:1008A000020E75EB030E22BFB61A754640EA0C0025
:1008B0005B084FEA3202B6EB020E75EB030E22BF65
:1008C000B61A754640EA5C005B084FEA3202B6EBA6
:1008D000020E75EB030E22BFB61A754640EA9C0065
:1008E0005B084FEA3202B6EB020E75EB030E22BF35
:1008F000B61A754640EADC0055EA060E18D04FEAF3
:10090000051545EA16754FEA06164FEAC30343EA92
:1009100052734FEAC2025FEA1C1CC0D111F4801F5F
:100920000BD141EA00014FF000004FF0004CB6E758
:1009300011F4801F04BF01430020B4F1FD0C88BFF7
:10094000BCF5E06F3FF6AFAEB5EB030C04BFB6EB02
:10095000020C5FEA500C50F1000041EB045170BDF5
:100960000EF0004E4EEA113114EB5C04C2BFD4EB22
:100970000C0541EA045170BD41F480114FF0000EA6
:10098000013C90E645EA060E8DE60CEA135594EA22
:100990000C0F08BF95EA0C0F3FF43BAF94EA0C0F25
:1009A0000AD150EA01347FF434AF95EA0C0F7FF49A
:1009B00025AF104619462CE795EA0C0F06D152EAEE
:1009C00003353FF4FDAE1046194622E750EA4106D2
:1009D00018BF52EA43067FF4C5AE50EA41047FF4E3
:1009E0000DAF52EA43057FF4EBAE12E74FF0FF3C48
:1009F00006E000BF4FF0010C02E000BF4FF0010C19
:100A00004DF804CD4FEA410C7FEA6C5C4FEA430C91
:100A100018BF7FEA6C5C1BD001B050EA410C0CBFE0
:100A200052EA430C91EA030F02BF90EA020F002042
:100A3000704710F1000F91EA030F58BF994208BFA9
:100A400090422CBFD8176FEAE37040F00100704766
:100A50004FEA410C7FEA6C5C02D150EA013C07D1BD
:100A60004FEA430C7FEA6C5CD6D152EA033CD3D008
:100A70005DF8040B704700BF8446104662468C4602
:100A80001946634600E000BF01B5FFF7B7FF002835
:100A900048BF10F1000F01BD4DF808EDFFF7F4FF5E
:100AA0000CBF012000205DF808FB00BF4DF808EDE9
:100AB000FFF7EAFF34BF012000205DF808FB00BF0C
:100AC0004DF808EDFFF7E0FF94BF012000205DF82E
:100AD00008FB00BF4DF808EDFFF7CEFF94BF0120E3
:100AE00000205DF808FB00BF4DF808EDFFF7C4FFDC
:100AF00034BF012000205DF808FB00BF4FEA410C25
:100B00007FEA6C5C02D150EA013C0AD14FEA430C07
:100B10007FEA6C5C02D152EA033C02D14FF0000044
:100B200070474FF0010070474FEA410212F5001282
:100B300015D211D56FF47873B3EB625212D94FEA24
:100B4000C12343F0004343EA505311F0004F23FA0E
:100B500002F018BF404270474FF00000704750EA63
:100B6000013005D111F0004008BF6FF00040704720
:100B70004FF00000704700BF53B94AB9002908BFC1
:100B800000281CBF4FF0FF314FF0FF3000F074B968
:100B9000ADF1080C6DE904CE00F006F8DDF804E0D4
:100BA000DDE9022304B070472DE9F047089D0446B3
:100BB0008E46002B4DD18A42944669D9B2FA82F210
:100BC00052B101FA02F3C2F1200120FA01F10CFA4C
:100BD00002FC41EA030E94404FEA1C48210CBEFB84
:100BE000F8F61FFA8CF708FB16E341EA034306FB0D
:100BF00007F199420AD91CEB030306F1FF3080F09C
:100C00001F81994240F21C81023E63445B1AA4B2E8
:100C1000B3FBF8F008FB103344EA034400FB07F78A
:100C2000A7420AD91CEB040400F1FF3380F00A81CB
:100C3000A74240F207816444023840EA0640E41BC0
:100C400000261DB1D4400023C5E900433146BDE86C
:100C5000F0878B4209D9002D00F0EF800026C5E90E
:100C6000000130463146BDE8F087B3FA83F6002E26
:100C70004AD18B4202D3824200F2F980841A61EB9E
:100C8000030301209E46002DE0D0C5E9004EDDE7BC
:100C900002B9FFDEB2FA82F2002A40F09280A1EBA4
:100CA0000C014FEA1C471FFA8CFE0126200CB1FBF9
:100CB000F7F307FB131140EA01410EFB03F08842F2
:100CC00008D91CEB010103F1FF3802D2884200F27F
:100CD000CB804346091AA4B2B1FBF7F007FB101111
:100CE00044EA01440EFB00FEA64508D91CEB0404AF
:100CF00000F1FF3102D2A64500F2BB800846A4EB0A
:100D00000E0440EA03409CE7C6F12007B34022FAF4
:100D100007FC4CEA030C20FA07F401FA06F31C4323
:100D2000F9404FEA1C4900FA06F3B1FBF9F8200C30
:100D30001FFA8CFE09FB181140EA014108FB0EF076
:100D4000884202FA06F20BD91CEB010108F1FF3AC6
:100D500080F08880884240F28580A8F102086144D2
:100D6000091AA4B2B1FBF9F009FB101144EA0141E0
:100D700000FB0EFE8E4508D91CEB010100F1FF348B
:100D80006CD28E456AD90238614440EA0840A0FB23
:100D90000294A1EB0E01A142C846A64656D353D0F9
:100DA0005DB1B3EB080261EB0E0101FA07F722FA1D
:100DB00006F3F1401F43C5E9007100263146BDE846
:100DC000F087C2F12003D8400CFA02FC21FA03F3A9
:100DD000914001434FEA1C471FFA8CFEB3FBF7F02A
:100DE00007FB10360B0C43EA064300FB0EF69E424F
:100DF00004FA02F408D91CEB030300F1FF382FD2E8
:100E00009E422DD9023863449B1B89B2B3FBF7F68F
:100E100007FB163341EA034106FB0EF38B4208D968
:100E20001CEB010106F1FF3816D28B4214D9023EA9
:100E30006144C91A46EA004638E72E46284605E7C7
:100E40000646E3E61846F8E64B45A9D2B9EB020898
:100E500064EB0C0E0138A3E74646EAE7204694E728
:100E60004046D1E7D0467BE7023B614432E730465B
:100E700009E76444023842E7704700BF80B584B098
:100E800000AFF860B9603B601346FB80FB684FF031
:100E90009042DA60FB6810221A82FB683A681A6096
:100EA000FB68D868FB681B8A0122194602F0DAFE4B
:100EB00000BF1037BD4680BD80B582B000AF7860FE
:100EC0007B68D8687B681B8A0022194602F0CAFE3C
:100ED0007B6818687B68191D4FF47A73042204F04C
:100EE00088FE7B68D8687B681B8A0122194602F05D
:100EF000B9FE7B68DB791A467B689B791B021A4333
:100F00007B685B791B041A437B681B791B061A43B9
:100F10007B685A617B685B69002B0ADA7B685B69D6
:100F20009B0C6FEA83436FEA93431A467B685A61CE
:100F300004E07B685B699A147B685A617B685B6933
:100F400007EE903AF8EEE77A7B68C3ED067A7B68A5
:100F5000D3ED067AB5EE007A67EE877A7B68C3ED4B
:100F6000067A7B689B6907EE903AB0EE670A08370D
:100F7000BD4680BD80B485B000AF78604FF0B0430F
:100F8000DA6C4FF0B0417B681343CB644FF0B04351
:100F9000DA6C7B681340FB60FB6800BF1437BD460A
:100FA0005DF8047B704780B485B000AF786039602D
:100FB0000023FB6007E0FB687A68134400221A7084
:100FC000FB680133FB60FB683A689A42F3D800BFC4
:100FD00000BF1437BD465DF8047B704780B582B012
:100FE00000AF78600B46FB707B68FA7883F842208C
:100FF0007B68002283F843207B685B6B1B680222BE
:101000005A637B689B6B1B686FF001021A617B68F7
:101010009B6B184605F044FB00BF0837BD4680BDFA
:1010200090B59BB000AF02F035FA00F03FFC00F045
:10103000A1FC00F037FF00F0D7FC00F015FD00F038
:101040005FFD00F0A9FD00F0E5FD00F083FE00F07B
:10105000DBFE00F001FF00F0AAFCAD4B1B68AD4ABF
:101060001A60AB4B1B68AC4ADA62A94B1B68AB4AEF
:101070005A63A74B1B68AA4A9A63A54B1B68A74AE9
:10108000DA63A34B1B68002283F84220A04B1B6845
:10109000002283F843209E4B1B6800221A869C4B3B
:1010A0001B68002283F84420994B1B680022DA64F5
:1010B000974B1B684FF000029A64954B1B68002207
:1010C00083F85020924B1B68002283F85120904BEC
:1010D0001B684FF000025A658D4B1B683222A3F843
:1010E0005C208B4B1B680A22A3F85E20884B1B6890
:1010F000002283F860208B4B1B6800229A70894B7A
:101100001B6800221A70874B1B6800225A70864B9E
:101110001B6803F108014FF47A733222834806F00A
:10112000E5FB814B1B680833042219467F4806F013
:10113000B1FC774B1B6802211846FFF74FFF7A4B33
:101140001B687A49184601F0B1FC774B1B685B6F4E
:10115000754A10680022764998476D4B1B68043326
:10116000012219466B4806F095FC6C4B1B68002267
:101170005A630021694805F067FB6E4B1B6800222B
:101180005A636C4B1B6800229A630021694805F082
:101190005BFB0421674805F057FB674B18685E4B03
:1011A00010224FF09041FFF769FE644B1B68DFEDA2
:1011B000647AB7EE007AF3EE0F6A9FED626ADFEDB4
:1011C000625A9FED625ADFED624A9FED624AF0EE8D
:1011D000643AB0EE453AF0EE652AB0EE462AF6EEF5
:1011E000001AB0EE661AF0EE470AB0EE670A18462B
:1011F00001F080FC4C4B1B685B6F4B4A106864220B
:101200004B4998474FF47A7002F0CAF9464B1B6875
:101210009B6F454A12685049104698473C4B1B68E3
:10122000012283F86020404B1B68184601F07CFBCC
:101230003C4B1B689B780A2BFAD801A252F823F08A
:10124000311200086D120008AF140008AB1400083A
:10125000B3140008C5140008311200080116000874
:1012600031120008311200084F160008284B1B6885
:101270001B790D2B40F0D880254B1B681868642320
:101280000222364906F09CFA214B1B681B8E6833FC
:101290003B44002203F8682C00237B66ADE0304A13
:1012A0007B6E52F823203B4611461846FEF768FF36
:1012B0000346002B40F09E807B6E062B00F294804C
:1012C00001A252F823F000BFE5120008EF12000857
:1012D000F912000865130008CB130008D5130008A5
:1012E000DF1300080F4B1B6803229A707DE00D4B43
:1012F0001B6802229A7078E00A4B1B6804229A70DD
:10130000034B1B6802211846FFF768FE6DE000BF23
:1013100020000020780200209803002048040020CC
:10132000E0040020240000203000002008030020FA
:1013300054C60008FC030020280000202C000020D8
:1013400000001C42CDCC4C3E000000000000804359
:10135000000070C20000704258C6000864C6000851
:1013600004000020994B1B6803211846FFF736FE46
:10137000974B1B6805229A70964B1B689B6F954A8A
:101380001268954910469847924B1B681B6F914A0B
:101390001068924A924998478E4B1B681B6F8D4A82
:1013A0001068904A904998478A4B1B685B6F894A3E
:1013B000106800228D499847844B1B68022283F8ED
:1013C00044208B4805F06CF90FE0814B1B68062226
:1013D0009A700AE07E4B1B6808229A7005E07C4BED
:1013E0001B680A229A7000E000BF784B1B6800223D
:1013F0001A8606E07B6E01337B667B6E062B7FF7D9
:101400004EAF734B1B689B78012B03D1704B1B684D
:1014100000229A706D4B1B6800221A863B4664219D
:101420001846FFF7C0FD1DE2684B1B681B797F2B38
:101430001BD1664B1B681B8E002B00F01382634B85
:101440001B681B8E013B68333B44002203F8682C69
:101450005E4B1B681A8E5D4B1B68013A92B21A866E
:101460005B4B1B6800229A70FCE1584B1B68574A83
:101470001268128E11461A7901F168033B4403F891
:10148000682C524B1B681A8E504B1B68013292B26B
:101490001A864E4B1B68043314211846FFF783FD50
:1014A0004B4B1B6800229A70DCE100BFDFE100BFFC
:1014B000DDE100BF4E4805F0F3F8454B1B680722FD
:1014C0009A70D4E100BF414B1B6893F85030002B59
:1014D00000F0CA813D4B1B68002283F85020454B29
:1014E0001A683A4B1B68D3ED127A384B1B6893EDA0
:1014F000157AF0EE470AB0EE670A104601F045FB98
:101500003C4B1B68D3ED0D7A3B4B1B68FCEEE77A36
:1015100017EE902A5A63374B1B68D3ED0D7A364B82
:101520001B68FCEEE77A17EE902A9A63274B1B683C
:101530005B6D1846FEF7F0FF02460B4638462F4912
:1015400008F0D0FD214B1B681C683B461846FEF78F
:1015500021FE03469AB239466423204606F030F94C
:101560001A4B1B689B6C1846FEF7D6FF02460B46CB
:101570003846224908F0B6FD144B1B681C683B46F0
:101580001846FEF707FE03469AB239466423204602
:1015900006F016F9174B1B685B6B1846FEF7BCFF8D
:1015A00002460B463846154908F09CFD074B1B6860
:1015B0001C683B461846FEF7EDFD03469AB23946D5
:1015C0006423204606F0FCF84EE100BF2000002016
:1015D000240000203000002068C6000874C60008FF
:1015E00080C600088CC6000894C60008A0C6000883
:1015F000940400202C000020FC030020B0C600084A
:101600009B4B1B6893F85030002B00F02F81984BB8
:101610001B68002283F85020954B1B685B6D1846B1
:10162000FEF77AFF02460B463846924908F05AFD0B
:101630008F4B1B681C683B461846FEF7ABFD034604
:101640009AB239466423204606F0BAF80EE100BF8C
:101650003B468949184608F045FD854B1B681C68C8
:101660003B461846FEF796FD03469AB23946642378
:10167000204606F0A5F83B468049184608F032FDA2
:101680007B4B1B681C683B461846FEF783FD0346F0
:101690009AB239466423204606F092F83B467849D0
:1016A000184608F01FFD724B1B681C683B46184625
:1016B000FEF770FD03469AB239466423204606F0D1
:1016C0007FF83B466F49184608F00CFD684B1B68D5
:1016D0001C683B461846FEF75DFD03469AB2394644
:1016E0006423204606F06CF83B466749184608F02C
:1016F000F9FC5F4B1B681C683B461846FEF74AFD29
:1017000003469AB239466423204606F059F83B4610
:101710005E49184608F0E6FC554B1B681C683B46C2
:101720001846FEF737FD03469AB239466423204631
:1017300006F046F84E4B1B681C683B461846FEF701
:1017400029FD03469AB239466423204606F038F84C
:101750003B464F49184608F0C5FC454B1B681C68C2
:101760003B461846FEF716FD03469AB239466423F7
:10177000204606F025F83B464649184608F0B2FCDC
:101780003B4B1B681C683B461846FEF703FD0346AF
:101790009AB239466423204606F012F83B463E4989
:1017A000184608F09FFC324B1B681C683B461846E5
:1017B000FEF7F0FC03469AB239466423204605F052
:1017C000FFFF3B463149184608F08CFC284B1B684C
:1017D0001C683B461846FEF7DDFC03469AB23946C4
:1017E0006423204605F0ECFF3B462C49184608F0E0
:1017F00079FC1F4B1B681C683B461846FEF7CAFC69
:1018000003469AB239466423204605F0D9FF3B4689
:101810002349184608F066FC154B1B681C683B46BC
:101820001846FEF7B7FC03469AB2394664232046B1
:1018300005F0C6FF3B461B49184608F053FC0C4B0D
:101840001B681C683B461846FEF7A4FC03469AB288
:1018500039466423204605F0B3FF134B1B68002272
:101860009A7004E000BFE3E400BFE1E400BFDFE4FE
:1018700020000020B8C60008C8C60008DCC6000862
:10188000E8C6000808C7000820C7000864C60008AA
:1018900048C7000874C700088CC70008B8C700080C
:1018A000E4C70008FCC700082400002080B59AB0F7
:1018B00000AF07F1200348220021184607F0A0FFDF
:1018C0003B1D00221A605A609A60DA601A615A6100
:1018D0009A61274B1B6823F4C063254A43F40073C5
:1018E0001360234B1B6803F4C0633B603B68032316
:1018F0003B624FF480337B624FF48073FB62402382
:101900003B630223FB6403233B6510237B650823B1
:10191000BB654FF40033FB654FF000537B664FF01F
:1019200000733B6607F12003184602F06DFE034684
:10193000002B01D000F0F2FE6F237B600323BB601D
:101940000023FB6000233B6100237B618023BB619C
:101950000023FB613B1D0321184603F0E3F9034616
:10196000002B01D000F0DAFE00BF6837BD4680BD15
:101970000004005880B594B000AF3B4650220021CF
:10198000184607F03DFF4FF400533B600023BB6453
:101990001023FB643B46184603F001FE0346002B70
:1019A00001D000F0BBFE00BF5037BD4680BD80B502
:1019B00000AF00220021242001F0F1FE242001F0DC
:1019C00008FF00220021252001F0E9FE252001F07A
:1019D00000FF002200211C2001F0E1FE1C2001F08C
:1019E000F8FE00BF80BD000080B500AF1B4B1C4A55
:1019F0001A601A4B1B4A5A60184B00229A60174B08
:101A00000122DA60154B00221A61144B00225A6140
:101A1000124B00229A61114B0022DA610F4B002217
:101A20001A620E4802F036F90346002B01D000F08E
:101A300075FE0021094802F0BCF90346002B01D0D5
:101A400000F06CFE0021054802F0FEF90346002B71
:101A500001D000F063FE00BF80BD00BF2C0200205B
:101A600000540040BC7D701080B500AF224B234A6B
:101A70001A60214B4FF4E1325A601F4B00229A60EA
:101A80001D4B0022DA601C4B00221A611A4B0C22FB
:101A90005A61194B00229A61174B00221A62164BA9
:101AA00000225A62144B00229A62134B00225A669B
:101AB000114805F035FE0346002B01D000F02EFE44
:101AC00000210D4807F0A7FD0346002B01D000F0D0
:101AD00025FE0021084807F0DCFD0346002B01D05D
:101AE00000F01CFE044807F05DFD0346002B01D00A
:101AF00000F014FE00BF80BD78020020008000408E
:101B000080B500AF224B234A1A60214B4FF4E132DB
:101B10005A601F4B00229A601D4B0022DA601C4B5A
:101B200000221A611A4B0C225A61194B00229A6149
:101B3000174B0022DA61164B00221A62144B002266
:101B40005A62134B00229A62114805F0E9FD0346E0
:101B5000002B01D000F0E2FD00210D4807F05BFDF5
:101B60000346002B01D000F0D9FD0021084807F002
:101B700090FD0346002B01D000F0D0FD044807F093
:101B800011FD0346002B01D000F0C8FD00BF80BD51
:101B9000080300200038014080B500AF1B4B1C4AF1
:101BA0001A601A4B4FF482725A60184B4FF48062DD
:101BB0009A60164B4FF4E062DA60144B00221A610F
:101BC000124B00225A61114B4FF400729A610F4B75
:101BD0003022DA610D4B00221A620C4B00225A624D
:101BE0000A4B00229A62094B0722DA62074B002255
:101BF0001A63064B08225A63044803F057FF034652
:101C0000002B01D000F08AFD00BF80BD98030020AA
:101C10000030014080B598B000AF07F154030022B6
:101C20001A605A609A6007F1380300221A605A60FD
:101C30009A60DA601A615A619A613B1D3422002170
:101C4000184607F0DDFD414B414A1A603F4BFA222E
:101C50005A603E4B00229A603C4B4FF48072DA602F
:101C60003A4B00221A61394B00225A61374B00224D
:101C70009A61364804F091FD0346002B01D000F034
:101C80004DFD00237B650023BB650023FB6507F149
:101C9000540319462D4805F015FC0346002B01D0CE
:101CA00000F03CFD6023BB630023FB6300233B6427
:101CB00000237B640023BB640023FB6400233B659B
:101CC00007F1380300221946204804F0B7FF034605
:101CD000002B01D000F022FD07F138030422194641
:101CE0001A4804F0ABFF0346002B01D000F016FDAC
:101CF00000237B600023BB600023FB6000233B616B
:101D000000237B614FF40053BB610023FB61002380
:101D10003B6200237B624FF00073BB620023FB62D7
:101D200000233B6300237B633B1D1946074805F0F6
:101D300029FC0346002B01D000F0F0FC034801F021
:101D4000AFF900BF6037BD4680BD00BFFC03002077
:101D5000002C014080B58AB000AF07F11C030022BF
:101D60001A605A609A603B4600221A605A609A6074
:101D7000DA601A615A619A61224B4FF080421A6010
:101D8000204B41F63F725A601E4B00229A601D4B59
:101D90000422DA601B4B00221A611A4B00229A615E
:101DA000184804F0FAFC0346002B01D000F0B6FC02
:101DB0000023FB6100237B6207F11C0319461148D5
:101DC00005F080FB0346002B01D000F0A7FC602348
:101DD0003B6002237B600023BB6000233B613B46EA
:101DE00000221946074804F029FF0346002B01D0C2
:101DF00000F094FC034801F053F900BF2837BD46BA
:101E000080BD00BF4804002080B500AF104B114AD0
:101E10001A600F4B4FF47A425A600D4B00229A60C1
:101E20000B4B4FF4FA72DA60094B00221A61084B2F
:101E300000225A61064B00229A61054804F0D8FB43
:101E40000346002B01D000F069FC00BF80BD00BF3D
:101E5000940400200044014080B500AF0F4B104AAD
:101E60001A600E4B4FF6FF125A600C4B00229A601C
:101E70000A4B3222DA60094B00221A61074B00221A
:101E80005A61064B00229A61044804F0B1FB0346F4
:101E9000002B01D000F042FC00BF80BDE004002018
:101EA0000048014080B586B000AF3B1D00221A609B
:101EB0005A609A60DA601A610420FFF75BF802202A
:101EC000FFF758F80120FFF755F8002230214FF0B6
:101ED000904001F0C7FE00220221114801F0C2FE2D
:101EE00030237B600123BB600023FB6000233B6148
:101EF0003B1D19464FF0904001F044FD02237B60EA
:101F00000123BB600023FB6000233B613B1D19469E
:101F1000034801F037FD00BF1837BD4680BD00BF44
:101F20000004004880B483B000AF7860044B1B68A5
:101F300001229A7000BF0C37BD465DF8047B7047E4
:101F40003000002080B582B000AF78607B681B68ED
:101F5000764A93421DD1764B1B681868744B1B68F8
:101F6000191D4FF47A73012205F02AFC0346002B59
:101F700040F0D7806F4B1B6801229A706C4B1B6836
:101F800018686B4B1B6804330122194605F082FD6B
:101F9000C7E07B681B68684A934240F0C280674B89
:101FA0001B68184600F0A6FC644B1B681B78032BCB
:101FB00075D0032B00F3AD80012B02D0022B55D03E
:101FC000A7E05E4B1B685B78022B02D0032B38D056
:101FD0009FE0574B1B6803211846FEF7FFFF574B46
:101FE0001B689B6F554A1268554910469847534BDA
:101FF0001B681B6F514A1068524A534998474F4B10
:102000001B681B6F4D4A1068504A514998474B4B0B
:102010001B685B6F494A106800224E499847454B40
:102020001B6805229A70424B1B68022283F84420E9
:102030003F4B1B68012283F83220474804F030FBF5
:1020400013E03B4B1B6801211846FEF7C7FF3B4BD3
:102050001B689B6F394A1268404910469847344BB9
:102060001B68022283F8602000BF52E0334B1B68DC
:102070005B78022B4AD1314B1B689B6F2F4A126849
:102080003749104698472A4B1B68012283F8602085
:102090002A4B1B68184600F047FC00BF36E0274B70
:1020A0001B685B780F2B33D1214B1B68032118462B
:1020B000FEF794FF284804F041FB1D4B1B680022EB
:1020C00083F844201B4B1B6800229A70184B1B6836
:1020D0000022DA64234B1B6800225A63214B1B68E1
:1020E00000229A63154B1B689B6F144A12681C49A7
:1020F000104698470E4B1B68012283F860200F4B57
:102100001B68184600F010FC00BF01E000BF00E0B3
:1021100000BF0A4B1B68083304221946124805F019
:10212000B9FC00BF0837BD4680BD00BF008000403D
:102130002000002024000020003801403000002052
:1021400068C600082CC8000880C600088CC60008B5
:1021500094C60008A0C60008940400203CC80008EB
:1021600058C60008FC0300200803002080B582B098
:1021700000AF78607B681B689A4A93423ED19A4BC5
:102180001B6893F843301A46974B1B6893F842300C
:102190005B00013B9A4210D1934B1B685B6B1B6841
:1021A00000225A63904B1B689B6B184604F0C6FADA
:1021B0008D4B1B68002283F843208B4B1B6893F8E0
:1021C000433003F00103DBB2002B06D0864B1B68C3
:1021D0005B6B1B6802225A6305E0834B1B685B6BD9
:1021E0001B6800225A63804B1B6893F843207E4B88
:1021F0001B680132D2B283F843207DE27B681B6802
:102200007A4A934240F07882794B1B681846FEF771
:1022100053FE754B1B68DA6C734B1B680132DA6432
:10222000734B1A68704B1B6892695A656E4B1B683A
:1022300093F84430072B00F21A8201A252F823F0DF
:102240006F2600086F26000861220008A3220008FC
:102250003F23000819240008B52400084F25000872
:10226000614B1B684FF087429A645F4B1B68D3ED4C
:10227000157AB3EE0E7AF4EEC77AF1EE10FA00DCBE
:10228000F5E1594B1B6802211846FEF7A7FE564B95
:102290001B68032283F84420534B1B680022DA6436
:1022A000E5E1544B1B681B6F524A1068524A534970
:1022B00098474D4B1B68DB6C03F00303002B04D0E5
:1022C000494B1B68DB6C012B16D19FED4D7AF6EE66
:1022D000007A27EE277A444B1B68DB6C07EE903AB6
:1022E000F8EE677A67EE277AB3EE0E7A3E4B1B68FC
:1022F00077EE877AC3ED127A3B4B1B68DB6C07EEF7
:10230000903AB8EE677A9FED3F6AF6EE006AC6EE45
:10231000267AB4EE677AF1EE10FA40F08281324B01
:102320001B6802211846FEF759FE2F4B1B6804223A
:1023300083F844202C4B1B680022DA6471E12D4B9A
:102340001B681B6F2B4A10682F4A2C499847264B55
:102350001B68DB6C03F00303002B04D0224B1B68CB
:10236000DB6C012B16D19FED297AF6EE007A27EE71
:10237000277A1D4B1B68DB6C07EE903AF8EE677A04
:1023800067EE277A9FED1F7A174B1B6877EE877AE7
:10239000C3ED127A144B1B68DB6C07EE903AB8EE73
:1023A000677A9FED186AF6EE006AC6EE267AB4EEFA
:1023B000677AF1EE10FA40F036810B4B1B68022170
:1023C0001846FEF70BFE084B1B68052283F84420D5
:1023D000054B1B680022DA640D4B1B680D4A1A601E
:1023E00021E100BF004801402000002000440140DE
:1023F00028000020300000204CC8000894C60008C7
:10240000ABAA2A3F0000B44254C80008398EE33E0C
:102410002C00002000004842864B1B681B6F854A39
:102420001068854A85499847854B1B68DB6C03F02B
:102430000303002B04D0824B1B68DB6C012B16D1ED
:102440009FED807AF6EE007A27EE277A7C4B1B68A8
:10245000DB6C07EE903AF8EE677A67EE277A9FED2D
:102460007A7A774B1B6877EE877AC3ED127A744BD2
:102470001B68DB6C07EE903AB8EE677AB3EE0E6A33
:10248000F6EE006AC6EE267AB4EE677AF1EE10FA3E
:1024900040F0CB806A4B1B6802211846FEF79EFD78
:1024A000674B1B68062283F84420654B1B6800229B
:1024B000DA64BAE05F4B1B681B6F5E4A1068634AC0
:1024C0005E4998475E4B1B68DB6C03F00303002BEF
:1024D00004D05B4B1B68DB6C012B16D19FED5C7A43
:1024E000F6EE007A27EE277A554B1B68DB6C07EE79
:1024F000903AF8EE677A67EE277A9FED567A504B5E
:102500001B6877EE877AC3ED127A4D4B1B68DB6C44
:1025100007EE903AB8EE677AB3EE0E6AF6EE006A0E
:10252000C6EE267AB4EE677AF1EE10FA7FD1444B0C
:102530001B6802211846FEF751FD414B1B6807221C
:1025400083F844203E4B1B680022DA646FE0394B6D
:102550001B681B6F374A10683F4A38499847384B09
:102560001B68DB6C03F00303002B04D0344B1B68A7
:10257000DB6C012B16D1DFED396A9FED357AF6EE73
:10258000007A27EE277A2E4B1B68DB6C07EE903A19
:10259000F8EE677A67EE277A294B1B6876EEE77AC2
:1025A000C3ED127A264B1B68DB6C07EE903AB8EE4F
:1025B000677AB3EE0E6AF6EE006AC6EE267AB4EEDD
:1025C000677AF1EE10FA51D11D4B1B6805211846B0
:1025D000FEF704FD224B1B6800225A63204B1B6848
:1025E00000229A63164B1B68002283F84420144B88
:1025F0001B680022DA641B4804F0A0F80D4B1B682E
:102600009B6F0C4A12681849104698470C4B1B6880
:10261000012283F86020074B1B68184600F084F9FC
:1026200024E000BF23E000BF21E000BF1FE000BFA7
:102630001DE000BF300000205CC8000894C6000800
:10264000200000208988883E0000024364C80008FA
:102650006666663F00000A436CC800080000254318
:10266000FC0300209404002058C6000800BF244B3F
:102670001B6893F84430002B39D0224B1B68DB6F6A
:10268000204A10681E4A1268D2ED127AB0EE670A2C
:102690001D4998471B4B1B68DB6F1A4A1068184A84
:1026A0001268D2ED157AB0EE670A18499847154BB3
:1026B0001B68DB6F134A1068114A126892ED127A98
:1026C0000F4A1268D2ED157A77EE677AB0EE670A94
:1026D0000F4998470B4B1B68DB6F0A4A10680D4A7D
:1026E0001268D2ED0D7AB0EE670A0B499847044B99
:1026F0001B68012283F8502000BF0837BD4680BD0B
:10270000200000203000002074C8000880C80008A5
:102710008CC800082C00002098C8000880B400AFC6
:1027200072B600BFFEE7000080B586B000AFF8606B
:10273000B9607A60FB6803F13A007B68BA681449B3
:1027400007F0D0FC7861FB685868FB6803F13A0138
:102750007B699AB24FF47A7305F032F80346002B86
:1027600002D04FF0FF330EE0FB6858684FF47A73E5
:102770000322084905F024F80346002B02D04FF04D
:10278000FF3300E0002318461837BD4680BD00BF68
:10279000A0C8000814CA000880B586B000AFF86071
:1027A000B9607A60FB6803F13A007B68BA68144943
:1027B00007F098FC7861FB685868FB6803F13A0100
:1027C0007B699AB24FF47A7304F0FAFF0346002B48
:1027D00002D04FF0FF330EE0FB6858684FF47A7375
:1027E0000322084904F0ECFF0346002B02D04FF00F
:1027F000FF3300E0002318461837BD4680BD00BFF8
:10280000ACC8000814CA000890B589B002AFF860DF
:10281000B96087ED010AFB6803F13A047868FDF7B7
:102820007BFE02460B46CDE90023BA6814492046D8
:1028300007F058FC7861FB685868FB6803F13A01BF
:102840007B699AB24FF47A7304F0BAFF0346002B07
:1028500002D04FF0FF330EE0FB6858684FF47A73F4
:102860000322084904F0ACFF0346002B02D04FF0CE
:10287000FF3300E0002318461C37BD4690BD00BF63
:10288000B8C8000814CA000880B584B000AF7860EA
:1028900039607B683A333A681449184607F022FCDD
:1028A000F8607B6858687B6803F13A01FB689AB26C
:1028B0004FF47A7304F084FF0346002B02D04FF0EC
:1028C000FF330EE07B6858684FF47A73032208499F
:1028D00004F076FF0346002B02D04FF0FF3300E0F8
:1028E000002318461037BD4680BD00BFC8C8000889
:1028F00014CA000880B483B000AF78607B681B7A8C
:10290000242B0BD17B68DB7A262B07D17B685A7A84
:102910007B681A707B689A7A7B685A7000BF0C37A4
:10292000BD465DF8047B704780B582B000AF78602B
:102930007B681B6F3C4A3D49786898477B681B6FF2
:102940003B4A3C49786898477B681B6F3A4A3B4949
:10295000786898477B681B6F394A3A497868984786
:102960007B681B6F384A3949786898477B681B6FCA
:10297000334A3749786898477B681B6F354A364930
:10298000786898477B681B6F324A34497868984763
:102990007B681B6F2F4A3249786898477B681B6FAA
:1029A000304A3149786898477B681B6F2F4A304915
:1029B000786898477B681B6F2A4A2E497868984741
:1029C0007B681B6F2C4A2D49786898477B681B6F82
:1029D0002B4A2C49786898477B681B6F264A2A49FE
:1029E000786898477B681B6F284A29497868984718
:1029F0007B681B6F274A2849786898477B681B6F5C
:102A0000224A2649786898477B681B6F244A2549E3
:102A1000786898477B681B6F194A234978689847FC
:102A200000BF0837BD4680BDCCC80008D8C8000824
:102A3000E4C80008ECC80008F8C80008FCC8000892
:102A400008C900080CC9000814C9000818C9000802
:102A500024C9000830C9000834C900083CC900086E
:102A600048C9000854C9000858C9000860C90008CE
:102A700064C9000870C900087CC9000880C9000842
:102A800088C900088CC9000898C90008A4C90008B2
:102A9000A8C90008B4C90008B8C90008C4C900081A
:102AA000D0C90008D4C90008DCC9000880B483B0CC
:102AB00000AF786039607B683A685A607B68094A81
:102AC0001A677B68084A5A677B68084ADA677B6836
:102AD000074A9A67002318460C37BD465DF8047B09
:102AE000704700BF29270008992700080928000817
:102AF0008928000880B48BB000AF786287ED080A9F
:102B0000C7ED070A87ED061AC7ED051A87ED042AF7
:102B1000C7ED032A87ED023AC7ED013A87ED004A77
:102B20007B6A4FF000025A627B6A4FF000029A62A1
:102B30007B6A4FF00002DA627B6A4FF000021A6390
:102B40007B6A4FF000025A637B6A3A6A1A607B6ABA
:102B5000FA695A607B6ABA699A607B6A7A691A6212
:102B60007B6A3A69DA607B6AFA681A617B6ABA68DA
:102B70005A617B6A7A689A617B6A3A68DA6100BF57
:102B80002C37BD465DF8047B704780B487B000AF3A
:102B9000F86087ED020AC7ED010A97ED027AD7EDDA
:102BA000017A77EE677AC7ED057AFB68D3ED007A94
:102BB00097ED057A67EE277AC7ED047AFB6893ED07
:102BC000097AFB68D3ED017AF6EE006A67EEA66A31
:102BD000FB68D3ED087A66EEA76AFB6893ED0A6A94
:102BE000D7ED057A76EE277A66EEA77A77EE277A22
:102BF000FB68C3ED097AFB6893ED097AFB68D3EDB6
:102C0000077AB4EEE77AF1EE10FA04DDFB68DA69D0
:102C1000FB685A620EE0FB6893ED097AFB68D3ED1E
:102C2000067AB4EEE77AF1EE10FA03D5FB689A69FA
:102C3000FB685A62FB68D3ED027A37EEA77AFB682D
:102C4000D3ED0C7AD7ED016A76EEE77A27EE277A94
:102C5000FB68D3ED037A77EEA76AFB68D3ED087AB9
:102C600076EEE76AFB68D3ED0B7A66EEA77A77EE2D
:102C7000277AF1EE676AFB68D3ED037A37EEA77A1D
:102C8000FB68D3ED087A37EE277AC6EE877AFB68C1
:102C9000C3ED0B7AFB6893ED097AD7ED047A37EE32
:102CA000277AFB68D3ED0B7A77EE277AFB68C3EDC2
:102CB0000D7AFB6893ED0D7AFB68D3ED057AB4EEDF
:102CC000E77AF1EE10FA04DDFB685A69FB685A6393
:102CD0000EE0FB6893ED0D7AFB68D3ED047AB4EE59
:102CE000E77AF1EE10FA03D5FB681A69FB685A63BC
:102CF000FB687A699A62FB687A681A63FB685B6BA7
:102D000007EE903AB0EE670A1C37BD465DF8047BCB
:102D1000704780B485B000AF78604FF0B043DA6C94
:102D20004FF0B0417B681343CB644FF0B043DA6C93
:102D30007B681340FB60FB6800BF1437BD465DF83D
:102D4000047B704780B485B000AF78604FF0B0432B
:102D50009A6D4FF0B0417B6813438B654FF0B043E1
:102D60009A6D7B681340FB60FB6800BF1437BD465B
:102D70005DF8047B704780B485B000AF78604FF099
:102D8000B043DA6D4FF0B0417B681343CB654FF031
:102D9000B043DA6D7B681340FB60FB6800BF1437FB
:102DA000BD465DF8047B704780B485B000AF7860A5
:102DB0004FF0B0431A6E4FF0B0417B6813430B667F
:102DC0004FF0B0431A6E7B681340FB60FB6800BF96
:102DD0001437BD465DF8047B704780B400AF00BF78
:102DE000BD465DF8047B704780B59CB000AF78604D
:102DF00007F15C0300221A605A609A60DA601A6177
:102E000007F10C0350220021184606F0F9FC7B68FC
:102E10001B68174A934226D10423FB604FF44033CA
:102E2000FB6207F10C03184602F0B9FB0346002BC6
:102E300001D0FFF773FC0220FFF76BFF4FF4C07364
:102E4000FB6512233B6600237B660023BB660423DD
:102E5000FB6607F15C031946064800F093FD4FF44A
:102E60000010FFF76FFF00BF7037BD4680BD00BF89
:102E7000005400400004004880B59CB000AF78606A
:102E800007F15C0300221A605A609A60DA601A61E6
:102E900007F10C0350220021184606F0B1FC7B68B4
:102EA0001B68364A934225D10223FB600023BB6294
:102EB00007F10C03184602F072FB0346002B01D009
:102EC000FFF72CFC0120FFF756FF0120FFF721FF41
:102ED0000C23FB6502233B6600237B660023BB6655
:102EE0000823FB6607F15C0319464FF0904000F0A1
:102EF00049FD3EE07B681B68214A934239D101239A
:102F0000FB6000237B6207F10C03184602F047FBCD
:102F10000346002B01D0FFF701FC4FF48040FFF780
:102F200043FF0120FFF7F5FE0220FFF7F2FE4FF40A
:102F30008063FB6502233B6600237B660023BB6640
:102F40000723FB6607F15C0319464FF0904000F041
:102F500019FD4023FB6502233B6600237B660023AB
:102F6000BB660723FB6607F15C031946054800F0C2
:102F700009FD00BF7037BD4680BD00BF0080004026
:102F8000003801400004004880B588B000AF786088
:102F900007F10C0300221A605A609A60DA601A6125
:102FA0007B681B680F4A934217D14FF48050FFF79C
:102FB000FBFE0120FFF7ADFE4223FB6002233B61D5
:102FC00000237B610023BB610523FB6107F10C0338
:102FD00019464FF0904000F0D5FC00BF2037BD46A9
:102FE00080BD00BF0030014080B582B000AF786086
:102FF0007B681B68114A934214D14FF40060FFF7BD
:10300000D3FE00220021192000F0C9FB192000F096
:10301000E0FB002200211A2000F0C1FB1A2000F082
:10302000D8FB07E07B681B68B3F1804F02D1012019
:10303000FFF788FE00BF0837BD4680BD002C014069
:1030400080B582B000AF78607B681B68124A9342FB
:103050000CD14FF40030FFF7A7FE00220021192009
:1030600000F09DFB192000F0B4FB10E07B681B68AA
:103070000A4A93420BD14FF48020FFF795FE0022BD
:1030800000211A2000F08BFB1A2000F0A2FB00BFE9
:103090000837BD4680BD00BF0044014000480140E4
:1030A00080B588B000AF786007F10C0300221A6089
:1030B0005A609A60DA601A617B681B681A4A934208
:1030C00015D10120FFF725FE4FF44073FB6002236A
:1030D0003B6100237B610023BB610123FB6107F19E
:1030E0000C0319464FF0904000F04CFC18E07B6850
:1030F0001B68B3F1804F13D10120FFF70AFE0123B3
:10310000FB6002233B6100237B610023BB61012341
:10311000FB6107F10C0319464FF0904000F032FCC0
:1031200000BF2037BD4680BD002C014080B400AFF9
:10313000FEE780B400AFFEE780B400AFFEE780B4E6
:1031400000AFFEE780B400AFFEE780B400AF00BF81
:10315000BD465DF8047B704780B400AF00BFBD463C
:103160005DF8047B704780B400AF00BFBD465DF8DA
:10317000047B704780B500AF00F0E6F900BF80BD6A
:1031800080B500AF034803F039FC034803F036FC78
:1031900000BF80BDFC0300209404002080B500AF78
:1031A000034803F02BFC034803F028FC00BF80BD5C
:1031B000FC030020E004002080B500AF024803F0CB
:1031C0001DFC00BF80BD00BF4804002080B500AFDB
:1031D000024804F0B5FC00BF80BD00BF080300201A
:1031E00080B500AF024804F0ABFC00BF80BD00BF5B
:1031F0007802002080B400AF01231846BD465DF878
:10320000047B704780B582B000AF7860396006F00B
:10321000CDFA034616221A604FF0FF3318460837DE
:10322000BD4680BD80B582B000AF78604FF0FF3101
:103230007868FFF7E7FFFEE780B586B000AFF8607B
:10324000B9607A6000237B610AE0AFF30080014639
:10325000BB685A1CBA60CAB21A707B6901337B61C1
:103260007A697B689A42F0DB7B6818461837BD465E
:1032700080BD80B586B000AFF860B9607A60002389
:103280007B6109E0BB685A1CBA601B781846AFF333
:1032900000807B6901337B617A697B689A42F1DB4C
:1032A0007B6818461837BD4680BD80B483B000AF38
:1032B00078604FF0FF3318460C37BD465DF8047B4D
:1032C000704780B483B000AF786039603B684FF4DA
:1032D00000525A60002318460C37BD465DF8047B47
:1032E000704780B483B000AF7860012318460C3774
:1032F000BD465DF8047B704780B485B000AFF860D0
:10330000B9607A60002318461437BD465DF8047B27
:103310007047000080B586B000AF7860144A154B46
:10332000D31A7B617B693B61134B1B68002B02D175
:10333000114B124A1A60104B1A687B6813443A69A1
:103340009A4207D206F032FA03460C221A604FF076
:10335000FF3309E0084B1B68FB60074B1A687B686A
:103360001344054A1360FB6818461837BD4680BDF4
:1033700000000320000400006806002080060020F2
:1033800080B400AF244BD3F88830234A43F4700351
:10339000C2F888304FF0B0431B684FF0B04243F0A2
:1033A000010313604FF0B0434FF4E0229A604FF0F6
:1033B000B0431A684FF0B041184B13400B604FF008
:1033C000B043D3F894304FF0B04223F00503C2F875
:1033D00094304FF0B043D3F898304FF0B04223F020
:1033E0000103C2F898304FF0B0430D4ADA604FF055
:1033F000B0430B4A1A614FF0B0431B684FF0B04224
:1034000023F4802313604FF0B04300229A6100BF81
:10341000BD465DF8047B704700ED00E0FBFEF6FA68
:1034200000100422D458C4500433C4188C42F9D379
:103430007047036004308842FBD370470C488546D0
:10344000FFF79EFF0B480C490C4A0023FFF7EDFFE6
:103450000B480C490023FFF7EEFF0B480B490023F4
:10346000FFF7E9FF06F0A8F9FDF7DAFDFEE7000037
:10347000000003200400002010020020CCCE000831
:10348000100200208006002000000320000003201E
:10349000FEE7000080B582B000AF0023FB710C4B4B
:1034A0001B680B4A43F480731360032000F06CF92F
:1034B0000F2000F00FF80346002B02D00123FB7110
:1034C00001E0FFF78AFCFB7918460837BD4680BD4E
:1034D0000040005880B584B000AF78600023FB73D3
:1034E000174B1B78002B24D001F0C8FD0246144B6B
:1034F0001B7819464FF47A73B3FBF1F3B2FBF3F385
:10350000184600F074F90346002B0FD17B680F2B8F
:1035100009D8002279684FF0FF3000F040F9094ADD
:103520007B68136007E00123FB7304E00123FB7356
:1035300001E00123FB73FB7B18461037BD4680BDBD
:103540003C0000203800002080B400AF064B1B7800
:103550001A46064B1B681344044A136000BFBD465D
:103560005DF8047B704700BF3C0000206C06002023
:1035700080B400AF034B1B681846BD465DF8047B62
:10358000704700BF6C06002080B400AF034B1B687F
:103590001846BD465DF8047B704700BF3800002028
:1035A00080B584B000AF7860FFF7E2FFB8607B6859
:1035B000FB60FB68B3F1FF3F05D00A4B1B781A464E
:1035C000FB681344FB6000BFFFF7D2FF0246BB68F5
:1035D000D31AFA689A42F7D800BF00BF1037BD4629
:1035E00080BD00BF3C00002080B485B000AF786093
:1035F0007B6803F00703FB600C4BDB68BB60BA68B9
:103600004FF6FF031340BB60FB681A02BB6813430D
:1036100043F0BF6343F40033BB60044ABB68D3602C
:1036200000BF1437BD465DF8047B704700ED00E035
:1036300080B400AF044BDB681B0A03F00703184695
:10364000BD465DF8047B704700ED00E080B483B0B8
:1036500000AF0346FB7197F90730002B0BDBFB79BA
:1036600003F01F02074997F907305B09012000FAB0
:1036700002F241F8232000BF0C37BD465DF8047B01
:10368000704700BF00E100E080B483B000AF0346A4
:103690003960FB7197F90730002B0ADB3B68DAB21F
:1036A0000C4997F907301201D2B20B4483F800237A
:1036B0000AE03B68DAB20849FB7903F00F03043BE8
:1036C0001201D2B20B441A7600BF0C37BD465DF82A
:1036D000047B704700E100E000ED00E080B489B0B9
:1036E00000AFF860B9607A60FB6803F00703FB6124
:1036F000FB69C3F10703042B28BF0423BB61FB69EB
:103700000433062B02D9FB69033B00E000237B61F5
:103710004FF0FF32BB6902FA03F3DA43BB681A4089
:103720007B699A404FF0FF317B6901FA03F3D9437B
:103730007B680B40134318462437BD465DF8047B75
:103740007047000080B582B000AF78607B68013BB5
:10375000B3F1807F01D301230FE00A4A7B68013B6C
:1037600053600F214FF0FF30FFF78EFF054B002213
:103770009A60044B07221A60002318460837BD469A
:1037800080BD00BF10E000E080B582B000AF78607F
:103790007868FFF729FF00BF0837BD4680BD80B5B8
:1037A00086B000AF0346B9607A60FB73FFF740FF55
:1037B00078617A68B9687869FFF790FF024697F9EF
:1037C0000F3011461846FFF75FFF00BF1837BD46A0
:1037D00080BD80B582B000AF0346FB7197F907301A
:1037E0001846FFF733FF00BF0837BD4680BD80B5E0
:1037F00082B000AF78607868FFF7A4FF03461846F0
:103800000837BD4680BD80B483B000AF78607B6868
:10381000002B01D101234FE07B6893F82530DBB208
:10382000022B08D07B680422DA637B68002283F8CD
:103830002420012340E07B681B681A687B681B68B2
:1038400022F00E021A607B689B6C1A687B689B6C86
:1038500022F480721A607B681B681A687B681B6898
:1038600022F001021A607B685B6C03F01C027B682B
:103870001B6C012101FA02F25A607B68DB6C7A68EA
:10388000126D5A607B685B6D002B0CD07B685B6DA2
:103890001A687B685B6D22F480721A607B689B6D8E
:1038A0007A68D26D5A607B68012283F825207B6894
:1038B000002283F82420002318460C37BD465DF80B
:1038C000047B704780B584B000AF78600023FB7341
:1038D0007B6893F82530DBB2022B05D07B6804228D
:1038E000DA630123FB7347E07B681B681A687B6817
:1038F0001B6822F00E021A607B681B681A687B68DE
:103900001B6822F001021A607B689B6C1A687B6856
:103910009B6C22F480721A607B685B6C03F01C0263
:103920007B681B6C012101FA02F25A607B68DB6C38
:103930007A68126D5A607B685B6D002B0CD07B68D7
:103940005B6D1A687B685B6D22F480721A607B681D
:103950009B6D7A68D26D5A607B68012283F82520BE
:103960007B68002283F824207B689B6B002B03D0AC
:103970007B689B6B78689847FB7B18461037BD4681
:1039800080BD000080B487B000AF7860396000234C
:103990007B614CE13B681A6801217B6901FA03F302
:1039A0001340FB60FB68002B00F03E813B685B68C6
:1039B00003F00303012B05D03B685B6803F00303AE
:1039C000022B30D17B689B683B617B695B000322E3
:1039D00002FA03F3DB433A6913403B613B68DA6860
:1039E0007B695B0002FA03F33A6913433B617B682E
:1039F0003A699A607B685B683B6101227B6902FAE5
:103A000003F3DB433A6913403B613B685B681B0986
:103A100003F001027B6902FA03F33A6913433B6145
:103A20007B683A695A603B685B6803F00303032BC9
:103A300017D07B68DB683B617B695B00032202FA7D
:103A400003F3DB433A6913403B613B689A687B6947
:103A50005B0002FA03F33A6913433B617B683A69FE
:103A6000DA603B685B6803F00303022B23D17B69B8
:103A7000DA087B68083253F822303B617B6903F037
:103A800007039B000F2202FA03F3DB433A6913405A
:103A90003B613B681A697B6903F007039B0002FAEC
:103AA00003F33A6913433B617B69DA087B680832A8
:103AB000396943F822107B681B683B617B695B00B6
:103AC000032202FA03F3DB433A6913403B613B688C
:103AD0005B6803F003027B695B0002FA03F33A6957
:103AE00013433B617B683A691A603B685B6803F487
:103AF0004033002B00F09880544A7B699B080233C6
:103B000052F823303B617B6903F003039B000F22D3
:103B100002FA03F3DB433A6913403B617B68B3F17C
:103B2000904F19D07B684A4A934213D07B68494A28
:103B300093420DD07B68484A934207D07B68474A3E
:103B4000934201D1042308E0072306E0032304E0A5
:103B5000022302E0012300E000237A6902F003025D
:103B6000920093403A6913433B6138497B699B0853
:103B700002333A6941F82320394B1B683B61FB68EB
:103B8000DB433A6913403B613B685B6803F4801395
:103B9000002B03D03A69FB6813433B61304A3B6911
:103BA00013602F4B5B683B61FB68DB433A69134052
:103BB0003B613B685B6803F40013002B03D03A6958
:103BC000FB6813433B61264A3B695360244BD3F89F
:103BD00080303B61FB68DB433A6913403B613B68E3
:103BE0005B6803F48033002B03D03A69FB6813430E
:103BF0003B611B4A3B69C2F88030194BD3F88430D3
:103C00003B61FB68DB433A6913403B613B685B689F
:103C100003F40033002B03D03A69FB6813433B6184
:103C20000F4A3B69C2F884307B6901337B613B6892
:103C30001A687B6922FA03F3002B7FF4ABAE00BF56
:103C400000BF1C37BD465DF8047B70470000014093
:103C50000004004800080048000C0048001000481C
:103C60000008005880B483B000AF78600B467B80BA
:103C700013467B707B78002B03D07A887B689A612F
:103C800002E07A887B689A6200BF0C37BD465DF817
:103C9000047B704780B582B000AF78607B68002BF2
:103CA00001D1012381E07B6893F84130DBB2002B26
:103CB00006D17B68002283F840207868FFF794F8EB
:103CC0007B68242283F841207B681B681A687B6824
:103CD0001B6822F001021A607B685A687B681B68C7
:103CE00022F070621A617B681B689A687B681B68A7
:103CF00022F400429A607B68DB68012B07D17B6865
:103D00009A687B681B6842F400429A6006E07B6810
:103D10009A687B681B6842F404429A607B68DB689F
:103D2000022B04D17B681B684FF400625A607B68E9
:103D30001B685B687A68126843F0007343F40043C1
:103D400053607B681B68DA687B681B6822F400425A
:103D5000DA607B681A697B685B6942EA03017B6809
:103D60009B691A027B681B680A43DA607B68D96921
:103D70007B681A6A7B681B680A431A607B681B6849
:103D80001A687B681B6842F001021A607B68002297
:103D90005A647B68202283F841207B6800221A63E2
:103DA0007B68002283F84220002318460837BD466E
:103DB00080BD80B483B000AF786039607B6893F8D1
:103DC0004130DBB2202B38D17B6893F84030012B97
:103DD00001D1022332E07B68012283F840207B6816
:103DE000242283F841207B681B681A687B681B6863
:103DF00022F001021A607B681B681A687B681B68E6
:103E000022F480521A607B681B6819687B681B6803
:103E10003A680A431A607B681B681A687B681B68EB
:103E200042F001021A607B68202283F841207B68FF
:103E3000002283F84020002300E0022318460C37BC
:103E4000BD465DF8047B704780B485B000AF7860F4
:103E500039607B6893F84130DBB2202B39D17B6825
:103E600093F84030012B01D1022333E07B6801221B
:103E700083F840207B68242283F841207B681B68FC
:103E80001A687B681B6822F001021A607B681B6855
:103E90001B68FB60FB6823F47063FB603B681B02DC
:103EA000FA681343FB607B681B68FA681A607B68DA
:103EB0001B681A687B681B6842F001021A607B6805
:103EC000202283F841207B68002283F840200023D1
:103ED00000E0022318461437BD465DF8047B7047A6
:103EE00080B400AF054B1B68044A43F48073136031
:103EF00000BFBD465DF8047B704700BF000400585A
:103F000080B400AF044B1B6803F4C0631846BD4681
:103F10005DF8047B704700BF0004005880B400AF18
:103F20004FF0B0431B6803F48013B3F5801F01D139
:103F3000012300E000231846BD465DF8047B70476E
:103F400080B400AF4FF0B0431B684FF0B04243F471
:103F50008033136000BFBD465DF8047B704780B4BA
:103F600000AF4FF0B0431B684FF0B04223F48033F2
:103F7000136000BFBD465DF8047B704780B400AF9E
:103F80004FF0B0431B6803F40033B3F5003F01D199
:103F9000012300E000231846BD465DF8047B70470E
:103FA00080B400AF4FF0B0431B684FF0B04243F411
:103FB0008073136000BFBD465DF8047B704780B41A
:103FC00000AF4FF0B0431B684FF0B04223F4807352
:103FD000136000BFBD465DF8047B704780B400AF3E
:103FE0004FF0B0431B6803F48063B3F5806F01D1D9
:103FF000012300E000231846BD465DF8047B7047AE
:1040000080B483B000AF78604FF0B0435B6823F0BA
:10401000FE427B681B064FF0B04113434B6000BF6C
:104020000C37BD465DF8047B704780B400AF4FF09D
:10403000B043D3F898304FF0B04243F00103C2F8D8
:10404000983000BFBD465DF8047B704780B400AF78
:104050004FF0B043D3F898304FF0B04223F0010353
:10406000C2F8983000BFBD465DF8047B704780B44D
:1040700000AF4FF0B043D3F8983003F00203022BA7
:1040800001D1012300E000231846BD465DF8047B02
:10409000704780B400AF4FF0B043D3F890304FF08A
:1040A000B04243F00103C2F8903000BFBD465DF856
:1040B000047B704780B400AF4FF0B043D3F890302A
:1040C0004FF0B04223F00103C2F8903000BFBD466C
:1040D0005DF8047B704780B400AF4FF0B043D3F875
:1040E00090304FF0B04243F00403C2F8903000BF6C
:1040F000BD465DF8047B704780B400AF4FF0B0431D
:10410000D3F890304FF0B04223F00403C2F890305F
:1041100000BFBD465DF8047B704780B400AF4FF030
:10412000B043D3F8903003F00203022B01D10123F6
:1041300000E000231846BD465DF8047B704780B45C
:1041400000AF4FF0B043D3F894304FF0B04243F09B
:104150000103C2F8943000BFBD465DF8047B704790
:1041600080B400AF4FF0B043D3F894304FF0B0427A
:1041700023F00103C2F8943000BFBD465DF8047B14
:10418000704780B400AF4FF0B043D3F8943003F0E1
:104190000203022B01D1012300E000231846BD4693
:1041A0005DF8047B704780B400AF4FF0B043D3F8A4
:1041B00094304FF0B04243F00403C2F8943000BF93
:1041C000BD465DF8047B704780B400AF4FF0B0434C
:1041D000D3F894304FF0B04223F00403C2F8943087
:1041E00000BFBD465DF8047B704780B400AF4FF060
:1041F000B043D3F8943003F00803082B01D1012316
:1042000000E000231846BD465DF8047B704780B48B
:1042100083B000AF78604FF0B043D3F8943023F40C
:1042200070627B681B024FF0B0411343C1F89430B9
:1042300000BF0C37BD465DF8047B704780B400AF0B
:104240004FF0B0431B684FF0B04243F001031360DE
:1042500000BFBD465DF8047B704780B400AF4FF0EF
:10426000B0431B684FF0B04223F00103136000BF5E
:10427000BD465DF8047B704780B400AF4FF0B0439B
:104280001B6803F00203022B01D1012300E000238D
:104290001846BD465DF8047B704780B483B000AF1C
:1042A00078604FF0B0431B6823F0F0024FF0B0414C
:1042B0007B6813430B6000BF0C37BD465DF8047B81
:1042C000704780B483B000AF4FF0B0431B6803F079
:1042D000F0037B607B68B02B01D9B0237B607B68E7
:1042E00018460C37BD465DF8047B704780B483B038
:1042F00000AF78604FF0B0435B6823F47F427B6887
:104300001B024FF0B04113434B6000BF0C37BD465A
:104310005DF8047B704780B483B000AF78604FF0E5
:10432000B0439B6823F003024FF0B0417B68134316
:104330008B6000BF0C37BD465DF8047B704780B4CE
:1043400000AF4FF0B0439B6803F00C031846BD4626
:104350005DF8047B704780B483B000AF78604FF0A5
:10436000B0439B6823F0F0024FF0B0417B681343E9
:104370008B6000BF0C37BD465DF8047B704780B48E
:1043800083B000AF78604FF0B043D3F8083123F02A
:10439000F0024FF0B0417B681343C1F8083100BF11
:1043A0000C37BD465DF8047B704780B483B000AF26
:1043B00078604FF0B043D3F8083123F00F027B68E8
:1043C0001B094FF0B0411343C1F8083100BF0C374F
:1043D000BD465DF8047B704780B483B000AF786061
:1043E0004FF0B0439B6823F4E0624FF0B0417B682C
:1043F00013438B6000BF0C37BD465DF8047B7047EC
:1044000080B483B000AF78604FF0B0439B6823F472
:1044100060524FF0B0417B6813438B6000BF0C3794
:10442000BD465DF8047B704780B400AF4FF0B043E9
:104430009B6803F0F0031846BD465DF8047B7047A7
:1044400080B400AF4FF0B043D3F808311B0103F044
:10445000F0031846BD465DF8047B704780B400AF9A
:104460004FF0B0439B6803F4E0631846BD465DF827
:10447000047B704780B400AF4FF0B0439B6803F4F7
:1044800060531846BD465DF8047B704780B400AFAA
:104490004FF0B0431B684FF0B04243F0807313609D
:1044A00000BFBD465DF8047B704780B400AF4FF09D
:1044B000B0431B684FF0B04223F08073136000BF1D
:1044C000BD465DF8047B704780B400AF4FF0B04349
:1044D0001B6803F00073B3F1007F01D1012300E0FA
:1044E00000231846BD465DF8047B704780B400AFDA
:1044F0004FF0B043DB681B0A03F07F031846BD464C
:104500005DF8047B704780B400AF4FF0B043DB68C8
:1045100003F060431846BD465DF8047B704780B4E5
:1045200000AF4FF0B043DB6803F070031846BD46A0
:104530005DF8047B704780B400AF4FF0B043DB6898
:1045400003F003031846BD465DF8047B704780B452
:1045500000AF4FF0B0439B6803F48033B3F5803F66
:1045600001D1012300E000231846BD465DF8047B1D
:10457000704780B400AF4FF0B043D3F8083103F474
:104580000033B3F5003F01D1012300E000231846BA
:10459000BD465DF8047B704780B400AF4FF0B04378
:1045A000D3F8083103F48033B3F5803F01D1012300
:1045B00000E000231846BD465DF8047B704780B4D8
:1045C00000AF4FF0B0439B6803F40033B3F5003FF6
:1045D00001D1012300E000231846BD465DF8047BAD
:1045E000704780B400AF4FF0B0439B6803F4802362
:1045F000B3F5802F01D1012300E000231846BD460A
:104600005DF8047B7047000090B58DB000AF786016
:104610007B68002B01D101237FE37B681B6803F0DB
:104620002003002B00F09280FFF789FEF862FFF76D
:1046300082FFB862FB6A002B05D0FB6A0C2B4CD1C1
:10464000BB6A012B49D1FFF717FE0346002B05D0AB
:104650007B68DB69002B01D101235EE37B685C6A28
:10466000FFF72FFE03469C4214D97B685B6A18460D
:1046700000F044FD0346002B01D001234DE37B688D
:104680005B6A1846FFF709FE7B681B6A1846FFF74E
:104690002DFE13E07B685B6A1846FFF7FEFD7B6822
:1046A0001B6A1846FFF722FE7B685B6A184600F01B
:1046B00025FD0346002B01D001232EE300F0DEFC94
:1046C0000346A54A1360A54B1B681846FEF702FF78
:1046D0000346002B39D001231FE37B68DB69002BE5
:1046E0001ED0FFF7ABFDFEF743FF786208E0FEF750
:1046F0003FFF02467B6AD31A022B01D903230CE346
:10470000FFF7BAFD0346002BF1D07B685B6A1846C1
:10471000FFF7C3FD7B681B6A1846FFF7E7FD15E04E
:10472000FFF79BFDFEF724FF786208E0FEF720FF0D
:1047300002467B6AD31A022B01D90323EDE2FFF76D
:104740009BFD0346002BF1D100E000BF7B681B6896
:1047500003F00103002B4ED0FFF7F1FD3862FFF7A5
:10476000EAFEF8613B6A082B05D03B6A0C2B0DD1A1
:10477000FB69032B0AD1FFF701FC0346002B39D05C
:104780007B685B68002B35D10123C6E27B685B68E0
:10479000B3F5803F02D1FFF7D3FB01E0FFF7DFFB6A
:1047A0007B685B68002B12D0FEF7E2FE786208E0BF
:1047B000FEF7DEFE02467B6AD31A642B01D903237F
:1047C000ABE2FFF7DBFB0346002BF1D013E0FEF773
:1047D000CFFE786208E0FEF7CBFE02467B6AD31A72
:1047E000642B01D9032398E2FFF7C8FB0346002B93
:1047F000F1D100E000BF7B681B6803F00203002BCF
:1048000051D0FFF79CFDB861FFF795FE7861BB6959
:10481000042B05D0BB690C2B13D17B69022B10D163
:10482000FFF7DCFB0346002B05D07B68DB68002B21
:1048300001D1012371E27B681B691846FFF7E0FB99
:1048400031E07B68DB68002B19D0FFF7A9FBFEF78E
:104850008FFE786208E0FEF78BFE02467B6AD31A71
:10486000022B01D9032358E2FFF7B8FB0346002BC4
:10487000F1D07B681B691846FFF7C2FB13E0FFF716
:104880009EFBFEF775FE786208E0FEF771FE0246B9
:104890007B6AD31A022B01D903233EE2FFF79EFB6A
:1048A0000346002BF1D17B681B6803F00803002B43
:1048B00006D17B681B6803F01003002B00F0A48076
:1048C0007B685B69002B77D07B681B6803F0100363
:1048D000002B4BD0FFF755FC0346002B13D1FFF7FD
:1048E0002EFCFEF745FE786208E0FEF741FE024628
:1048F0007B6AD31A022B01D903230EE2FFF741FC96
:104900000346002BF1D0FFF74EFCFEF731FE786234
:1049100008E0FEF72DFE02467B6AD31A032B01D96D
:104920000323FAE1FFF761FC0346002BF1D07B681B
:104930009B691846FFF76BFCFFF712FCFEF718FEA9
:1049400078620DE0FEF714FE02467B6AD31A022B52
:1049500006D90323E1E100BF340000203800002025
:10496000FFF70FFC0346002BECD14DE0FFF7E7FB10
:10497000FEF7FEFD786208E0FEF7FAFD02467B6A6C
:10498000D31A022B01D90323C7E1FFF7FAFB034631
:10499000002BF1D0FFF718FC08E0FEF7E9FD024616
:1049A0007B6AD31A032B01D90323B6E1FFF71DFC61
:1049B0000346002BF1D127E0FFF706FCFEF7D8FDF8
:1049C000786208E0FEF7D4FD02467B6AD31A032B17
:1049D00001D90323A1E1FFF708FC0346002BF1D125
:1049E000FFF7BEFBFEF7C4FD786208E0FEF7C0FDEE
:1049F00002467B6AD31A022B01D903238DE1FFF70C
:104A0000C0FB0346002BF1D17B681B6803F0040355
:104A1000002B5BD0A74B1B6803F48073002B14D1D1
:104A2000FFF75EFAFEF7A4FD786208E0FEF7A0FD4E
:104A300002467B6AD31A022B01D903236DE19D4BF9
:104A40001B6803F48073002BF0D07B689B68012BFC
:104A500002D1FFF71EFB0CE07B689B68052B04D19D
:104A6000FFF739FBFFF715FB03E0FFF723FBFFF729
:104A700043FB7B689B68002B14D0FEF779FD7862BE
:104A80000AE0FEF775FD02467B6AD31A41F28832CE
:104A9000934201D9032340E1FFF73FFB0346002B7C
:104AA000EFD013E0FEF764FD78620AE0FEF760FDE8
:104AB00002467B6AD31A41F28832934201D903231A
:104AC0002BE1FFF72AFB0346002BEFD17B681B6825
:104AD00003F04003002B2CD07B689B6A002B14D082
:104AE000FFF7A3FAFEF744FD786208E0FEF740FD09
:104AF00002467B6AD31A022B01D903230DE1FFF78B
:104B0000B6FA0346002BF1D013E0FFF79FFAFEF749
:104B10002FFD786208E0FEF72BFD02467B6AD31A70
:104B2000022B01D90323F8E0FFF7A1FA0346002B7B
:104B3000F1D17B68DB6A002B00F0EE80FFF7FFFB12
:104B400038614FF0B043DB68FB607B68DB6A022BA7
:104B500040F0B480FB6803F003027B681B6B9A4251
:104B600023D1FB6803F070027B685B6B9A421CD117
:104B7000FB681B0A03F07F027B689B6B9A4214D18F
:104B8000FB6803F478127B68DB6B9A420DD1FB68FB
:104B900003F060627B681B6C9A4206D1FB6803F0ED
:104BA00060427B685B6C9A425DD03B690C2B58D0AD
:104BB0004FF0B0431B6803F08063002B01D001234A
:104BC000ABE0FFF772FCFEF7D3FC786208E0FEF77B
:104BD000CFFC02467B6AD31A022B01D903239CE047
:104BE0004FF0B0431B6803F00073002BEFD14FF080
:104BF000B043DA68304B13407A68116B7A68526BB5
:104C000011437A68926B120211437A68D26B114396
:104C10007A68126C11437A68526C0A434FF0B041C3
:104C20001343CB60FFF732FC4FF0B043DB684FF02B
:104C3000B04243F08053D360FEF79AFC786208E0FC
:104C4000FEF796FC02467B6AD31A022B01D9032396
:104C500063E04FF0B0431B6803F00073002BEFD00C
:104C60005AE0012359E04FF0B0431B6803F0007392
:104C7000002B51D1FFF70AFC4FF0B043DB684FF037
:104C8000B04243F08053D360FEF772FC786208E0D4
:104C9000FEF76EFC02467B6AD31A022B01D903236E
:104CA0003BE04FF0B0431B6803F00073002BEFD0E4
:104CB00032E000BF000400588C80C1113B690C2B0E
:104CC00028D0FFF7F2FB4FF0B043DB684FF0B04263
:104CD00023F00303D3604FF0B043DB684FF0B042E2
:104CE00023F0885323F48033D360FEF741FC7862CD
:104CF00008E0FEF73DFC02467B6AD31A022B01D97D
:104D000003230AE04FF0B0431B6803F00073002B4D
:104D1000EFD101E0012300E0002318463437BD46FF
:104D200090BD00BF80B584B000AF786039607B680B
:104D3000002B01D101232DE1984B1B6803F00703E1
:104D40003A689A421BD9954B1B6823F00702934996
:104D50003B6813430B60FEF70BFCF86008E0FEF7BE
:104D600007FC0246FB68D31A022B01D9032311E189
:104D70008A4B1B6803F007033A689A42EFD17B68BD
:104D80001B6803F00203002B16D07B689B68184653
:104D9000FFF7E1FAFEF7ECFBF86008E0FEF7E8FB4E
:104DA0000246FB68D31A022B01D90323F2E0FFF776
:104DB000CEFB0346002BF1D07B681B6803F0200379
:104DC000002B16D07B685B691846FFF7D8FAFEF710
:104DD000CFFBF86008E0FEF7CBFB0246FB68D31A76
:104DE000022B01D90323D5E0FFF7C3FB0346002BB9
:104DF000F1D07B681B6803F04003002B16D07B6862
:104E00009B691846FFF7D1FAFEF7B2FBF86008E09D
:104E1000FEF7AEFB0246FB68D31A022B01D903232F
:104E2000B8E0FFF7B9FB0346002BF1D07B681B68A5
:104E300003F00403002B16D07B68DB681846FFF7ED
:104E4000CBFAFEF795FBF86008E0FEF791FB02460F
:104E5000FB68D31A022B01D903239BE0FFF7AFFBBA
:104E60000346002BF1D07B681B6803F00803002B7E
:104E700017D07B681B69DB001846FFF7C1FAFEF705
:104E800077FBF86008E0FEF773FB0246FB68D31A75
:104E9000022B01D903237DE0FFF7A3FB0346002B80
:104EA000F1D07B681B6803F00103002B43D07B68C3
:104EB0005B68022B06D1FFF761F80346002B1ED179
:104EC000012367E07B685B68032B06D1FFF7FCFAE0
:104ED0000346002B13D101235CE07B685B68002B49
:104EE00006D1FFF7C9F90346002B08D1012351E091
:104EF000FFF774F80346002B01D101234AE07B68D9
:104F00005B681846FFF707FAFEF732FBF8600AE025
:104F1000FEF72EFB0246FB68D31A41F28832934219
:104F200001D9032336E0FFF70AFA02467B685B6883
:104F30009B009A42ECD1194B1B6803F007033A68B7
:104F40009A421BD2154B1B6823F0070213493B689A
:104F500013430B60FEF70CFBF86008E0FEF708FB5C
:104F60000246FB68D31A022B01D9032312E00B4B34
:104F70001B6803F007033A689A42EFD100F07EF80D
:104F80000346074A1360FEF7FFFA03461846FEF78A
:104F9000A1FA034618461037BD4680BD00400058B0
:104FA0003400002090B585B000AFFFF7C8F97860F5
:104FB0007B68002B0AD1FFF784F903461B0903F035
:104FC0000F032B4A52F82330FB604BE07B68042B25
:104FD00002D1284BFB6045E07B68082B0AD1FEF725
:104FE0009DFF0346012B02D1224BFB603AE0224B8E
:104FF000FB6037E0FFF79FFA38603B68022B03D075
:105000003B68032B03D00DE01A4BBB6015E0FEF7A5
:1050100085FF0346012B02D1164BBB600DE0164BFA
:10502000BB600AE0FFF74DF903461B0903F00F03CD
:105030000F4A52F82330BB6000BFFFF757FA024611
:10504000BB6803FB02F4FFF76AFA03461B0901334E
:10505000B4FBF3F4FFF757FA03465B0F0133B4FBDD
:10506000F3F3FB60FB6818461437BD4690BD00BFE4
:1050700078CA00080024F4000048E80198B500AFA1
:10508000FFF790FF0446FFF7CFF903461B0903F033
:105090000F03034A52F82330B4FBF3F3184698BDCC
:1050A00018CA000898B500AFFFF7E8FF0446FFF7FD
:1050B000D5F903461B0A03F00703044A52F82330CC
:1050C00003F01F0324FA03F3184698BD58CA0008DA
:1050D00098B500AFFFF7D2FF0446FFF7CBF90346C0
:1050E000DB0A03F00703044A52F8233003F01F03DE
:1050F00024FA03F3184698BD58CA000890B585B045
:1051000000AF78607B68B02B03D9154BDB6AFB607E
:1051100007E07B681B0903F00F03114A52F82330A4
:10512000FB60FFF78DF903461B0903F00F030D4ADF
:1051300052F82330FA68B2FBF3F3BB60BB680A4A4B
:10514000A2FB03239C0CFEF7DBFE03461946204618
:1051500000F00CF8034618461437BD4690BD00BF5A
:1051600078CA000818CA000883DE1B4390B593B0C4
:1051700000AF78603960374B07F128040FCB84E823
:105180000F00354A07F11C0307CA83E80700334BB9
:1051900007F10C040FCB84E80F0000237B643B680D
:1051A000B3F5007F1AD100233B6413E03B6C9B00F6
:1051B00048333B4453F8203C7A689A4207D83B6C0A
:1051C0009B0048333B4453F83C3C7B6420E03B6C01
:1051D00001333B643B6C032BE8D919E00023FB63EC
:1051E00013E0FB6B9B0048333B4453F82C3C7A683C
:1051F0009A4207D8FB6B9B0048333B4453F83C3C36
:105200007B6405E0FB6B0133FB63FB6B022BE8D98E
:10521000134B1B6823F0070211497B6C13430B608F
:10522000FEF7A6F9B86308E0FEF7A2F90246BB6BE9
:10523000D31A022B01D9032307E0094B1B6803F0A3
:1052400007037A6C9A42EFD1002318464C37BD46CB
:1052500090BD00BFE8C90008F8C9000804CA0008EA
:105260000040005880B400AF4FF0B043D3F8903006
:1052700003F00103012B01D1012300E000231846B4
:10528000BD465DF8047B704780B400AF4FF0B0437B
:10529000D3F8903003F00203022B01D1012300E088
:1052A00000231846BD465DF8047B704780B483B088
:1052B00000AF78604FF0B043D3F8943023F440420D
:1052C0004FF0B0417B681343C1F8943000BF0C37F6
:1052D000BD465DF8047B704780B483B000AF786052
:1052E0004FF0B0435B6A23F003024FF0B0417B689C
:1052F00013434B6200BF0C37BD465DF8047B70471B
:1053000080B483B000AF78604FF0B0435B6A23F0A5
:1053100030024FF0B0417B6813434B6200BF0C3743
:10532000BD465DF8047B704780B483B000AF786001
:105330004FF0B043D3F8883023F003024FF0B04170
:105340007B681343C1F8883000BF0C37BD465DF859
:10535000047B704780B483B000AF78604FF0B043F7
:10536000D3F8883023F440624FF0B0417B68134398
:10537000C1F8883000BF0C37BD465DF8047B70472C
:1053800080B483B000AF78604FF0B043D3F888208A
:105390007B681B0903F47F23DB431A407B681B01F6
:1053A00003F47F234FF0B0411343C1F8883000BFAE
:1053B0000C37BD465DF8047B704780B483B000AF06
:1053C00078604FF0B043D3F888207B681B0C1B0437
:1053D000DB431A407B681B044FF0B0411343C1F814
:1053E000883000BF0C37BD465DF8047B704780B441
:1053F00083B000AF78604FF0B043D3F8883023F427
:1054000040024FF0B0417B681343C1F8883000BFC1
:105410000C37BD465DF8047B704780B483B000AFA5
:1054200078604FF0B043D3F8883023F040424FF01B
:10543000B0417B681343C1F8883000BF0C37BD46CC
:105440005DF8047B704780B483B000AF78604FF0A4
:10545000B043D3F8883023F040624FF0B0417B680E
:105460001343C1F8883000BF0C37BD465DF8047B9C
:10547000704780B582B000AF78607868FFF7E3FFCF
:1054800000BF0837BD4680BD80B483B000AF7860F0
:105490004FF0B043D3F8883023F040524FF0B04182
:1054A0007B681343C1F8883000BF0C37BD465DF8F8
:1054B000047B704780B483B000AF78604FF0B04396
:1054C000D3F8903023F440724FF0B0417B6813431F
:1054D000C1F8903000BF0C37BD465DF8047B7047C3
:1054E00080B400AF4FF0B043D3F8903003F4407372
:1054F0001846BD465DF8047B704780B400AF4FF09E
:10550000B043D3F890304FF0B04243F48033C2F848
:10551000903000BFBD465DF8047B704780B400AF9B
:105520004FF0B043D3F890304FF0B04223F48033C3
:10553000C2F8903000BFBD465DF8047B704780B470
:1055400000AF4FF0B0431B684FF0B04243F08063B0
:10555000136000BFBD465DF8047B704780B400AFA8
:105560004FF0B0431B684FF0B04223F080631360EC
:1055700000BFBD465DF8047B704780B400AF4FF0BC
:10558000B0431B6803F00063B3F1006F01D1012346
:1055900000E000231846BD465DF8047B704780B5E7
:1055A00088B000AF78600023FB770023BB777B686F
:1055B0001B6803F04003002B34D07B681B6BB3F5F2
:1055C000400F21D0B3F5400F1BD8B3F5000F1DD00D
:1055D000B3F5000F15D8002B0BD0B3F5800F10D109
:1055E0004FF0B043DB684FF0B04243F48033D360F8
:1055F0000DE07B680433184600F047F90346FB775B
:1056000005E00123FB7702E000BF00E000BFFB7F65
:10561000002B05D17B681B6B1846FFF7E8FE01E005
:10562000FB7FBB777B681B6803F40063002B46D0CD
:10563000FFF756FFB8617B681B6CBA699A423CD091
:10564000FEF74EFCBB69002B05D17B681B6C18462E
:10565000FFF730FF2EE04FF0B043D3F890307B617E
:10566000FFF74BFFFFF75AFF7B6923F440727B681B
:105670001B6C13437B614FF0B0427B69C2F89030E2
:10568000FFF7F0FD0346012B14D1FDF771FF3861E0
:105690000BE0FDF76DFF02463B69D31A41F28832F9
:1056A000934202D90323FB7704E0FFF7EDFD0346A5
:1056B000012BEED1FB7FBB7701E0FB7FBB777B68E3
:1056C0001B6803F00103002B04D07B689B6918461C
:1056D000FFF72AFE7B681B6803F00203002B04D04F
:1056E0007B68DB691846FFF735FE7B681B6803F0B3
:1056F0001003002B04D07B689B6A1846FFF75DFE01
:105700007B681B6803F02003002B04D07B68DB6AF6
:105710001846FFF752FE7B681B6803F00403002B5A
:1057200004D07B681B6A1846FFF72AFE7B681B685B
:1057300003F00803002B04D07B685B6A1846FFF770
:105740001FFE7B681B6803F48073002B22D07B68EC
:105750005B6B1846FFF78DFE7B685B6BB3F1006FE8
:1057600007D14FF0B043DB684FF0B04243F0807395
:10577000D3607B685B6BB3F1806F0BD17B680433C4
:10578000184600F0DDF80346FB77FB7F002B01D0C5
:10579000FB7FBB777B681B6803F40073002B2BD067
:1057A0007B689B6BB3F1804F08D07B689B6BB3F138
:1057B000004F03D07B689B6B002B05D17B689B6BF4
:1057C0001846FFF72AFE0AE07B689B6B23F08053A4
:1057D000FB600020FFF721FEF868FFF734FE7B68CE
:1057E0009B6BB3F1C05F07D14FF0B043DB684FF064
:1057F000B04243F08073D3607B681B6803F480631E
:10580000002B22D07B68DB6B1846FFF73DFE7B68E0
:10581000DB6BB3F1005F07D14FF0B043DB684FF0B3
:10582000B04243F48033D3607B68DB6BB3F1805FBD
:105830000BD17B680433184600F0DDF80346FB7794
:10584000FB7F002B01D0FB7FBB777B681B6803F4D9
:105850008053002B04D07B685B6C1846FFF726FD55
:105860007B681B6803F40053002B09D07B68DB6C5A
:105870001846FFF745FD7B689B6C1846FFF72CFD2B
:10588000BB7F18462037BD4680BD80B584B000AFD1
:1058900078600023FB73FFF761FEFDF769FEB860D7
:1058A00009E0FDF765FE0246BB68D31A022B02D958
:1058B0000323FB7304E0FFF760FE0346002BF0D1E7
:1058C000FB7B002B37D14FF0B0431B6923F4FE4222
:1058D0007B681B681B024FF0B04113430B614FF014
:1058E000B0431B6923F478127B685B684FF0B041CA
:1058F00013430B61FFF723FEFDF73AFEB86009E0A2
:10590000FDF736FE0246BB68D31A022B02D90323E9
:10591000FB7304E0FFF731FE0346012BF0D1FB7B64
:10592000002B08D14FF0B0431A697B681B694FF018
:10593000B04113430B61FB7B18461037BD4680BD59
:1059400080B584B000AF78600023FB73FFF706FEDC
:10595000FDF70EFEB86009E0FDF70AFE0246BB68DF
:10596000D31A022B02D90323FB7304E0FFF705FED1
:105970000346002BF0D1FB7B002B37D14FF0B04317
:105980001B6923F4FE427B681B681B024FF0B04189
:1059900013430B614FF0B0431B6923F060627B68D7
:1059A0009B684FF0B04113430B61FFF7C8FDFDF753
:1059B000DFFDB86009E0FDF7DBFD0246BB68D31AE6
:1059C000022B02D90323FB7304E0FFF7D6FD034645
:1059D000012BF0D1FB7B002B08D14FF0B0431A69AB
:1059E0007B681B694FF0B04113430B61FB7B18468A
:1059F0001037BD4680BD80B584B000AF786000230D
:105A0000FB73FFF7ABFDFDF7B3FDB86009E0FDF7F1
:105A1000AFFD0246BB68D31A022B02D90323FB73E6
:105A200004E0FFF7AAFD0346002BF0D1FB7B002B1F
:105A300037D14FF0B0431B6923F4FE427B681B68EB
:105A40001B024FF0B04113430B614FF0B0431B6991
:105A500023F060427B68DB684FF0B04113430B6179
:105A6000FFF76DFDFDF784FDB86009E0FDF780FDEF
:105A70000246BB68D31A022B02D90323FB7304E04E
:105A8000FFF77BFD0346012BF0D1FB7B002B08D1F8
:105A90004FF0B0431A697B681B694FF0B041134364
:105AA0000B61FB7B18461037BD4680BD80B584B0C6
:105AB00000AF78607B68002B01D1012395E07B6803
:105AC0005B6A002B08D17B685B68B3F5827F09D0E5
:105AD0007B680022DA6105E07B6800221A617B683E
