:020000040800F2
:10000000000003200D3A0008FD3600080337000801
:10001000093700080F3700081537000800000000F6
:100020000000000000000000000000001B37000876
:10003000293700080000000037370008453700085E
:10004000613A0008613A0008613A0008613A000824
:10005000613A0008613A0008613A0008613A000814
:10006000613A0008613A0008613A0008613A000804
:10007000613A0008613A0008613A0008613A0008F4
:10008000613A0008613A0008613A0008613A0008E4
:10009000613A0008613A0008613A0008613A0008D4
:1000A000613A0008513700086D370008613A0008CE
:1000B00089370008613A0008613A0008613A00088F
:1000C000613A0008613A0008613A0008613A0008A4
:1000D0009D370008B1370008613A0008613A00080E
:1000E000613A0008613A0008613A0008613A000884
:1000F000613A0008613A0008613A0008613A000874
:10010000613A0008613A0008613A0008613A000863
:10011000613A0008613A0008613A0008613A000853
:10012000613A0008613A0008613A0008613A000843
:0C013000613A0008613A0008613A0008DA
:1001400010B5054C237833B9044B13B10448AFF311
:1001500000800123237010BD100200200000000069
:1001600060CB000808B5034B1BB103490348AFF34C
:10017000008008BD000000001402002060CB0008D1
:1001800010F8012B11F8013B012A28BF9A42F7D041
:10019000D01A7047034613F8012B002AFBD1181A16
:1001A000013870470000000000000000000000005F
:1001B00001F0FF01102A2BDB10F0070F08D010F818
:1001C000013B013A8B422DD010F0070F42B3F6D11C
:1001D000F0B441EA012141EA014122F007047FF035
:1001E00000070023F0E80256083C85EA010586EA8C
:1001F000010685FA47F5A3FA87F586FA47F6A5FAC8
:1002000087F68EB9EED1F0BC01F0FF0102F00702D3
:1002100032B110F8013B013A83EA010313B1F8D17E
:100220000020704701387047002D06BF354603385F
:10023000073815F0010F07D1013015F4807F02BF98
:10024000013015F4C03F0130F0BC0138704700BFE9
:1002500081F0004102E000BF83F0004330B54FEA77
:1002600041044FEA430594EA050F08BF90EA020FE4
:100270001FBF54EA000C55EA020C7FEA645C7FEA77
:10028000655C00F0E2804FEA5454D4EB5555B8BF9A
:100290006D420CDD2C4480EA020281EA030382EA0B
:1002A000000083EA010180EA020281EA0303362D9D
:1002B00088BF30BD11F0004F4FEA01314FF4801C70
:1002C0004CEA113102D0404261EB410113F0004F82
:1002D0004FEA03334CEA133302D0524263EB430339
:1002E00094EA050F00F0A780A4F10104D5F1200ED7
:1002F0000DDB02FA0EFC22FA05F2801841F1000132
:1003000003FA0EF2801843FA05F359410EE0A5F105
:1003100020050EF1200E012A03FA0EFC28BF4CF036
:10032000020C43FA05F3C01851EBE37101F00045EC
:1003300007D54FF0000EDCF1000C7EEB00006EEBF9
:100340000101B1F5801F1BD3B1F5001F0CD3490883
:100350005FEA30004FEA3C0C04F101044FEA4452DA
:1003600012F5800F80F09A80BCF1004F08BF5FEA61
:10037000500C50F1000041EB045141EA050130BD41
:100380005FEA4C0C404141EB0101013C28BFB1F553
:10039000801FE9D291F0000F04BF01460020B1FA9E
:1003A00081F308BF2033A3F10B03B3F120020CDA71
:1003B0000C3208DD02F1140CC2F10C0201FA0CF04F
:1003C00021FA02F10CE002F11402D8BFC2F1200CB4
:1003D00001FA02F120FA0CFCDCBF41EA0C0190406A
:1003E000E41AA2BF01EB0451294330BD6FEA0404B3
:1003F0001F3C1CDA0C340EDC04F11404C4F120029E
:1004000020FA04F001FA02F340EA030021FA04F3AF
:1004100045EA030130BDC4F10C04C4F1200220FA06
:1004200002F001FA04F340EA0300294630BD21FA44
:1004300004F0294630BD94F0000F83F4801306BF0A
:1004400081F480110134013D4EE77FEA645C18BFFE
:100450007FEA655C29D094EA050F08BF90EA020F95
:1004600005D054EA000C04BF1946104630BD91EA8D
:10047000030F1EBF0021002030BD5FEA545C05D190
:100480004000494128BF41F0004130BD14F58004CF
:100490003CBF01F5801130BD01F0004545F0FE4143
:1004A00041F470014FF0000030BD7FEA645C1ABF78
:1004B000194610467FEA655C1CBF0B46024650EAAF
:1004C000013406BF52EA033591EA030F41F40021DB
:1004D00030BD00BF90F0000F04BF0021704730B561
:1004E0004FF4806404F132044FF000054FF0000136
:1004F00050E700BF90F0000F04BF0021704730B5F7
:100500004FF4806404F1320410F0004548BF4042CB
:100510004FF000013EE700BF42004FEAE2014FEA20
:1005200031014FEA02701FBF12F07F4393F07F4FFB
:1005300081F06051704732F07F4208BF704793F0FE
:100540007F4F04BF41F40021704730B54FF4607411
:1005500001F0004521F000411CE700BF50EA010214
:1005600008BF704730B54FF000050AE050EA0102BD
:1005700008BF704730B511F0004502D5404261EB2D
:1005800041014FF4806404F132045FEA915C3FF46E
:10059000D8AE4FF003025FEADC0C18BF03325FEA0B
:1005A000DC0C18BF033202EBDC02C2F1200300FABC
:1005B00003FC20FA02F001FA03FE40EA0E0021FAE1
:1005C00002F11444BDE600BF70B54FF0FF0C4CF4CF
:1005D000E06C1CEA11541DBF1CEA135594EA0C0F81
:1005E00095EA0C0F00F0DEF82C4481EA030621EABC
:1005F0004C5123EA4C5350EA013518BF52EA0335F7
:1006000041F4801143F4801338D0A0FB02CE4FF0A8
:100610000005E1FB02E506F00042E0FB03E54FF0D8
:100620000006E1FB03569CF0000F18BF4EF0010ED0
:10063000A4F1FF04B6F5007F64F5407404D25FEACC
:100640004E0E6D4146EB060642EAC62141EA55517F
:100650004FEAC52040EA5E504FEACE2EB4F1FD0CC1
:1006600088BFBCF5E06F1ED8BEF1004F08BF5FEA3F
:10067000500E50F1000041EB045170BD06F00046F1
:1006800046EA010140EA020081EA0301B4EB5C049E
:10069000C2BFD4EB0C0541EA045170BD41F4801196
:1006A0004FF0000E013C00F3AB8014F1360FDEBFBB
:1006B000002001F0004170BDC4F10004203C35DA97
:1006C0000C341BDC04F11404C4F1200500FA05F31A
:1006D00020FA04F001FA05F240EA020001F00042BB
:1006E00021F0004110EBD37021FA04F642EB060131
:1006F0005EEA430E08BF20EAD37070BDC4F10C045B
:10070000C4F1200500FA04F320FA05F001FA04F21E
:1007100040EA020001F0004110EBD37041F100010A
:100720005EEA430E08BF20EAD37070BDC4F1200515
:1007300000FA05F24EEA020E20FA04F301FA05F27D
:1007400043EA020321FA04F001F0004121FA04F225
:1007500020EA020000EBD3705EEA430E08BF20EAF5
:10076000D37070BD94F0000F0FD101F0004640002F
:1007700041EB010111F4801F08BF013CF7D041EAB1
:10078000060195F0000F18BF704703F000465200B5
:1007900043EB030313F4801F08BF013DF7D043EA86
:1007A0000603704794EA0C0F0CEA135518BF95EA3C
:1007B0000C0F0CD050EA410618BF52EA4306D1D1C3
:1007C00081EA030101F000414FF0000070BD50EAE2
:1007D000410606BF1046194652EA430619D094EA6C
:1007E0000C0F02D150EA013613D195EA0C0F05D156
:1007F00052EA03361CBF104619460AD181EA0301AA
:1008000001F0004141F0FE4141F470014FF0000061
:1008100070BD41F0FE4141F4780170BD70B54FF0FC
:10082000FF0C4CF4E06C1CEA11541DBF1CEA13557C
:1008300094EA0C0F95EA0C0F00F0A7F8A4EB05045E
:1008400081EA030E52EA03354FEA013100F0888055
:100850004FEA03334FF0805545EA131343EA12631E
:100860004FEA022245EA111545EA10654FEA0026D3
:100870000EF000419D4208BF964244F1FD0404F58C
:10088000407402D25B084FEA3202B61A65EB0305E8
:100890005B084FEA32024FF480104FF4002CB6EBA5
:1008A000020E75EB030E22BFB61A754640EA0C0025
:1008B0005B084FEA3202B6EB020E75EB030E22BF65
:1008C000B61A754640EA5C005B084FEA3202B6EBA6
:1008D000020E75EB030E22BFB61A754640EA9C0065
:1008E0005B084FEA3202B6EB020E75EB030E22BF35
:1008F000B61A754640EADC0055EA060E18D04FEAF3
:10090000051545EA16754FEA06164FEAC30343EA92
:1009100052734FEAC2025FEA1C1CC0D111F4801F5F
:100920000BD141EA00014FF000004FF0004CB6E758
:1009300011F4801F04BF01430020B4F1FD0C88BFF7
:10094000BCF5E06F3FF6AFAEB5EB030C04BFB6EB02
:10095000020C5FEA500C50F1000041EB045170BDF5
:100960000EF0004E4EEA113114EB5C04C2BFD4EB22
:100970000C0541EA045170BD41F480114FF0000EA6
:10098000013C90E645EA060E8DE60CEA135594EA22
:100990000C0F08BF95EA0C0F3FF43BAF94EA0C0F25
:1009A0000AD150EA01347FF434AF95EA0C0F7FF49A
:1009B00025AF104619462CE795EA0C0F06D152EAEE
:1009C00003353FF4FDAE1046194622E750EA4106D2
:1009D00018BF52EA43067FF4C5AE50EA41047FF4E3
:1009E0000DAF52EA43057FF4EBAE12E74FF0FF3C48
:1009F00006E000BF4FF0010C02E000BF4FF0010C19
:100A00004DF804CD4FEA410C7FEA6C5C4FEA430C91
:100A100018BF7FEA6C5C1BD001B050EA410C0CBFE0
:100A200052EA430C91EA030F02BF90EA020F002042
:100A3000704710F1000F91EA030F58BF994208BFA9
:100A400090422CBFD8176FEAE37040F00100704766
:100A50004FEA410C7FEA6C5C02D150EA013C07D1BD
:100A60004FEA430C7FEA6C5CD6D152EA033CD3D008
:100A70005DF8040B704700BF8446104662468C4602
:100A80001946634600E000BF01B5FFF7B7FF002835
:100A900048BF10F1000F01BD4DF808EDFFF7F4FF5E
:100AA0000CBF012000205DF808FB00BF4DF808EDE9
:100AB000FFF7EAFF34BF012000205DF808FB00BF0C
:100AC0004DF808EDFFF7E0FF94BF012000205DF82E
:100AD00008FB00BF4DF808EDFFF7CEFF94BF0120E3
:100AE00000205DF808FB00BF4DF808EDFFF7C4FFDC
:100AF00034BF012000205DF808FB00BF4FEA410C25
:100B00007FEA6C5C02D150EA013C0AD14FEA430C07
:100B10007FEA6C5C02D152EA033C02D14FF0000044
:100B200070474FF0010070474FEA410212F5001282
:100B300015D211D56FF47873B3EB625212D94FEA24
:100B4000C12343F0004343EA505311F0004F23FA0E
:100B500002F018BF404270474FF00000704750EA63
:100B6000013005D111F0004008BF6FF00040704720
:100B70004FF00000704700BF53B94AB9002908BFC1
:100B800000281CBF4FF0FF314FF0FF3000F074B968
:100B9000ADF1080C6DE904CE00F006F8DDF804E0D4
:100BA000DDE9022304B070472DE9F047089D0446B3
:100BB0008E46002B4DD18A42944669D9B2FA82F210
:100BC00052B101FA02F3C2F1200120FA01F10CFA4C
:100BD00002FC41EA030E94404FEA1C48210CBEFB84
:100BE000F8F61FFA8CF708FB16E341EA034306FB0D
:100BF00007F199420AD91CEB030306F1FF3080F09C
:100C00001F81994240F21C81023E63445B1AA4B2E8
:100C1000B3FBF8F008FB103344EA034400FB07F78A
:100C2000A7420AD91CEB040400F1FF3380F00A81CB
:100C3000A74240F207816444023840EA0640E41BC0
:100C400000261DB1D4400023C5E900433146BDE86C
:100C5000F0878B4209D9002D00F0EF800026C5E90E
:100C6000000130463146BDE8F087B3FA83F6002E26
:100C70004AD18B4202D3824200F2F980841A61EB9E
:100C8000030301209E46002DE0D0C5E9004EDDE7BC
:100C900002B9FFDEB2FA82F2002A40F09280A1EBA4
:100CA0000C014FEA1C471FFA8CFE0126200CB1FBF9
:100CB000F7F307FB131140EA01410EFB03F08842F2
:100CC00008D91CEB010103F1FF3802D2884200F27F
:100CD000CB804346091AA4B2B1FBF7F007FB101111
:100CE00044EA01440EFB00FEA64508D91CEB0404AF
:100CF00000F1FF3102D2A64500F2BB800846A4EB0A
:100D00000E0440EA03409CE7C6F12007B34022FAF4
:100D100007FC4CEA030C20FA07F401FA06F31C4323
:100D2000F9404FEA1C4900FA06F3B1FBF9F8200C30
:100D30001FFA8CFE09FB181140EA014108FB0EF076
:100D4000884202FA06F20BD91CEB010108F1FF3AC6
:100D500080F08880884240F28580A8F102086144D2
:100D6000091AA4B2B1FBF9F009FB101144EA0141E0
:100D700000FB0EFE8E4508D91CEB010100F1FF348B
:100D80006CD28E456AD90238614440EA0840A0FB23
:100D90000294A1EB0E01A142C846A64656D353D0F9
:100DA0005DB1B3EB080261EB0E0101FA07F722FA1D
:100DB00006F3F1401F43C5E9007100263146BDE846
:100DC000F087C2F12003D8400CFA02FC21FA03F3A9
:100DD000914001434FEA1C471FFA8CFEB3FBF7F02A
:100DE00007FB10360B0C43EA064300FB0EF69E424F
:100DF00004FA02F408D91CEB030300F1FF382FD2E8
:100E00009E422DD9023863449B1B89B2B3FBF7F68F
:100E100007FB163341EA034106FB0EF38B4208D968
:100E20001CEB010106F1FF3816D28B4214D9023EA9
:100E30006144C91A46EA004638E72E46284605E7C7
:100E40000646E3E61846F8E64B45A9D2B9EB020898
:100E500064EB0C0E0138A3E74646EAE7204694E728
:100E60004046D1E7D0467BE7023B614432E730465B
:100E700009E76444023842E7704700BF80B584B098
:100E800000AFF860B9603B601346FB80FB684FF031
:100E90009042DA60FB6810221A82FB683A681A6096
:100EA000FB68D868FB681B8A0122194603F09EF98B
:100EB00000BF1037BD4680BD80B582B000AF7860FE
:100EC0007B68D8687B681B8A0022194603F08EF97C
:100ED0007B6818687B68191D4FF47A73042205F04B
:100EE0004CF97B68D8687B681B8A0122194603F09D
:100EF0007DF97B68DB791A467B689B791B021A4374
:100F00007B685B791B041A437B681B791B061A43B9
:100F10007B685A617B685B69002B0ADA7B685B69D6
:100F20009B0C6FEA83436FEA93431A467B685A61CE
:100F300004E07B685B699A147B685A617B685B6933
:100F400007EE903AF8EEE77A7B68C3ED067A7B68A5
:100F5000D3ED067AB5EE007A67EE877A7B68C3ED4B
:100F6000067A7B689B6907EE903AB0EE670A08370D
:100F7000BD4680BD80B485B000AF78604FF0B0430F
:100F8000DA6C4FF0B0417B681343CB644FF0B04351
:100F9000DA6C7B681340FB60FB6800BF1437BD460A
:100FA0005DF8047B704780B485B000AF786039602D
:100FB0000023FB6007E0FB687A68134400221A7084
:100FC000FB680133FB60FB683A689A42F3D800BFC4
:100FD00000BF1437BD465DF8047B704780B582B012
:100FE00000AF78600B46FB707B68FA7883F842208C
:100FF0007B68002283F843207B685B6B1B680222BE
:101000005A637B689B6B1B686FF001021A617B68F7
:101010009B6B184605F008FE00BF0837BD4680BD33
:1010200090B59BB000AF02F01DFD00F083FC00F016
:10103000E5FC00F07BFF00F01BFD00F059FD00F027
:10104000A3FD00F0EDFD00F029FE00F0C7FE00F06A
:101050001FFF00F045FF00F0EEFCAE4B1B68AE4AF0
:101060001A60AC4B1B68AD4ADA62AA4B1B68AC4AEB
:101070005A63A84B1B68AB4A9A63A64B1B68A84AE5
:10108000DA63A44B1B68002283F84220A14B1B6843
:10109000002283F843209F4B1B6800221A869D4B39
:1010A0001B68002283F844209A4B1B680022DA64F4
:1010B000984B1B684FF000029A64964B1B68002205
:1010C00083F85020934B1B68002283F85120914BEA
:1010D0001B684FF000025A658E4B1B683222A3F842
:1010E0005C208C4B1B680A22A3F85E20894B1B688E
:1010F000002283F86020874B1B68002283F8612060
:10110000894B1B6800229A70874B1B6800221A705B
:10111000854B1B6800225A70844B1B6803F1080141
:101120004FF47A733222824806F0A4FE7F4B1B688C
:101130000833042219467E4806F070FF7B4B1B687B
:101140007B49184601F09AFF784B1B685B6F774A22
:1011500010680022774998476E4B1B6804330122C0
:1011600019466D4806F05AFF6D4B1B6800225A6302
:1011700000216B4805F02CFE6F4B1B6800225A6360
:101180006D4B1B6800229A6300216B4805F020FE1E
:101190000421694805F01CFE684B18685F4B10225B
:1011A0004FF09041FFF76AFE654B1B68DFED657AF3
:1011B000B7EE007AF3EE0F6A9FED636ADFED635AD4
:1011C0009FED635ADFED634A9FED634AF0EE643AA8
:1011D000B0EE453AF0EE652AB0EE462AF6EE001A79
:1011E000B0EE661AF0EE470AB0EE670A184601F054
:1011F00069FF4E4B1B685B6F4C4A106864224D4977
:1012000098474A4B1B689B6F484A126853491046DF
:101210009847404B1B68012283F86020434B1B68B2
:10122000184601F069FE3B4B1B6802211846FFF788
:10123000D5FE3D4B1B689B780A2BFAD801A252F8C9
:1012400023F000BF331200087112000811150008C6
:101250000D15000815150008711500083312000857
:10126000771600083312000833120008D916000858
:10127000284B1B681B790D2B40F00781254B1B6801
:10128000186864230222364906F05EFD214B1B6874
:101290001B8E68333B44002203F8682C00237B66D6
:1012A000DCE0304A7B6E52F823203B46114618465C
:1012B000FEF766FF0346002B40F0CD807B6E062BC9
:1012C00000F2C38001A252F823F000BFE912000827
:1012D000F3120008FD120008691300082D1400081D
:1012E00037140008411400080F4B1B6803229A7042
:1012F000ACE00D4B1B6802229A70A7E00A4B1B68FA
:1013000004229A70034B1B6802211846FFF766FE01
:101310009CE000BF200000207802002098030020FD
:1013200048040020E00400202400002030000020B9
:1013300008030020DCCB0008FC030020280000206C
:101340002C00002000001C42CDCC4C3E00000000D0
:1013500000008043000070C200007042E0CB000833
:10136000ECCB0008040000206F4B1B6803211846DB
:10137000FFF734FE6D4B1B68DFED6D7AB7EE007A38
:10138000F3EE0F6A9FED6B6ADFED6B5A9FED6B5AC0
:10139000DFED6B4A9FED6B4AF0EE643AB0EE453AF2
:1013A000F0EE652AB0EE462AF6EE001AB0EE661AA6
:1013B000F0EE470AB0EE670A184601F083FE4FF4DC
:1013C0008072614B1B68DA624FF480731A465E4B81
:1013D000DA605E4B1B6805229A705D4B1B689B6F41
:1013E0005B4A12685B4910469847594B1B681B6F54
:1013F000574A1068584A59499847554B1B681B6F04
:10140000534A1068564A57499847514B1B685B6FBF
:101410004F4A1068002254499847434B1B680222E8
:1014200083F84420514805F0FFFB0FE0474B1B6851
:1014300006229A700AE0454B1B6808229A7005E064
:10144000424B1B680A229A7000E000BF364B1B68B3
:1014500000221A8606E07B6E01337B667B6E062BCC
:101460007FF71FAF394B1B689B78012B03D1374B9C
:101470001B6800229A702C4B1B6800221A863B4680
:1014800064211846FFF78FFD31E2274B1B681B795B
:101490007F2B1BD1244B1B681B8E002B00F0278257
:1014A000214B1B681B8E013B68333B44002203F831
:1014B000682C1D4B1B681A8E1B4B1B68013A92B29D
:1014C0001A86224B1B6800229A7010E2164B1B688A
:1014D000154A1268128E11461A7901F168033B44CD
:1014E00003F8682C104B1B681A8E0F4B1B680132D7
:1014F00092B21A860C4B1B68043314211846FFF76E
:1015000052FD124B1B6800229A70F0E100BFF3E11C
:1015100000BFF1E100BF154805F086FB0B4B1B68CF
:1015200007229A70E8E100BF200000202C00002074
:1015300000001C42CDCC4C3E000000000000804367
:10154000000070C200007042FC0300202400002054
:1015500030000020F0CB0008FCCB000808CC0008CD
:1015600014CC00081CCC000828CC000894040020EF
:1015700000BF544B1B6893F85030002B00F0B9812A
:10158000504B1B68002283F850204F4B1A684D4B7C
:101590001B68D3ED127A4B4B1B6893ED157AF0EE76
:1015A000470AB0EE670A104601F0D7FD464B1B68AC
:1015B000D3ED0D7A454B1B68FCEEE77A17EE902AC7
:1015C0005A63414B1B68D3ED0D7A404B1B68FCEE10
:1015D000E77A17EE902A9A633A4B1B685B6D1846C0
:1015E000FEF79AFF02460B463846394909F03EF8A5
:1015F000344B1B681C683B461846FEF7CBFD034680
:101600009AB239466423204606F09EFB2D4B1B6898
:101610009B6C1846FEF780FF02460B4638462C4965
:1016200009F024F8274B1B681C683B461846FEF758
:10163000B1FD03469AB239466423204606F084FB86
:10164000214B1B685B6B1846FEF766FF02460B4694
:1016500038461F4909F00AF81A4B1B681C683B46BC
:101660001846FEF797FD03469AB239466423204692
:1016700006F06AFB3DE1134B1B6893F85030002BDA
:1016800000F039810F4B1B68002283F850200D4B6E
:101690001B685B6D1846FEF73FFF02460B46384657
:1016A0000C4908F0E3FF074B1B681C683B461846D3
:1016B000FEF770FD03469AB239466423204606F0D1
:1016C00043FB18E1200000202C000020FC03002038
:1016D00038CC000840CC000800BF3B46874918467C
:1016E00008F0C4FF864B1B681C683B461846FEF793
:1016F00051FD03469AB239466423204606F024FB86
:101700003B468049184608F0B1FF7D4B1B681C68BA
:101710003B461846FEF73EFD03469AB2394664231F
:10172000204606F011FB3B467749184608F09EFF1D
:10173000734B1B681C683B461846FEF72BFD03469F
:101740009AB239466423204606F0FEFA3B466F49BA
:10175000184608F08BFF6A4B1B681C683B4618460E
:10176000FEF718FD03469AB239466423204606F078
:10177000EBFA3B466649184608F078FF604B1B6859
:101780001C683B461846FEF705FD03469AB23946EB
:101790006423204606F0D8FA3B465E49184608F016
:1017A00065FF574B1B681C683B461846FEF7F2FC6A
:1017B00003469AB239466423204606F0C5FA504BD8
:1017C0001B681C683B461846FEF7E4FC03469AB2C9
:1017D00039466423204606F0B7FA3B464E49184680
:1017E00008F044FF464B1B681C683B461846FEF752
:1017F000D1FC03469AB239466423204606F0A4FA87
:101800003B464649184608F031FF3D4B1B681C68B3
:101810003B461846FEF7BEFC03469AB2394664239F
:10182000204606F091FA3B463D49184608F01EFF57
:10183000334B1B681C683B461846FEF7ABFC03465F
:101840009AB239466423204606F07EFA3B46314977
:10185000184608F00BFF2A4B1B681C683B461846CD
:10186000FEF798FC03469AB239466423204606F0F8
:101870006BFA3B462B49184608F0F8FE204B1B68D4
:101880001C683B461846FEF785FC03469AB239466B
:101890006423204606F058FA3B462349184608F0D0
:1018A000E5FE174B1B681C683B461846FEF772FCAA
:1018B00003469AB239466423204606F045FA3B4671
:1018C0001A49184608F0D2FE0D4B1B681C683B46AF
:1018D0001846FEF75FFC03469AB239466423204659
:1018E00006F032FA124B1B6800229A7004E000BF27
:1018F0009FE400BF9DE400BF9BE400BF50CC000804
:101900002000002064CC000870CC000890CC0008B7
:10191000A8CC0008ECCB0008D0CC0008FCCC000818
:1019200014CD000840CD00086CCD000884CD00081F
:101930002400002080B59AB000AF07F120034822B0
:101940000021184608F020FA3B1D00221A605A6058
:101950009A60DA601A615A619A61274B1B6823F416
:10196000C063254A43F400731360234B1B6803F4E0
:10197000C0633B603B6803233B624FF480337B6270
:101980004FF48073FB6240233B630223FB64032319
:101990003B6510237B650823BB654FF40033FB6573
:1019A0004FF000537B664FF000733B6607F1200356
:1019B000184603F0EDF80346002B01D001F07AF948
:1019C0006F237B600323BB600023FB6000233B612C
:1019D00000237B618023BB610023FB613B1D03214E
:1019E000184603F063FC0346002B01D001F062F9B6
:1019F00000BF6837BD4680BD0004005880B594B074
:101A000000AF3B4650220021184608F0BDF94FF4C4
:101A100000533B600023BB641023FB643B46184625
:101A200004F081F80346002B01D001F043F900BF18
:101A30005037BD4680BD80B500AF00220021242074
:101A400002F071F9242002F088F9002200212520FB
:101A500002F069F9252002F080F9002200211C2003
:101A600002F061F91C2002F078F900BF80BD00008F
:101A700080B500AF1B4B1C4A1A601A4B1B4A5A60B8
:101A8000184B00229A60174B0122DA60154B002296
:101A90001A61144B00225A61124B00229A61114BB9
:101AA0000022DA610F4B00221A620E4802F0B6FBE8
:101AB0000346002B01D001F0FDF80021094802F097
:101AC0003CFC0346002B01D001F0F4F8002105484E
:101AD00002F07EFC0346002B01D001F0EBF800BFC2
:101AE00080BD00BF2C02002000540040BC7D70105F
:101AF00080B500AF224B234A1A60214B4FF4E132EC
:101B00005A601F4B00229A601D4B0022DA601C4B6A
:101B100000221A611A4B0C225A61194B00229A6159
:101B2000174B00221A62164B00225A62144B0022F5
:101B30009A62134B00225A66114806F0B5F8034624
:101B4000002B01D001F0B6F800210D4808F027F86D
:101B50000346002B01D001F0ADF80021084808F041
:101B60005CF80346002B01D001F0A4F8044807F00C
:101B7000DDFF0346002B01D001F09CF800BF80BDC3
:101B8000780200200080004080B500AF224B234A3D
:101B90001A60214B4FF4E1325A601F4B00229A60C9
:101BA0001D4B0022DA601C4B00221A611A4B0C22DA
:101BB0005A61194B00229A61174B0022DA61164BC9
:101BC00000221A62144B00225A62134B00229A62BE
:101BD000114806F069F80346002B01D001F06AF8BD
:101BE00000210D4807F0DBFF0346002B01D001F078
:101BF00061F80021084808F010F80346002B01D0D6
:101C000001F058F8044807F091FF0346002B01D07B
:101C100001F050F800BF80BD0803002000380140EB
:101C200080B500AF1B4B1C4A1A601A4B4FF48272EE
:101C30005A60184B4FF480629A60164B4FF4E06282
:101C4000DA60144B00221A61124B00225A61114BC8
:101C50004FF400729A610F4B3022DA610D4B002273
:101C60001A620C4B00225A620A4B00229A62094BFC
:101C70000722DA62074B00221A63064B08225A63D6
:101C8000044804F0D7F90346002B01D001F012F804
:101C900000BF80BD980300200030014080B598B09F
:101CA00000AF07F1540300221A605A609A6007F1EE
:101CB000380300221A605A609A60DA601A615A6129
:101CC0009A613B1D34220021184608F05DF8414B13
:101CD000414A1A603F4BFA225A603E4B00229A60FA
:101CE0003C4B4FF40072DA603A4B00221A61394BD8
:101CF00000225A61374B00229A61364805F011F8EC
:101D00000346002B01D000F0D5FF00237B650023A4
:101D1000BB650023FB6507F1540319462D4805F008
:101D200095FE0346002B01D000F0C4FF6023BB6387
:101D30000023FB6300233B6400237B640023BB641C
:101D40000023FB6400233B6507F13803002219469A
:101D5000204805F037FA0346002B01D000F0AAFF17
:101D600007F13803042219461A4805F02BFA0346F6
:101D7000002B01D000F09EFF00237B600023BB609E
:101D80000023FB6000233B6100237B614FF4005381
:101D9000BB610023FB6100233B6200237B624FF0A9
:101DA0000073BB620023FB6200233B6300237B6361
:101DB0003B1D1946074805F0A9FE0346002B01D03C
:101DC00000F078FF034801F053FC00BF6037BD46C8
:101DD00080BD00BFFC030020002C014080B58AB00C
:101DE00000AF07F11C0300221A605A609A603B465C
:101DF00000221A605A609A60DA601A615A619A6128
:101E0000224B4FF080421A60204B41F63F725A60DD
:101E10001E4B00229A601D4B0422DA601B4B0022ED
:101E20001A611A4B00229A61184804F07AFF03469F
:101E3000002B01D000F03EFF0023FB6100237B62FA
:101E400007F11C031946114805F000FE0346002B5C
:101E500001D000F02FFF60233B6002237B60002352
:101E6000BB6000233B613B4600221946074805F052
:101E7000A9F90346002B01D000F01CFF034801F034
:101E8000F7FB00BF2837BD4680BD00BF48040020D7
:101E900080B500AF104B114A1A600F4B4FF47A42D5
:101EA0005A600D4B00229A600B4B4FF4FA72DA60C5
:101EB000094B00221A61084B00225A61064B00228E
:101EC0009A61054804F058FE0346002B01D000F04B
:101ED000F1FE00BF80BD00BF94040020004401401B
:101EE00080B500AF0F4B104A1A600E4B4FF6FF1231
:101EF0005A600C4B00229A600A4B3222DA60094B7E
:101F000000221A61074B00225A61064B00229A6197
:101F1000044804F031FE0346002B01D000F0CAFE55
:101F200000BF80BDE00400200048014080B586B0BD
:101F300000AF3B1D00221A605A609A60DA601A6195
:101F40000420FFF717F80220FFF714F80120FFF72D
:101F500011F8002230214FF0904002F047F90022A2
:101F60000221114802F042F930237B600123BB605B
:101F70000023FB6000233B613B1D19464FF090405E
:101F800001F0C4FF02237B600123BB600023FB60E0
:101F900000233B613B1D1946034801F0B7FF00BF1A
:101FA0001837BD4680BD00BF0004004880B483B030
:101FB00000AF7860044B1B680122DA7000BF0C3759
:101FC000BD465DF8047B70473000002080B582B0CC
:101FD00000AF78607B681B689B4A93421DD19B4B86
:101FE0001B681868994B1B68191D4FF47A730122FE
:101FF00005F0AAFE0346002B40F0C982944B1B68F3
:1020000001229A70914B1B681868904B1B6804332F
:102010000122194606F002F8B9E27B681B688D4A76
:10202000934240F0B4828C4B1B68184600F02EFFA0
:10203000894B1B681B78013B042B00F2A08201A294
:1020400052F823F059200008612100085F2300089E
:1020500079240008CF2300087F4B1B685B78022B94
:1020600002D0032B67D08AE2784B1B680321184605
:10207000FEF7B4FF794B1B68DFED797AB7EE007A93
:10208000F3EE0F6A9FED776ADFED775A9FED775A8F
:10209000DFED774A9FED774AF0EE643AB0EE453ACD
:1020A000F0EE652AB0EE462AF6EE001AB0EE661A99
:1020B000F0EE470AB0EE670A184601F003F84FF455
:1020C00080726D4B1B68DA624FF480731A466A4B5C
:1020D000DA60614B1B689B6F5F4A12686749104664
:1020E00098475D4B1B681B6F5B4A1068644A6549E3
:1020F0009847594B1B681B6F574A1068624A6349DF
:102100009847554B1B685B6F534A10680022604923
:1021100098474F4B1B6805229A704C4B1B68022254
:1021200083F84420494B1B68012283F83220594828
:1021300004F07AFD13E0454B1B6801211846FEF7B9
:102140004DFF454B1B689B6F434A1268524910462E
:1021500098473E4B1B68022283F8602000BF0EE2C6
:102160003D4B1B685B78052B21D0052B00F3CE81FE
:10217000022B02D0032B13D0C8E1374B1B689B6F97
:10218000354A1268454910469847304B1B68012272
:1021900083F86020304B1B68184600F0ADFEDDE090
:1021A0002A4B1B6801211846FEF718FFD6E0274B83
:1021B0001B6802211846FEF711FF274B1B689B780E
:1021C000002B6DD1254B1B68DFED257AB7EE007A29
:1021D000F3EE0F6A9FED236ADFED235A9FED235A3A
:1021E000DFED234A9FED234AF0EE643AB0EE453A24
:1021F000F0EE652AB0EE462AF6EE001AB0EE661A48
:10220000F0EE470AB0EE670A184600F05BFF4FF4A5
:102210008072194B1B68DA624FF480731A46164BB2
:10222000DA600D4B1B689B6F0B4A12681B49104606
:102230009847064B1B68012283F86020064B1B68F9
:10224000184600F059FE88E0008000402000002081
:102250002400002000380140300000202C00002025
:1022600000001C42CDCC4C3E00000000000080432A
:10227000000070C200007042FC030020F0CB000898
:10228000B4CD000808CC000814CC00081CCC000811
:1022900028CC000894040020C4CD0008E0CB00083E
:1022A0009C4B1B689B78012B57D19B4B1B68F2EE14
:1022B000027A9FED9A7ADFED9A6A9FED9A6ADFEDD6
:1022C0009A5A9FED9A5ADFED9A4A9FED9A4AF0EE9C
:1022D000643AB0EE453AF0EE652AB0EE462AF6EEE4
:1022E000001AB0EE661AF0EE470AB0EE670A18461A
:1022F00000F0E8FE4FF400728F4B1B68DA624FF477
:1023000000731A468C4BDA60824B1B689B6F814AC4
:1023100012688A4910469847894B1B68052283F842
:102320006020874B1B68874A9A647A4B1B68DB6F77
:10233000784A1268DFED847AB0EE670A8349104666
:102340009847744B1B68DB6F724A1268DFED807A26
:10235000B0EE670A7F491046984700BFD6E06D4B44
:102360001B685B780F2B40F0D380754B1B680321F3
:102370001846FEF733FE784804F0A4FC704B1B6847
:10238000002283F84420754B1B6800229A706C4B26
:102390001B680022DA64684B1B6800225A63664B94
:1023A0001B6800229A635B4B1B689B6F594A12683B
:1023B0006B4910469847624B1B68012283F86020E6
:1023C000544B1B68184600F097FD00BFA0E0514B2E
:1023D0001B685B78022B02D0032B38D0CFE0584B20
:1023E0001B6803211846FEF7F9FD4A4B1B689B6FDB
:1023F000484A12685B4910469847464B1B681B6F5A
:10240000444A1068584A59499847424B1B681B6F09
:10241000404A1068544A564998473E4B1B685B6FC8
:102420003C4A10680022534998474C4B1B680522D0
:102430009A70434B1B680A2283F84420404B1B6868
:10244000012283F83220444804F0EEFB13E03C4BB9
:102450001B6801211846FEF7C1FD2E4B1B689B6FC0
:102460002C4A1268444910469847354B1B68022293
:1024700083F8602000BF82E0264B1B685B78042B4A
:102480007CD12F4B1B6803211846FEF7A7FD32486D
:1024900004F018FC2A4B1B68002283F844202F4BC1
:1024A0001B6800229A70264B1B680022DA64224BBC
:1024B0001B6800225A63204B1B6800229A63154B4D
:1024C0001B689B6F134A12681C49104698471C4BA7
:1024D0001B68052283F860200E4B1B68DB6F0D4ADA
:1024E0001268DFED197AB0EE670A1849104698476E
:1024F000084B1B68DB6F074A1268DFED157AB0EEF8
:10250000670A14491046984700BF37E000BF36E01D
:1025100000BF34E0300000202C00002017B75139F4
:10252000CDCC0C40CDCC4C3E0000000000008043E0
:10253000000070C200007042FC030020D4CD0008EF
:10254000200000200000344200003442E4CD0008A6
:1025500000001644F4CD000894040020240000205C
:10256000E0CB0008F8CD000808CE00080CCE00082B
:1025700014CE0008DCCB0008C4CD000800BF064B19
:102580001B68083304221946044805F047FD00BFC4
:102590000837BD4680BD00BF300000200803002082
:1025A00080B584B000AF78607B681B68904A934226
:1025B0003ED1904B1B6893F843301A468D4B1B68F5
:1025C00093F842305B00013B9A4210D1894B1B6863
:1025D0005B6B1B6800225A63864B1B689B6B18461B
:1025E00004F070FB834B1B68002283F84320814B6F
:1025F0001B6893F8433003F00103DBB2002B06D0D5
:102600007C4B1B685B6B1B6802225A6305E0794BAD
:102610001B685B6B1B6800225A63764B1B6893F840
:102620004320744B1B680132D2B283F8432021E36C
:102630007B681B68704A934240F01C836F4B1B6899
:102640001846FEF739FC6B4B1B68DA6C694B1B684C
:102650000132DA64694B1A68664B1B6892695A65E5
:10266000644B1B6893F844300A2B00F2B88201A235
:1026700052F823F0DF2B0008DF2B0008AF270008FB
:102680003D280008D92800087D290008192A0008DB
:10269000F52A0008DF2B0008DF2B0008A126000820
:1026A000544B1B68564A9A64564B1B68DB6F554A5D
:1026B0001068524A1268D2ED067AB0EE670A5249A3
:1026C0009847504B1B68DB6F4E4A10684F4A1268A0
:1026D000D2ED0D7AB0EE670A4D499847454B1B681D
:1026E000DB6C03F00103002B16D1424B1B68DB6C43
:1026F0005B08FB603F4B1B681833FA684549184676
:1027000007F0B4FF3F4B1B681B6F3E4A1068394A05
:102710001268183240499847364B1B68DB6CB3F59A
:10272000E14F40F05182334B1B6803211846FEF7FE
:1027300055FC3A4804F0C6FA2E4B1B68002283F879
:102740004420374B1B6800229A702A4B1B680022DA
:10275000DA64344B1B6800225A63324B1B68002238
:102760009A63284B1B689B6F264A12682E491046B5
:102770009847204B1B68052283F86020214B1B687B
:10278000DB6F204A1268DFED297AB0EE670A28492C
:10279000104698471B4B1B68DB6F1A4A1268DFED27
:1027A000257AB0EE670A24491046984717E2114B84
:1027B0001B684FF087429A640E4B1B68D3ED157A65
:1027C000B3EE0E7AF4EEC77AF1EE10FA00DC06E210
:1027D000084B1B6802211846FEF700FC054B1B68DE
:1027E000032283F84420034B1B680022DA64F6E1DD
:1027F0000048014020000020004401402800002043
:1028000000003442300000200CCE00082C000020D4
:1028100018CE000820CE000814CE00089404002032
:1028200024000020FC030020D4CD00080000344226
:10283000E4CD000800001644F4CD00089D4B1B6851
:102840001B6F9C4A10689C4A9C4998479C4B1B688C
:10285000DB6C03F00303002B04D0994B1B68DB6C8B
:10286000012B16D19FED977AF6EE007A27EE277AA4
:10287000934B1B68DB6C07EE903AF8EE677A67EED5
:10288000277AB3EE0E7A8E4B1B6877EE877AC3ED0C
:10289000127A8B4B1B68DB6C07EE903AB8EE677AC6
:1028A0009FED896AF6EE006AC6EE267AB4EE677A84
:1028B000F1EE10FA40F08A81814B1B680221184624
:1028C000FEF78CFB7E4B1B68042283F844207C4B74
:1028D0001B680022DA6479E1764B1B681B6F754A2E
:1028E00010687A4A75499847754B1B68DB6C03F092
:1028F0000303002B04D0724B1B68DB6C012B16D139
:102900009FED737AF6EE007A27EE277A6C4B1B6800
:10291000DB6C07EE903AF8EE677A67EE277A9FED68
:102920006A7A674B1B6877EE877AC3ED127A644B3D
:102930001B68DB6C07EE903AB8EE677A9FED626A2F
:10294000F6EE006AC6EE267AB4EE677AF1EE10FA79
:1029500040F03E815A4B1B6802211846FEF73EFBB1
:10296000574B1B68052283F84420554B1B680022F7
:10297000DA64584B1B68584A1A6029E14D4B1B68B2
:102980001B6F4C4A1068554A4C4998474C4B1B6882
:10299000DB6C03F00303002B04D0494B1B68DB6C9A
:1029A000012B16D19FED4E7AF6EE007A27EE277AAC
:1029B000434B1B68DB6C07EE903AF8EE677A67EEE4
:1029C000277A9FED487A3E4B1B6877EE877AC3EDF6
:1029D000127A3B4B1B68DB6C07EE903AB8EE677AD5
:1029E000B3EE0E6AF6EE006AC6EE267AB4EE677AA9
:1029F000F1EE10FA40F0EE80314B1B6802211846D0
:102A0000FEF7ECFA2E4B1B68062283F844202C4B71
:102A10001B680022DA64DDE0264B1B681B6F254A29
:102A20001068314A25499847254B1B68DB6C03F039
:102A30000303002B04D0224B1B68DB6C012B16D147
:102A40009FED2A7AF6EE007A27EE277A1C4B1B6858
:102A5000DB6C07EE903AF8EE677A67EE277A9FED27
:102A6000247A174B1B6877EE877AC3ED127A144BE2
:102A70001B68DB6C07EE903AB8EE677AB3EE0E6A2D
:102A8000F6EE006AC6EE267AB4EE677AF1EE10FA38
:102A900040F0A2800A4B1B6802211846FEF79EFAFE
:102AA000074B1B68072283F84420054B1B68002254
:102AB000DA6491E03000002024CE00081CCC00082D
:102AC00020000020ABAA2A3F0000B4422CCE000810
:102AD000398EE33E2C0000200000484234CE00082E
:102AE0008988883E000002433CCE00086666663F47
:102AF00000000A43614B1B681B6F604A1068604A04
:102B000060499847604B1B68DB6C03F00303002BA4
:102B100004D05D4B1B68DB6C012B16D1DFED5B6ACB
:102B20009FED5B7AF6EE007A27EE277A564B1B680C
:102B3000DB6C07EE903AF8EE677A67EE277A524B35
:102B40001B6876EEE77AC3ED127A4F4B1B68DB6C9D
:102B500007EE903AB8EE677AB3EE0E6AF6EE006AC8
:102B6000C6EE267AB4EE677AF1EE10FA36D149480D
:102B700004F0A8F8484B1B6800225A63464B1B68B8
:102B800000229A63404B1B6805211846FEF726FA7F
:102B90003D4B1B68002283F844203B4B1B680022FE
:102BA000DA64364B1B689B6F344A12683B49104607
:102BB0009847354B1B68012283F860202F4B1B6818
:102BC000184600F099F909E000BF08E000BF06E0F0
:102BD00000BF04E000BF02E000BF00E000BF2A4BDE
:102BE0001B6893F84430002B3FD0274B1B6893F8A9
:102BF00044300A2B39D0214B1B68DB6F1F4A106809
:102C0000214A1268D2ED127AB0EE670A2449984739
:102C10001A4B1B68DB6F194A10681B4A1268D2ED09
:102C2000157AB0EE670A1F499847144B1B68DB6F93
:102C3000124A1068144A126892ED127A124A126807
:102C4000D2ED157A77EE677AB0EE670A16499847A3
:102C50000A4B1B68DB6F094A1068144A1268D2EDF0
:102C60000D7AB0EE670A12499847074B1B6801229C
:102C700083F8502000BF1037BD4680BD30000020D3
:102C800044CE00081CCC0008200000200000254392
:102C90006666663F94040020FC030020E0CB000839
:102CA0004CCE000858CE000864CE00082C0000204E
:102CB00018CE000880B400AF72B600BFFEE7000077
:102CC00080B586B000AFF860B9607A60FB6803F148
:102CD0003A007B68BA68144907F0C8FC7861FB6861
:102CE0005868FB6803F13A017B699AB24FF47A7332
:102CF00005F02AF80346002B02D04FF0FF330EE018
:102D0000FB6858684FF47A730322084905F01CF8F1
:102D10000346002B02D04FF0FF3300E0002318469B
:102D20001837BD4680BD00BF70CE0008E4CF000854
:102D300080B586B000AFF860B9607A60FB6803F1D7
:102D40003A007B68BA68144907F090FC7861FB6828
:102D50005868FB6803F13A017B699AB24FF47A73C1
:102D600004F0F2FF0346002B02D04FF0FF330EE0D9
:102D7000FB6858684FF47A730322084904F0E4FFB3
:102D80000346002B02D04FF0FF3300E0002318462B
:102D90001837BD4680BD00BF7CCE0008E4CF0008D8
:102DA00090B589B002AFF860B96087ED010AFB68A1
:102DB00003F13A047868FDF7AFFB02460B46CDE914
:102DC0000023BA681449204607F050FC7861FB687C
:102DD0005868FB6803F13A017B699AB24FF47A7341
:102DE00004F0B2FF0346002B02D04FF0FF330EE099
:102DF000FB6858684FF47A730322084904F0A4FF73
:102E00000346002B02D04FF0FF3300E000231846AA
:102E10001C37BD4690BD00BF88CE0008E4CF000837
:102E200080B584B000AF786039607B683A333A6827
:102E30001449184607F01AFCF8607B6858687B68EC
:102E400003F13A01FB689AB24FF47A7304F07CFF05
:102E50000346002B02D04FF0FF330EE07B6858682A
:102E60004FF47A730322084904F06EFF0346002BE7
:102E700002D04FF0FF3300E0002318461037BD4664
:102E800080BD00BF98CE0008E4CF000880B483B0B6
:102E900000AF78607B681B7A242B0FD17B68DB7ACC
:102EA000262B0BD17B685A7A7B681A707B689A7ADA
:102EB0007B685A707B6800229A7017E07B681B7AE7
:102EC000242B13D17B685B7A022B0FD17B689B7A12
:102ED000052B0BD17B685A7A7B681A707B689A7ACB
:102EE0007B685A707B68DA7A7B689A7000BF0C370F
:102EF000BD465DF8047B704780B582B000AF786056
:102F00007B681B6F3C4A3D49786898477B681B6F1C
:102F10003B4A3C49786898477B681B6F3A4A3B4973
:102F2000786898477B681B6F394A3A4978689847B0
:102F30007B681B6F384A3949786898477B681B6FF4
:102F4000334A3749786898477B681B6F354A36495A
:102F5000786898477B681B6F324A3449786898478D
:102F60007B681B6F2F4A3249786898477B681B6FD4
:102F7000304A3149786898477B681B6F2F4A30493F
:102F8000786898477B681B6F2A4A2E49786898476B
:102F90007B681B6F2C4A2D49786898477B681B6FAC
:102FA0002B4A2C49786898477B681B6F264A2A4928
:102FB000786898477B681B6F284A29497868984742
:102FC0007B681B6F274A2849786898477B681B6F86
:102FD000224A2649786898477B681B6F244A25490E
:102FE000786898477B681B6F194A23497868984727
:102FF00000BF0837BD4680BD9CCE0008A8CE0008A3
:10300000B4CE0008BCCE0008C8CE0008CCCE000864
:10301000D8CE0008DCCE0008E4CE0008E8CE0008D8
:10302000F4CE000800CF000804CF00080CCF000841
:1030300018CF000824CF000828CF000830CF0008A0
:1030400034CF000840CF00084CCF000850CF000814
:1030500058CF00085CCF000868CF000874CF000884
:1030600078CF000884CF000888CF000894CF0008EC
:10307000A0CF0008A4CF0008ACCF000880B483B074
:1030800000AF786039607B683A685A607B68094AAB
:103090001A677B68084A5A677B68084ADA677B6860
:1030A000074A9A67002318460C37BD465DF8047B33
:1030B000704700BFC12C0008312D0008A12D000869
:1030C000212E000880B48BB000AF786287ED080A2B
:1030D000C7ED070A87ED061AC7ED051A87ED042A22
:1030E000C7ED032A87ED023AC7ED013A87ED004AA2
:1030F0007B6A4FF000025A627B6A4FF000029A62CC
:103100007B6A4FF00002DA627B6A4FF000021A63BA
:103110007B6A4FF000025A637B6A3A6A1A607B6AE4
:10312000FA695A607B6ABA699A607B6A7A691A623C
:103130007B6A3A69DA607B6AFA681A617B6ABA6804
:103140005A617B6A7A689A617B6A3A68DA6100BF81
:103150002C37BD465DF8047B704780B487B000AF64
:10316000F86087ED020AC7ED010A97ED027AD7ED04
:10317000017A77EE677AC7ED057AFB68D3ED007ABE
:1031800097ED057A67EE277AC7ED047AFB6893ED31
:10319000097AFB68D3ED017AF6EE006A67EEA66A5B
:1031A000FB68D3ED087A66EEA76AFB6893ED0A6ABE
:1031B000D7ED057A76EE277A66EEA77A77EE277A4C
:1031C000FB68C3ED097AFB6893ED097AFB68D3EDE0
:1031D000077AB4EEE77AF1EE10FA04DDFB68DA69FB
:1031E000FB685A620EE0FB6893ED097AFB68D3ED49
:1031F000067AB4EEE77AF1EE10FA03D5FB689A6925
:10320000FB685A62FB68D3ED027A37EEA77AFB6857
:10321000D3ED0C7AD7ED016A76EEE77A27EE277ABE
:10322000FB68D3ED037A77EEA76AFB68D3ED087AE3
:1032300076EEE76AFB68D3ED0B7A66EEA77A77EE57
:10324000277AF1EE676AFB68D3ED037A37EEA77A47
:10325000FB68D3ED087A37EE277AC6EE877AFB68EB
:10326000C3ED0B7AFB6893ED097AD7ED047A37EE5C
:10327000277AFB68D3ED0B7A77EE277AFB68C3EDEC
:103280000D7AFB6893ED0D7AFB68D3ED057AB4EE09
:10329000E77AF1EE10FA04DDFB685A69FB685A63BD
:1032A0000EE0FB6893ED0D7AFB68D3ED047AB4EE83
:1032B000E77AF1EE10FA03D5FB681A69FB685A63E6
:1032C000FB687A699A62FB687A681A63FB685B6BD1
:1032D00007EE903AB0EE670A1C37BD465DF8047BF6
:1032E000704780B485B000AF78604FF0B043DA6CBF
:1032F0004FF0B0417B681343CB644FF0B043DA6CBE
:103300007B681340FB60FB6800BF1437BD465DF867
:10331000047B704780B485B000AF78604FF0B04355
:103320009A6D4FF0B0417B6813438B654FF0B0430B
:103330009A6D7B681340FB60FB6800BF1437BD4685
:103340005DF8047B704780B485B000AF78604FF0C3
:10335000B043DA6D4FF0B0417B681343CB654FF05B
:10336000B043DA6D7B681340FB60FB6800BF143725
:10337000BD465DF8047B704780B485B000AF7860CF
:103380004FF0B0431A6E4FF0B0417B6813430B66A9
:103390004FF0B0431A6E7B681340FB60FB6800BFC0
:1033A0001437BD465DF8047B704780B400AF00BFA2
:1033B000BD465DF8047B704780B59CB000AF786077
:1033C00007F15C0300221A605A609A60DA601A61A1
:1033D00007F10C0350220021184606F0D5FC7B684B
:1033E0001B68174A934226D10423FB604FF44033F5
:1033F000FB6207F10C03184602F095FB0346002B15
:1034000001D0FFF757FC0220FFF76BFF4FF4C073AA
:10341000FB6512233B6600237B660023BB66042307
:10342000FB6607F15C031946064800F06FFD4FF498
:103430000010FFF76FFF00BF7037BD4680BD00BFB3
:10344000005400400004004880B59CB000AF786094
:1034500007F15C0300221A605A609A60DA601A6110
:1034600007F10C0350220021184606F08DFC7B6802
:103470001B68364A934225D10223FB600023BB62BE
:1034800007F10C03184602F04EFB0346002B01D057
:10349000FFF710FC0120FFF756FF0120FFF721FF87
:1034A0000C23FB6502233B6600237B660023BB667F
:1034B0000823FB6607F15C0319464FF0904000F0CB
:1034C00025FD3EE07B681B68214A934239D10123E8
:1034D000FB6000237B6207F10C03184602F023FB1C
:1034E0000346002B01D0FFF7E5FB4FF48040FFF7C8
:1034F00043FF0120FFF7F5FE0220FFF7F2FE4FF435
:103500008063FB6502233B6600237B660023BB666A
:103510000723FB6607F15C0319464FF0904000F06B
:10352000F5FC4023FB6502233B6600237B660023FA
:10353000BB660723FB6607F15C031946054800F0EC
:10354000E5FC00BF7037BD4680BD00BF0080004075
:10355000003801400004004880B588B000AF7860B2
:1035600007F10C0300221A605A609A60DA601A614F
:103570007B681B680F4A934217D14FF48050FFF7C6
:10358000FBFE0120FFF7ADFE4223FB6002233B61FF
:1035900000237B610023BB610523FB6107F10C0362
:1035A00019464FF0904000F0B1FC00BF2037BD46F7
:1035B00080BD00BF0030014080B582B000AF7860B0
:1035C0007B681B68114A934214D14FF40060FFF7E7
:1035D000D3FE00220021192000F0A5FB192000F0E5
:1035E000BCFB002200211A2000F09DFB1A2000F0F5
:1035F000B4FB07E07B681B68B3F1804F02D1012068
:10360000FFF788FE00BF0837BD4680BD002C014093
:1036100080B582B000AF78607B681B68124A934225
:103620000CD14FF40030FFF7A7FE00220021192033
:1036300000F079FB192000F090FB10E07B681B681C
:103640000A4A93420BD14FF48020FFF795FE0022E7
:1036500000211A2000F067FB1A2000F07EFB00BF5B
:103660000837BD4680BD00BF00440140004801400E
:1036700080B588B000AF786007F10C0300221A60B3
:103680005A609A60DA601A617B681B681A4A934232
:1036900015D10120FFF725FE4FF44073FB60022394
:1036A0003B6100237B610023BB610123FB6107F1C8
:1036B0000C0319464FF0904000F028FC18E07B689E
:1036C0001B68B3F1804F13D10120FFF70AFE0123DD
:1036D000FB6002233B6100237B610023BB6101236C
:1036E000FB6107F10C0319464FF0904000F00EFC0F
:1036F00000BF2037BD4680BD002C014080B400AF24
:10370000FEE780B400AFFEE780B400AFFEE780B410
:1037100000AFFEE780B400AFFEE780B400AF00BFAB
:10372000BD465DF8047B704780B400AF00BFBD4666
:103730005DF8047B704780B400AF00BFBD465DF804
:10374000047B704780B500AF00F0E6F900BF80BD94
:1037500080B500AF034803F015FC034803F012FCEA
:1037600000BF80BDFC0300209404002080B500AFA2
:10377000034803F007FC034803F004FC00BF80BDCE
:10378000FC030020E004002080B500AF024803F0F5
:10379000F9FB00BF80BD00BF4804002080B500AF2A
:1037A000024804F091FC00BF80BD00BF0803002068
:1037B00080B500AF024804F087FC00BF80BD00BFA9
:1037C0007802002080B400AF01231846BD465DF8A2
:1037D000047B704780B582B000AF7860396006F036
:1037E000A9FA034616221A604FF0FF33184608372D
:1037F000BD4680BD80B582B000AF78604FF0FF312C
:103800007868FFF7E7FFFEE780B586B000AFF860A5
:10381000B9607A6000237B610AE0AFF30080014663
:10382000BB685A1CBA60CAB21A707B6901337B61EB
:103830007A697B689A42F0DB7B6818461837BD4688
:1038400080BD80B586B000AFF860B9607A600023B3
:103850007B6109E0BB685A1CBA601B781846AFF35D
:1038600000807B6901337B617A697B689A42F1DB76
:103870007B6818461837BD4680BD80B483B000AF62
:1038800078604FF0FF3318460C37BD465DF8047B77
:10389000704780B483B000AF786039603B684FF404
:1038A00000525A60002318460C37BD465DF8047B71
:1038B000704780B483B000AF7860012318460C379E
:1038C000BD465DF8047B704780B485B000AFF860FA
:1038D000B9607A60002318461437BD465DF8047B52
:1038E0007047000080B586B000AF7860144A154B71
:1038F000D31A7B617B693B61134B1B68002B02D1A0
:10390000114B124A1A60104B1A687B6813443A69CB
:103910009A4207D206F00EFA03460C221A604FF0C4
:10392000FF3309E0084B1B68FB60074B1A687B6894
:103930001344054A1360FB6818461837BD4680BD1E
:10394000000003200004000068060020800600201C
:1039500080B400AF244BD3F88830234A43F470037B
:10396000C2F888304FF0B0431B684FF0B04243F0CC
:10397000010313604FF0B0434FF4E0229A604FF020
:10398000B0431A684FF0B041184B13400B604FF032
:10399000B043D3F894304FF0B04223F00503C2F89F
:1039A00094304FF0B043D3F898304FF0B04223F04A
:1039B0000103C2F898304FF0B0430D4ADA604FF07F
:1039C000B0430B4A1A614FF0B0431B684FF0B0424E
:1039D00023F4802313604FF0B04300229A6100BFAC
:1039E000BD465DF8047B704700ED00E0FBFEF6FA93
:1039F00000100422D458C4500433C4188C42F9D3A4
:103A00007047036004308842FBD370470C488546FA
:103A1000FFF79EFF0B480C490C4A0023FFF7EDFF10
:103A20000B480C490023FFF7EEFF0B480B4900231E
:103A3000FFF7E9FF06F084F9FDF7F2FAFEE7000070
:103A40000000032004000020100200209CD4000885
:103A50001002002080060020000003200000032048
:103A6000FEE7000080B582B000AF0023FB710C4B75
:103A70001B680B4A43F480731360032000F048F97D
:103A80000F2000F00FF80346002B02D00123FB713A
:103A900001E0FFF78AFCFB7918460837BD4680BD78
:103AA0000040005880B584B000AF78600023FB73FD
:103AB000174B1B78002B24D001F0A4FD0246144BB9
:103AC0001B7819464FF47A73B3FBF1F3B2FBF3F3AF
:103AD000184600F050F90346002B0FD17B680F2BDE
:103AE00009D8002279684FF0FF3000F01CF9094A2C
:103AF0007B68136007E00123FB7304E00123FB7381
:103B000001E00123FB73FB7B18461037BD4680BDE7
:103B10003C0000203800002080B400AF064B1B782A
:103B20001A46064B1B681344044A136000BFBD4687
:103B30005DF8047B704700BF3C0000206C0600204D
:103B400080B400AF034B1B681846BD465DF8047B8C
:103B5000704700BF6C06002080B400AF034B1B68A9
:103B60001846BD465DF8047B704700BF3800002052
:103B700080B485B000AF78607B6803F00703FB601A
:103B80000C4BDB68BB60BA684FF6FF031340BB60A9
:103B9000FB681A02BB68134343F0BF6343F400336E
:103BA000BB60044ABB68D36000BF1437BD465DF8F4
:103BB000047B704700ED00E080B400AF044BDB688D
:103BC0001B0A03F007031846BD465DF8047B7047E7
:103BD00000ED00E080B483B000AF0346FB7197F9BD
:103BE0000730002B0BDBFB7903F01F02074997F925
:103BF00007305B09012000FA02F241F8232000BFE0
:103C00000C37BD465DF8047B704700BF00E100E063
:103C100080B483B000AF03463960FB7197F9073079
:103C2000002B0ADB3B68DAB20C4997F90730120126
:103C3000D2B20B4483F800230AE03B68DAB20849A9
:103C4000FB7903F00F03043B1201D2B20B441A7646
:103C500000BF0C37BD465DF8047B704700E100E013
:103C600000ED00E080B489B000AFF860B9607A6020
:103C7000FB6803F00703FB61FB69C3F10703042B37
:103C800028BF0423BB61FB690433062B02D9FB69FF
:103C9000033B00E000237B614FF0FF32BB6902FA77
:103CA00003F3DA43BB681A407B699A404FF0FF3157
:103CB0007B6901FA03F3D9437B680B401343184631
:103CC0002437BD465DF8047B7047000080B582B0A4
:103CD00000AF78607B68013BB3F1807F01D30123A3
:103CE0000FE00A4A7B68013B53600F214FF0FF3021
:103CF000FFF78EFF054B00229A60044B07221A60E3
:103D0000002318460837BD4680BD00BF10E000E024
:103D100080B582B000AF78607868FFF729FF00BFF8
:103D20000837BD4680BD80B586B000AF0346B96098
:103D30007A60FB73FFF740FF78617A68B968786949
:103D4000FFF790FF024697F90F3011461846FFF72C
:103D50005FFF00BF1837BD4680BD80B582B000AFA1
:103D60000346FB7197F907301846FFF733FF00BF92
:103D70000837BD4680BD80B582B000AF78607868F6
:103D8000FFF7A4FF034618460837BD4680BD80B440
:103D900083B000AF78607B68002B01D101234FE036
:103DA0007B6893F82530DBB2022B08D07B680422B5
:103DB000DA637B68002283F82420012340E07B68DB
:103DC0001B681A687B681B6822F00E021A607B6809
:103DD0009B6C1A687B689B6C22F480721A607B680B
:103DE0001B681A687B681B6822F001021A607B68F6
:103DF0005B6C03F01C027B681B6C012101FA02F270
:103E00005A607B68DB6C7A68126D5A607B685B6D08
:103E1000002B0CD07B685B6D1A687B685B6D22F4AD
:103E200080721A607B689B6D7A68D26D5A607B687D
:103E3000012283F825207B68002283F824200023B8
:103E400018460C37BD465DF8047B704780B584B0DA
:103E500000AF78600023FB737B6893F82530DBB2FA
:103E6000022B05D07B680422DA630123FB7347E051
:103E70007B681B681A687B681B6822F00E021A6058
:103E80007B681B681A687B681B6822F001021A6055
:103E90007B689B6C1A687B689B6C22F480721A604A
:103EA0007B685B6C03F01C027B681B6C012101FAD0
:103EB00002F25A607B68DB6C7A68126D5A607B682C
:103EC0005B6D002B0CD07B685B6D1A687B685B6D4B
:103ED00022F480721A607B689B6D7A68D26D5A609A
:103EE0007B68012283F825207B68002283F8242048
:103EF0007B689B6B002B03D07B689B6B7868984733
:103F0000FB7B18461037BD4680BD000080B487B0EB
:103F100000AF7860396000237B614CE13B681A6830
:103F200001217B6901FA03F31340FB60FB68002B5E
:103F300000F03E813B685B6803F00303012B05D072
:103F40003B685B6803F00303022B30D17B689B68FE
:103F50003B617B695B00032202FA03F3DB433A69AE
:103F600013403B613B68DA687B695B0002FA03F34C
:103F70003A6913433B617B683A699A607B685B6886
:103F80003B6101227B6902FA03F3DB433A69134088
:103F90003B613B685B681B0903F001027B6902FA25
:103FA00003F33A6913433B617B683A695A603B68A3
:103FB0005B6803F00303032B17D07B68DB683B616E
:103FC0007B695B00032202FA03F3DB433A69134087
:103FD0003B613B689A687B695B0002FA03F33A69CC
:103FE00013433B617B683A69DA603B685B6803F0C6
:103FF0000303022B23D17B69DA087B68083253F86C
:1040000022303B617B6903F007039B000F2202FA19
:1040100003F3DB433A6913403B613B681A697B69F0
:1040200003F007039B0002FA03F33A6913433B6171
:104030007B69DA087B680832396943F822107B68AB
:104040001B683B617B695B00032202FA03F3DB43DD
:104050003A6913403B613B685B6803F003027B698C
:104060005B0002FA03F33A6913433B617B683A69E8
:104070001A603B685B6803F44033002B00F09880C3
:10408000544A7B699B08023352F823303B617B69B9
:1040900003F003039B000F2202FA03F3DB433A69A8
:1040A00013403B617B68B3F1904F19D07B684A4A5B
:1040B000934213D07B68494A93420DD07B68484AAB
:1040C000934207D07B68474A934201D1042308E01A
:1040D000072306E0032304E0022302E0012300E0BB
:1040E00000237A6902F00302920093403A69134375
:1040F0003B6138497B699B0802333A6941F82320C8
:10410000394B1B683B61FB68DB433A6913403B61F9
:104110003B685B6803F48013002B03D03A69FB68AB
:1041200013433B61304A3B6913602F4B5B683B6133
:10413000FB68DB433A6913403B613B685B6803F40F
:104140000013002B03D03A69FB6813433B61264AF6
:104150003B695360244BD3F880303B61FB68DB4301
:104160003A6913403B613B685B6803F48033002B82
:1041700003D03A69FB6813433B611B4A3B69C2F8B1
:104180008030194BD3F884303B61FB68DB433A69DC
:1041900013403B613B685B6803F40033002B03D0A2
:1041A0003A69FB6813433B610F4A3B69C2F88430AC
:1041B0007B6901337B613B681A687B6922FA03F3F0
:1041C000002B7FF4ABAE00BF00BF1C37BD465DF8CF
:1041D000047B7047000001400004004800080048CC
:1041E000000C0048001000480008005880B483B05C
:1041F00000AF78600B467B8013467B707B78002B8A
:1042000003D07A887B689A6102E07A887B689A6238
:1042100000BF0C37BD465DF8047B704780B582B0A7
:1042200000AF78607B68002B01D1012381E07B68BF
:1042300093F84130DBB2002B06D17B68002283F873
:1042400040207868FFF7B8F87B68242283F8412083
:104250007B681B681A687B681B6822F001021A6081
:104260007B685A687B681B6822F070621A617B6801
:104270001B689A687B681B6822F400429A607B681E
:10428000DB68012B07D17B689A687B681B6842F466
:1042900000429A6006E07B689A687B681B6842F47B
:1042A00004429A607B68DB68022B04D17B681B6840
:1042B0004FF400625A607B681B685B687A6812681A
:1042C00043F0007343F4004353607B681B68DA6873
:1042D0007B681B6822F40042DA607B681A697B689D
:1042E0005B6942EA03017B689B691A027B681B6871
:1042F0000A43DA607B68D9697B681A6A7B681B6845
:104300000A431A607B681B681A687B681B6842F066
:1043100001021A607B6800225A647B68202283F8BD
:1043200041207B6800221A637B68002283F84220C8
:10433000002318460837BD4680BD80B483B000AF67
:10434000786039607B6893F84130DBB2202B38D13C
:104350007B6893F84030012B01D1022332E07B6867
:10436000012283F840207B68242283F841207B6867
:104370001B681A687B681B6822F001021A607B6860
:104380001B681A687B681B6822F480521A607B687D
:104390001B6819687B681B683A680A431A607B6867
:1043A0001B681A687B681B6842F001021A607B6810
:1043B000202283F841207B68002283F840200023DC
:1043C00000E0022318460C37BD465DF8047B7047B9
:1043D00080B485B000AF786039607B6893F8413075
:1043E000DBB2202B39D17B6893F84030012B01D10F
:1043F000022333E07B68012283F840207B6824227B
:1044000083F841207B681B681A687B681B6822F070
:1044100001021A607B681B681B68FB60FB6823F461
:104420007063FB603B681B02FA681343FB607B68A8
:104430001B68FA681A607B681B681A687B681B68CF
:1044400042F001021A607B68202283F841207B68D9
:10445000002283F84020002300E00223184614378E
:10446000BD465DF8047B704780B400AF054B1B6808
:10447000044A43F48073136000BFBD465DF8047BBB
:10448000704700BF0004005880B400AF044B1B68A5
:1044900003F4C0631846BD465DF8047B704700BF57
:1044A0000004005880B400AF4FF0B0431B6803F421
:1044B0008013B3F5801F01D1012300E000231846CB
:1044C000BD465DF8047B704780B400AF4FF0B04349
:1044D0001B684FF0B04243F48033136000BFBD4609
:1044E0005DF8047B704780B400AF4FF0B0431B68A9
:1044F0004FF0B04223F48033136000BFBD465DF837
:10450000047B704780B400AF4FF0B0431B6803F4E6
:104510000033B3F5003F01D1012300E0002318462A
:10452000BD465DF8047B704780B400AF4FF0B043E8
:104530001B684FF0B04243F48073136000BFBD4668
:104540005DF8047B704780B400AF4FF0B0431B6848
:104550004FF0B04223F48073136000BFBD465DF896
:10456000047B704780B400AF4FF0B0431B6803F486
:104570008063B3F5806F01D1012300E0002318466A
:10458000BD465DF8047B704780B483B000AF7860AF
:104590004FF0B0435B6823F0FE427B681B064FF090
:1045A000B04113434B6000BF0C37BD465DF8047B40
:1045B000704780B400AF4FF0B043D3F898304FF05D
:1045C000B04243F00103C2F8983000BFBD465DF829
:1045D000047B704780B400AF4FF0B043D3F89830FD
:1045E0004FF0B04223F00103C2F8983000BFBD463F
:1045F0005DF8047B704780B400AF4FF0B043D3F850
:10460000983003F00203022B01D1012300E00023C4
:104610001846BD465DF8047B704780B400AF4FF08C
:10462000B043D3F890304FF0B04243F00103C2F8EA
:10463000903000BFBD465DF8047B704780B400AF8A
:104640004FF0B043D3F890304FF0B04223F0010365
:10465000C2F8903000BFBD465DF8047B704780B45F
:1046600000AF4FF0B043D3F890304FF0B04243F07A
:104670000403C2F8903000BFBD465DF8047B70476C
:1046800080B400AF4FF0B043D3F890304FF0B04259
:1046900023F00403C2F8903000BFBD465DF8047BF0
:1046A000704780B400AF4FF0B043D3F8903003F0C0
:1046B0000203022B01D1012300E000231846BD466E
:1046C0005DF8047B704780B400AF4FF0B043D3F87F
:1046D00094304FF0B04243F00103C2F8943000BF71
:1046E000BD465DF8047B704780B400AF4FF0B04327
:1046F000D3F894304FF0B04223F00103C2F8943065
:1047000000BFBD465DF8047B704780B400AF4FF03A
:10471000B043D3F8943003F00203022B01D10123FC
:1047200000E000231846BD465DF8047B704780B466
:1047300000AF4FF0B043D3F894304FF0B04243F0A5
:104740000403C2F8943000BFBD465DF8047B704797
:1047500080B400AF4FF0B043D3F894304FF0B04284
:1047600023F00403C2F8943000BFBD465DF8047B1B
:10477000704780B400AF4FF0B043D3F8943003F0EB
:104780000803082B01D1012300E000231846BD4691
:104790005DF8047B704780B483B000AF78604FF061
:1047A000B043D3F8943023F470627B681B024FF05F
:1047B000B0411343C1F8943000BF0C37BD465DF8DB
:1047C000047B704780B400AF4FF0B0431B684FF0DC
:1047D000B04243F00103136000BFBD465DF8047BA7
:1047E000704780B400AF4FF0B0431B684FF0B04249
:1047F00023F00103136000BFBD465DF8047B7047E2
:1048000080B400AF4FF0B0431B6803F00203022BEB
:1048100001D1012300E000231846BD465DF8047B6A
:10482000704780B483B000AF78604FF0B0431B682E
:1048300023F0F0024FF0B0417B6813430B6000BFE0
:104840000C37BD465DF8047B704780B483B000AF81
:104850004FF0B0431B6803F0F0037B607B68B02B24
:1048600001D9B0237B607B6818460C37BD465DF8E4
:10487000047B704780B483B000AF78604FF0B043E2
:104880005B6823F47F427B681B024FF0B041134307
:104890004B6000BF0C37BD465DF8047B704780B4A9
:1048A00083B000AF78604FF0B0439B6823F0030201
:1048B0004FF0B0417B6813438B6000BF0C37BD469F
:1048C0005DF8047B704780B400AF4FF0B0439B6845
:1048D00003F00C031846BD465DF8047B704780B4B6
:1048E00083B000AF78604FF0B0439B6823F0F002D4
:1048F0004FF0B0417B6813438B6000BF0C37BD465F
:104900005DF8047B704780B483B000AF78604FF0EF
:10491000B043D3F8083123F0F0024FF0B0417B6888
:104920001343C1F8083100BF0C37BD465DF8047B66
:10493000704780B483B000AF78604FF0B043D3F8D5
:10494000083123F00F027B681B094FF0B04113437D
:10495000C1F8083100BF0C37BD465DF8047B7047D5
:1049600080B483B000AF78604FF0B0439B6823F40D
:10497000E0624FF0B0417B6813438B6000BF0C379F
:10498000BD465DF8047B704780B483B000AF7860AB
:104990004FF0B0439B6823F460524FF0B0417B6806
:1049A00013438B6000BF0C37BD465DF8047B704736
:1049B00080B400AF4FF0B0439B6803F0F00318469B
:1049C000BD465DF8047B704780B400AF4FF0B04344
:1049D000D3F808311B0103F0F0031846BD465DF81B
:1049E000047B704780B400AF4FF0B0439B6803F482
:1049F000E0631846BD465DF8047B704780B400AFA5
:104A00004FF0B0439B6803F460531846BD465DF811
:104A1000047B704780B400AF4FF0B0431B684FF089
:104A2000B04243F08073136000BFBD465DF8047B65
:104A3000704780B400AF4FF0B0431B684FF0B042F6
:104A400023F08073136000BFBD465DF8047B7047A0
:104A500080B400AF4FF0B0431B6803F00073B3F1B4
:104A6000007F01D1012300E000231846BD465DF818
:104A7000047B704780B400AF4FF0B043DB681B0A83
:104A800003F07F031846BD465DF8047B704780B491
:104A900000AF4FF0B043DB6803F060431846BD46FB
:104AA0005DF8047B704780B400AF4FF0B043DB6823
:104AB00003F070031846BD465DF8047B704780B470
:104AC00000AF4FF0B043DB6803F003031846BD4668
:104AD0005DF8047B704780B400AF4FF0B0439B6833
:104AE00003F48033B3F5803F01D1012300E00023BC
:104AF0001846BD465DF8047B704780B400AF4FF0A8
:104B0000B043D3F8083103F40033B3F5003F01D1CB
:104B1000012300E000231846BD465DF8047B704782
:104B200080B400AF4FF0B043D3F8083103F48033C2
:104B3000B3F5803F01D1012300E000231846BD46B4
:104B40005DF8047B704780B400AF4FF0B0439B68C2
:104B500003F40033B3F5003F01D1012300E000234B
:104B60001846BD465DF8047B704780B400AF4FF037
:104B7000B0439B6803F48023B3F5802F01D1012358
:104B800000E000231846BD465DF8047B7047000036
:104B900090B58DB000AF78607B68002B01D1012308
:104BA0007FE37B681B6803F02003002B00F09280FA
:104BB000FFF789FEF862FFF782FFB862FB6A002BFD
:104BC00005D0FB6A0C2B4CD1BB6A012B49D1FFF7F6
:104BD00017FE0346002B05D07B68DB69002B01D153
:104BE00001235EE37B685C6AFFF72FFE03469C426D
:104BF00014D97B685B6A184600F044FD0346002B1D
:104C000001D001234DE37B685B6A1846FFF709FE7C
:104C10007B681B6A1846FFF72DFE13E07B685B6A12
:104C20001846FFF7FEFD7B681B6A1846FFF722FE59
:104C30007B685B6A184600F025FD0346002B01D017
:104C400001232EE300F0DEFC0346A54A1360A54BCA
:104C50001B681846FEF726FF0346002B39D00123B8
:104C60001FE37B68DB69002B1ED0FFF7ABFDFEF76F
:104C700067FF786208E0FEF763FF02467B6AD31A9B
:104C8000022B01D903230CE3FFF7BAFD0346002BE7
:104C9000F1D07B685B6A1846FFF7C3FD7B681B6A2F
:104CA0001846FFF7E7FD15E0FFF79BFDFEF748FF0D
:104CB000786208E0FEF744FF02467B6AD31A022BB3
:104CC00001D90323EDE2FFF79BFD0346002BF1D151
:104CD00000E000BF7B681B6803F00103002B4ED08F
:104CE000FFF7F1FD3862FFF7EAFEF8613B6A082B37
:104CF00005D03B6A0C2B0DD1FB69032B0AD1FFF7C2
:104D000001FC0346002B39D07B685B68002B35D152
:104D10000123C6E27B685B68B3F5803F02D1FFF7F1
:104D2000D3FB01E0FFF7DFFB7B685B68002B12D051
:104D3000FEF706FF786208E0FEF702FF02467B6A94
:104D4000D31A642B01D90323ABE2FFF7DBFB034645
:104D5000002BF1D013E0FEF7F3FE786208E0FEF7D7
:104D6000EFFE02467B6AD31A642B01D9032398E233
:104D7000FFF7C8FB0346002BF1D100E000BF7B68C2
:104D80001B6803F00203002B51D0FFF79CFDB861B4
:104D9000FFF795FE7861BB69042B05D0BB690C2B2E
:104DA00013D17B69022B10D1FFF7DCFB0346002BEC
:104DB00005D07B68DB68002B01D1012371E27B68A1
:104DC0001B691846FFF7E0FB31E07B68DB68002BCE
:104DD00019D0FFF7A9FBFEF7B3FE786208E0FEF7F3
:104DE000AFFE02467B6AD31A022B01D9032358E295
:104DF000FFF7B8FB0346002BF1D07B681B69184610
:104E0000FFF7C2FB13E0FFF79EFBFEF799FE786207
:104E100008E0FEF795FE02467B6AD31A022B01D901
:104E200003233EE2FFF79EFB0346002BF1D17B6894
:104E30001B6803F00803002B06D17B681B6803F096
:104E40001003002B00F0A4807B685B69002B77D0F7
:104E50007B681B6803F01003002B4BD0FFF755FC59
:104E60000346002B13D1FFF72EFCFEF769FE786294
:104E700008E0FEF765FE02467B6AD31A022B01D9D1
:104E800003230EE2FFF741FC0346002BF1D0FFF7AE
:104E90004EFCFEF755FE786208E0FEF751FE024632
:104EA0007B6AD31A032B01D90323FAE1FFF761FCD4
:104EB0000346002BF1D07B689B691846FFF76BFC1B
:104EC000FFF712FCFEF73CFE78620DE0FEF738FEBD
:104ED00002467B6AD31A022B06D90323E1E100BF05
:104EE0003400002038000020FFF70FFC0346002BA1
:104EF000ECD14DE0FFF7E7FBFEF722FE786208E019
:104F0000FEF71EFE02467B6AD31A022B01D9032349
:104F1000C7E1FFF7FAFB0346002BF1D0FFF718FCBF
:104F200008E0FEF70DFE02467B6AD31A032B01D977
:104F30000323B6E1FFF71DFC0346002BF1D127E068
:104F4000FFF706FCFEF7FCFD786208E0FEF7F8FDCF
:104F500002467B6AD31A032B01D90323A1E1FFF791
:104F600008FC0346002BF1D1FFF7BEFBFEF7E8FD7E
:104F7000786208E0FEF7E4FD02467B6AD31A022B52
:104F800001D903238DE1FFF7C0FB0346002BF1D1CC
:104F90007B681B6803F00403002B5BD0A74B1B68E6
:104FA00003F48073002B14D1FFF75EFAFEF7C8FDFF
:104FB000786208E0FEF7C4FD02467B6AD31A022B32
:104FC00001D903236DE19D4B1B6803F48073002B13
:104FD000F0D07B689B68012B02D1FFF71EFB0CE031
:104FE0007B689B68052B04D1FFF739FBFFF715FBA6
:104FF00003E0FFF723FBFFF743FB7B689B68002B75
:1050000014D0FEF79DFD78620AE0FEF799FD024696
:105010007B6AD31A41F28832934201D9032340E1DB
:10502000FFF73FFB0346002BEFD013E0FEF788FDB0
:1050300078620AE0FEF784FD02467B6AD31A41F2E9
:105040008832934201D903232BE1FFF72AFB034661
:10505000002BEFD17B681B6803F04003002B2CD0A2
:105060007B689B6A002B14D0FFF7A3FAFEF768FD5C
:10507000786208E0FEF764FD02467B6AD31A022BD1
:1050800001D903230DE1FFF7B6FA0346002BF1D057
:1050900013E0FFF79FFAFEF753FD786208E0FEF792
:1050A0004FFD02467B6AD31A022B01D90323F8E095
:1050B000FFF7A1FA0346002BF1D17B68DB6A002BD6
:1050C00000F0EE80FFF7FFFB38614FF0B043DB6884
:1050D000FB607B68DB6A022B40F0B480FB6803F066
:1050E00003027B681B6B9A4223D1FB6803F07002BA
:1050F0007B685B6B9A421CD1FB681B0A03F07F0242
:105100007B689B6B9A4214D1FB6803F478127B682E
:10511000DB6B9A420DD1FB6803F060627B681B6C0D
:105120009A4206D1FB6803F060427B685B6C9A424E
:105130005DD03B690C2B58D04FF0B0431B6803F097
:105140008063002B01D00123ABE0FFF772FCFEF778
:10515000F7FC786208E0FEF7F3FC02467B6AD31A9C
:10516000022B01D903239CE04FF0B0431B6803F0EE
:105170000073002BEFD14FF0B043DA68304B13408F
:105180007A68116B7A68526B11437A68926B1202DB
:1051900011437A68D26B11437A68126C11437A68B2
:1051A000526C0A434FF0B0411343CB60FFF732FC1F
:1051B0004FF0B043DB684FF0B04243F08053D36010
:1051C000FEF7BEFC786208E0FEF7BAFC02467B6A96
:1051D000D31A022B01D9032363E04FF0B0431B68BD
:1051E00003F00073002BEFD05AE0012359E04FF099
:1051F000B0431B6803F00073002B51D1FFF70AFC8A
:105200004FF0B043DB684FF0B04243F08053D360BF
:10521000FEF796FC786208E0FEF792FC02467B6A95
:10522000D31A022B01D903233BE04FF0B0431B6894
:1052300003F00073002BEFD032E000BF00040058F1
:105240008C80C1113B690C2B28D0FFF7F2FB4FF08B
:10525000B043DB684FF0B04223F00303D3604FF05C
:10526000B043DB684FF0B04223F0885323F480331F
:10527000D360FEF765FC786208E0FEF761FC024649
:105280007B6AD31A022B01D903230AE04FF0B04303
:105290001B6803F00073002BEFD101E0012300E055
:1052A000002318463437BD4690BD00BF80B584B09A
:1052B00000AF786039607B68002B01D101232DE1BC
:1052C000984B1B6803F007033A689A421BD9954B29
:1052D0001B6823F0070293493B6813430B60FEF7FA
:1052E0002FFCF86008E0FEF72BFC0246FB68D31A9F
:1052F000022B01D9032311E18A4B1B6803F007033A
:105300003A689A42EFD17B681B6803F00203002BD6
:1053100016D07B689B681846FFF7E1FAFEF710FC91
:10532000F86008E0FEF70CFC0246FB68D31A022B7B
:1053300001D90323F2E0FFF7CEFB0346002BF1D0A7
:105340007B681B6803F02003002B16D07B685B6929
:105350001846FFF7D8FAFEF7F3FBF86008E0FEF70F
:10536000EFFB0246FB68D31A022B01D90323D5E0D9
:10537000FFF7C3FB0346002BF1D07B681B6803F0EB
:105380004003002B16D07B689B691846FFF7D1FAC3
:10539000FEF7D6FBF86008E0FEF7D2FB0246FB689A
:1053A000D31A022B01D90323B8E0FFF7B9FB034658
:1053B000002BF1D07B681B6803F00403002B16D090
:1053C0007B68DB681846FFF7CBFAFEF7B9FBF8609D
:1053D00008E0FEF7B5FB0246FB68D31A022B01D9A1
:1053E00003239BE0FFF7AFFB0346002BF1D07B6864
:1053F0001B6803F00803002B17D07B681B69DB00D8
:105400001846FFF7C1FAFEF79BFBF86008E0FEF7CD
:1054100097FB0246FB68D31A022B01D903237DE0D8
:10542000FFF7A3FB0346002BF1D07B681B6803F05A
:105430000103002B43D07B685B68022B06D1FFF78A
:1054400061F80346002B1ED1012367E07B685B688F
:10545000032B06D1FFF7FCFA0346002B13D10123DF
:105460005CE07B685B68002B06D1FFF7C9F9034657
:10547000002B08D1012351E0FFF774F80346002BFD
:1054800001D101234AE07B685B681846FFF707FA01
:10549000FEF756FBF8600AE0FEF752FB0246FB6897
:1054A000D31A41F28832934201D9032336E0FFF741
:1054B0000AFA02467B685B689B009A42ECD1194B62
:1054C0001B6803F007033A689A421BD2154B1B680E
:1054D00023F0070213493B6813430B60FEF730FBD0
:1054E000F86008E0FEF72CFB0246FB68D31A022B9B
:1054F00001D9032312E00B4B1B6803F007033A6842
:105500009A42EFD100F07EF80346074A1360FEF797
:1055100023FB03461846FEF7C5FA03461846103724
:10552000BD4680BD004000583400002090B585B0D5
:1055300000AFFFF7C8F978607B68002B0AD1FFF74E
:1055400084F903461B0903F00F032B4A52F823305A
:10555000FB604BE07B68042B02D1284BFB6045E0ED
:105560007B68082B0AD1FEF79DFF0346012B02D171
:10557000224BFB603AE0224BFB6037E0FFF79FFADB
:1055800038603B68022B03D03B68032B03D00DE04F
:105590001A4BBB6015E0FEF785FF0346012B02D1D5
:1055A000164BBB600DE0164BBB600AE0FFF74DF9F0
:1055B00003461B0903F00F030F4A52F82330BB6068
:1055C00000BFFFF757FA0246BB6803FB02F4FFF780
:1055D0006AFA03461B090133B4FBF3F4FFF757FAE9
:1055E00003465B0F0133B4FBF3F3FB60FB68184623
:1055F0001437BD4690BD00BF48D000080024F40019
:105600000048E80198B500AFFFF790FF0446FFF7A8
:10561000CFF903461B0903F00F03034A52F8233066
:10562000B4FBF3F3184698BDE8CF000898B500AF77
:10563000FFF7E8FF0446FFF7D5F903461B0A03F01E
:105640000703044A52F8233003F01F0324FA03F33C
:10565000184698BD28D0000898B500AFFFF7D2FFD4
:105660000446FFF7CBF90346DB0A03F00703044ABD
:1056700052F8233003F01F0324FA03F3184698BDB1
:1056800028D0000890B585B000AF78607B68B02B5B
:1056900003D9154BDB6AFB6007E07B681B0903F04D
:1056A0000F03114A52F82330FB60FFF78DF90346D0
:1056B0001B0903F00F030D4A52F82330FA68B2FBBE
:1056C000F3F3BB60BB680A4AA2FB03239C0CFEF702
:1056D000DBFE03461946204600F00CF80346184648
:1056E0001437BD4690BD00BF48D00008E8CF000881
:1056F00083DE1B4390B593B000AF78603960374BC1
:1057000007F128040FCB84E80F00354A07F11C038A
:1057100007CA83E80700334B07F10C040FCB84E87A
:105720000F0000237B643B68B3F5007F1AD1002390
:105730003B6413E03B6C9B0048333B4453F8203CF4
:105740007A689A4207D83B6C9B0048333B4453F835
:105750003C3C7B6420E03B6C01333B643B6C032BA3
:10576000E8D919E00023FB6313E0FB6B9B0048338F
:105770003B4453F82C3C7A689A4207D8FB6B9B0059
:1057800048333B4453F83C3C7B6405E0FB6B0133FE
:10579000FB63FB6B022BE8D9134B1B6823F007025A
:1057A00011497B6C13430B60FEF7CAF9B86308E03C
:1057B000FEF7C6F90246BB6BD31A022B01D90323AD
:1057C00007E0094B1B6803F007037A6C9A42EFD19C
:1057D000002318464C37BD4690BD00BFB8CF000827
:1057E000C8CF0008D4CF00080040005880B400AFF4
:1057F0004FF0B043D3F8903003F00103012B01D1F7
:10580000012300E000231846BD465DF8047B704785
:1058100080B400AF4FF0B043D3F8903003F00203F0
:10582000022B01D1012300E000231846BD465DF89C
:10583000047B704780B483B000AF78604FF0B04312
:10584000D3F8943023F440424FF0B0417B681343C7
:10585000C1F8943000BF0C37BD465DF8047B70473B
:1058600080B483B000AF78604FF0B0435B6A23F040
:1058700003024FF0B0417B6813434B6200BF0C370B
:10588000BD465DF8047B704780B483B000AF78609C
:105890004FF0B0435B6A23F030024FF0B0417B68B9
:1058A00013434B6200BF0C37BD465DF8047B704765
:1058B00080B483B000AF78604FF0B043D3F8883045
:1058C00023F003024FF0B0417B681343C1F88830E6
:1058D00000BF0C37BD465DF8047B704780B483B0D1
:1058E00000AF78604FF0B043D3F8883023F44062C3
:1058F0004FF0B0417B681343C1F8883000BF0C37CC
:10590000BD465DF8047B704780B483B000AF78601B
:105910004FF0B043D3F888207B681B0903F47F2342
:10592000DB431A407B681B0103F47F234FF0B04137
:105930001343C1F8883000BF0C37BD465DF8047BC7
:10594000704780B483B000AF78604FF0B043D3F8B5
:1059500088207B681B0C1B04DB431A407B681B04FC
:105960004FF0B0411343C1F8883000BF0C37BD463B
:105970005DF8047B704780B483B000AF78604FF06F
:10598000B043D3F8883023F440024FF0B0417B6835
:105990001343C1F8883000BF0C37BD465DF8047B67
:1059A000704780B483B000AF78604FF0B043D3F855
:1059B000883023F040424FF0B0417B681343C1F878
:1059C000883000BF0C37BD465DF8047B704780B45B
:1059D00083B000AF78604FF0B043D3F8883023F045
:1059E00040624FF0B0417B681343C1F8883000BF7C
:1059F0000C37BD465DF8047B704780B582B000AFC0
:105A000078607868FFF7E3FF00BF0837BD4680BDC8
:105A100080B483B000AF78604FF0B043D3F88830E3
:105A200023F040524FF0B0417B681343C1F88830F7
:105A300000BF0C37BD465DF8047B704780B483B06F
:105A400000AF78604FF0B043D3F8903023F4407249
:105A50004FF0B0417B681343C1F8903000BF0C3762
:105A6000BD465DF8047B704780B400AF4FF0B04393
:105A7000D3F8903003F440731846BD465DF8047BBC
:105A8000704780B400AF4FF0B043D3F890304FF080
:105A9000B04243F48033C2F8903000BFBD465DF899
:105AA000047B704780B400AF4FF0B043D3F8903020
:105AB0004FF0B04223F48033C2F8903000BFBD46AF
:105AC0005DF8047B704780B400AF4FF0B0431B68B3
:105AD0004FF0B04243F08063136000BFBD465DF8F5
